{"abi":[{"inputs":[{"internalType":"uint256","name":"minimum","type":"uint256"},{"internalType":"address","name":"creator","type":"address"},{"internalType":"string","name":"title","type":"string"}],"stateMutability":"nonpayable","type":"constructor"},{"inputs":[{"internalType":"uint256","name":"index","type":"uint256"}],"name":"approveRequest","outputs":[],"stateMutability":"nonpayable","type":"function"},{"inputs":[{"internalType":"address","name":"","type":"address"}],"name":"approvers","outputs":[{"internalType":"bool","name":"","type":"bool"}],"stateMutability":"view","type":"function"},{"inputs":[],"name":"approversCount","outputs":[{"internalType":"uint256","name":"","type":"uint256"}],"stateMutability":"view","type":"function"},{"inputs":[],"name":"campaignTitle","outputs":[{"internalType":"string","name":"","type":"string"}],"stateMutability":"view","type":"function"},{"inputs":[],"name":"contribute","outputs":[],"stateMutability":"payable","type":"function"},{"inputs":[{"internalType":"string","name":"description","type":"string"},{"internalType":"uint256","name":"value","type":"uint256"},{"internalType":"address payable","name":"recipient","type":"address"}],"name":"createRequest","outputs":[],"stateMutability":"nonpayable","type":"function"},{"inputs":[{"internalType":"uint256","name":"index","type":"uint256"}],"name":"finalizeRequest","outputs":[],"stateMutability":"nonpayable","type":"function"},{"inputs":[],"name":"getCampaignDetails","outputs":[{"internalType":"string","name":"","type":"string"},{"internalType":"uint256","name":"","type":"uint256"},{"internalType":"uint256","name":"","type":"uint256"},{"internalType":"uint256","name":"","type":"uint256"},{"internalType":"uint256","name":"","type":"uint256"},{"internalType":"address","name":"","type":"address"}],"stateMutability":"view","type":"function"},{"inputs":[],"name":"getRequestsCount","outputs":[{"internalType":"uint256","name":"","type":"uint256"}],"stateMutability":"view","type":"function"},{"inputs":[{"internalType":"uint256","name":"index","type":"uint256"}],"name":"hasApproved","outputs":[{"internalType":"bool","name":"","type":"bool"}],"stateMutability":"view","type":"function"},{"inputs":[],"name":"manager","outputs":[{"internalType":"address","name":"","type":"address"}],"stateMutability":"view","type":"function"},{"inputs":[],"name":"minimumContribution","outputs":[{"internalType":"uint256","name":"","type":"uint256"}],"stateMutability":"view","type":"function"},{"inputs":[{"internalType":"uint256","name":"","type":"uint256"}],"name":"requests","outputs":[{"internalType":"string","name":"description","type":"string"},{"internalType":"uint256","name":"value","type":"uint256"},{"internalType":"address payable","name":"recipient","type":"address"},{"internalType":"bool","name":"complete","type":"bool"},{"internalType":"uint256","name":"approvalCount","type":"uint256"}],"stateMutability":"view","type":"function"}],"devdoc":{"kind":"dev","methods":{},"version":1},"evm":{"assembly":"    /* \"Campaign\":545:3211  contract Campaign {... */\n  mstore(0x40, 0x80)\n    /* \"Campaign\":1072:1240  constructor(uint minimum, address creator, string memory title) {... */\n  callvalue\n  dup1\n  iszero\n  tag_1\n  jumpi\n  0x00\n  dup1\n  revert\ntag_1:\n  pop\n  mload(0x40)\n  sub(codesize, bytecodeSize)\n  dup1\n  bytecodeSize\n  dup4\n  codecopy\n  dup2\n  dup2\n  add\n  0x40\n  mstore\n  dup2\n  add\n  swap1\n  tag_2\n  swap2\n  swap1\n  tag_3\n  jump\t// in\ntag_2:\n    /* \"Campaign\":1156:1163  creator */\n  dup2\n    /* \"Campaign\":1146:1153  manager */\n  0x00\n  dup1\n    /* \"Campaign\":1146:1163  manager = creator */\n  0x0100\n  exp\n  dup2\n  sload\n  dup2\n  0xffffffffffffffffffffffffffffffffffffffff\n  mul\n  not\n  and\n  swap1\n  dup4\n  0xffffffffffffffffffffffffffffffffffffffff\n  and\n  mul\n  or\n  swap1\n  sstore\n  pop\n    /* \"Campaign\":1189:1194  title */\n  dup1\n    /* \"Campaign\":1173:1186  campaignTitle */\n  0x01\n    /* \"Campaign\":1173:1194  campaignTitle = title */\n  swap1\n  dup2\n  tag_6\n  swap2\n  swap1\n  tag_7\n  jump\t// in\ntag_6:\n  pop\n    /* \"Campaign\":1226:1233  minimum */\n  dup3\n    /* \"Campaign\":1204:1223  minimumContribution */\n  0x02\n    /* \"Campaign\":1204:1233  minimumContribution = minimum */\n  dup2\n  swap1\n  sstore\n  pop\n    /* \"Campaign\":1072:1240  constructor(uint minimum, address creator, string memory title) {... */\n  pop\n  pop\n  pop\n    /* \"Campaign\":545:3211  contract Campaign {... */\n  jump(tag_8)\n    /* \"#utility.yul\":7:82   */\ntag_9:\n    /* \"#utility.yul\":40:46   */\n  0x00\n    /* \"#utility.yul\":73:75   */\n  0x40\n    /* \"#utility.yul\":67:76   */\n  mload\n    /* \"#utility.yul\":57:76   */\n  swap1\n  pop\n    /* \"#utility.yul\":7:82   */\n  swap1\n  jump\t// out\n    /* \"#utility.yul\":88:205   */\ntag_10:\n    /* \"#utility.yul\":197:198   */\n  0x00\n    /* \"#utility.yul\":194:195   */\n  dup1\n    /* \"#utility.yul\":187:199   */\n  revert\n    /* \"#utility.yul\":211:328   */\ntag_11:\n    /* \"#utility.yul\":320:321   */\n  0x00\n    /* \"#utility.yul\":317:318   */\n  dup1\n    /* \"#utility.yul\":310:322   */\n  revert\n    /* \"#utility.yul\":334:411   */\ntag_12:\n    /* \"#utility.yul\":371:378   */\n  0x00\n    /* \"#utility.yul\":400:405   */\n  dup2\n    /* \"#utility.yul\":389:405   */\n  swap1\n  pop\n    /* \"#utility.yul\":334:411   */\n  swap2\n  swap1\n  pop\n  jump\t// out\n    /* \"#utility.yul\":417:539   */\ntag_13:\n    /* \"#utility.yul\":490:514   */\n  tag_53\n    /* \"#utility.yul\":508:513   */\n  dup2\n    /* \"#utility.yul\":490:514   */\n  tag_12\n  jump\t// in\ntag_53:\n    /* \"#utility.yul\":483:488   */\n  dup2\n    /* \"#utility.yul\":480:515   */\n  eq\n    /* \"#utility.yul\":470:533   */\n  tag_54\n  jumpi\n    /* \"#utility.yul\":529:530   */\n  0x00\n    /* \"#utility.yul\":526:527   */\n  dup1\n    /* \"#utility.yul\":519:531   */\n  revert\n    /* \"#utility.yul\":470:533   */\ntag_54:\n    /* \"#utility.yul\":417:539   */\n  pop\n  jump\t// out\n    /* \"#utility.yul\":545:688   */\ntag_14:\n    /* \"#utility.yul\":602:607   */\n  0x00\n    /* \"#utility.yul\":633:639   */\n  dup2\n    /* \"#utility.yul\":627:640   */\n  mload\n    /* \"#utility.yul\":618:640   */\n  swap1\n  pop\n    /* \"#utility.yul\":649:682   */\n  tag_56\n    /* \"#utility.yul\":676:681   */\n  dup2\n    /* \"#utility.yul\":649:682   */\n  tag_13\n  jump\t// in\ntag_56:\n    /* \"#utility.yul\":545:688   */\n  swap3\n  swap2\n  pop\n  pop\n  jump\t// out\n    /* \"#utility.yul\":694:820   */\ntag_15:\n    /* \"#utility.yul\":731:738   */\n  0x00\n    /* \"#utility.yul\":771:813   */\n  0xffffffffffffffffffffffffffffffffffffffff\n    /* \"#utility.yul\":764:769   */\n  dup3\n    /* \"#utility.yul\":760:814   */\n  and\n    /* \"#utility.yul\":749:814   */\n  swap1\n  pop\n    /* \"#utility.yul\":694:820   */\n  swap2\n  swap1\n  pop\n  jump\t// out\n    /* \"#utility.yul\":826:922   */\ntag_16:\n    /* \"#utility.yul\":863:870   */\n  0x00\n    /* \"#utility.yul\":892:916   */\n  tag_59\n    /* \"#utility.yul\":910:915   */\n  dup3\n    /* \"#utility.yul\":892:916   */\n  tag_15\n  jump\t// in\ntag_59:\n    /* \"#utility.yul\":881:916   */\n  swap1\n  pop\n    /* \"#utility.yul\":826:922   */\n  swap2\n  swap1\n  pop\n  jump\t// out\n    /* \"#utility.yul\":928:1050   */\ntag_17:\n    /* \"#utility.yul\":1001:1025   */\n  tag_61\n    /* \"#utility.yul\":1019:1024   */\n  dup2\n    /* \"#utility.yul\":1001:1025   */\n  tag_16\n  jump\t// in\ntag_61:\n    /* \"#utility.yul\":994:999   */\n  dup2\n    /* \"#utility.yul\":991:1026   */\n  eq\n    /* \"#utility.yul\":981:1044   */\n  tag_62\n  jumpi\n    /* \"#utility.yul\":1040:1041   */\n  0x00\n    /* \"#utility.yul\":1037:1038   */\n  dup1\n    /* \"#utility.yul\":1030:1042   */\n  revert\n    /* \"#utility.yul\":981:1044   */\ntag_62:\n    /* \"#utility.yul\":928:1050   */\n  pop\n  jump\t// out\n    /* \"#utility.yul\":1056:1199   */\ntag_18:\n    /* \"#utility.yul\":1113:1118   */\n  0x00\n    /* \"#utility.yul\":1144:1150   */\n  dup2\n    /* \"#utility.yul\":1138:1151   */\n  mload\n    /* \"#utility.yul\":1129:1151   */\n  swap1\n  pop\n    /* \"#utility.yul\":1160:1193   */\n  tag_64\n    /* \"#utility.yul\":1187:1192   */\n  dup2\n    /* \"#utility.yul\":1160:1193   */\n  tag_17\n  jump\t// in\ntag_64:\n    /* \"#utility.yul\":1056:1199   */\n  swap3\n  swap2\n  pop\n  pop\n  jump\t// out\n    /* \"#utility.yul\":1205:1322   */\ntag_19:\n    /* \"#utility.yul\":1314:1315   */\n  0x00\n    /* \"#utility.yul\":1311:1312   */\n  dup1\n    /* \"#utility.yul\":1304:1316   */\n  revert\n    /* \"#utility.yul\":1328:1445   */\ntag_20:\n    /* \"#utility.yul\":1437:1438   */\n  0x00\n    /* \"#utility.yul\":1434:1435   */\n  dup1\n    /* \"#utility.yul\":1427:1439   */\n  revert\n    /* \"#utility.yul\":1451:1553   */\ntag_21:\n    /* \"#utility.yul\":1492:1498   */\n  0x00\n    /* \"#utility.yul\":1543:1545   */\n  0x1f\n    /* \"#utility.yul\":1539:1546   */\n  not\n    /* \"#utility.yul\":1534:1536   */\n  0x1f\n    /* \"#utility.yul\":1527:1532   */\n  dup4\n    /* \"#utility.yul\":1523:1537   */\n  add\n    /* \"#utility.yul\":1519:1547   */\n  and\n    /* \"#utility.yul\":1509:1547   */\n  swap1\n  pop\n    /* \"#utility.yul\":1451:1553   */\n  swap2\n  swap1\n  pop\n  jump\t// out\n    /* \"#utility.yul\":1559:1739   */\ntag_22:\n    /* \"#utility.yul\":1607:1684   */\n  0x4e487b7100000000000000000000000000000000000000000000000000000000\n    /* \"#utility.yul\":1604:1605   */\n  0x00\n    /* \"#utility.yul\":1597:1685   */\n  mstore\n    /* \"#utility.yul\":1704:1708   */\n  0x41\n    /* \"#utility.yul\":1701:1702   */\n  0x04\n    /* \"#utility.yul\":1694:1709   */\n  mstore\n    /* \"#utility.yul\":1728:1732   */\n  0x24\n    /* \"#utility.yul\":1725:1726   */\n  0x00\n    /* \"#utility.yul\":1718:1733   */\n  revert\n    /* \"#utility.yul\":1745:2026   */\ntag_23:\n    /* \"#utility.yul\":1828:1855   */\n  tag_70\n    /* \"#utility.yul\":1850:1854   */\n  dup3\n    /* \"#utility.yul\":1828:1855   */\n  tag_21\n  jump\t// in\ntag_70:\n    /* \"#utility.yul\":1820:1826   */\n  dup2\n    /* \"#utility.yul\":1816:1856   */\n  add\n    /* \"#utility.yul\":1958:1964   */\n  dup2\n    /* \"#utility.yul\":1946:1956   */\n  dup2\n    /* \"#utility.yul\":1943:1965   */\n  lt\n    /* \"#utility.yul\":1922:1940   */\n  0xffffffffffffffff\n    /* \"#utility.yul\":1910:1920   */\n  dup3\n    /* \"#utility.yul\":1907:1941   */\n  gt\n    /* \"#utility.yul\":1904:1966   */\n  or\n    /* \"#utility.yul\":1901:1989   */\n  iszero\n  tag_71\n  jumpi\n    /* \"#utility.yul\":1969:1987   */\n  tag_72\n  tag_22\n  jump\t// in\ntag_72:\n    /* \"#utility.yul\":1901:1989   */\ntag_71:\n    /* \"#utility.yul\":2009:2019   */\n  dup1\n    /* \"#utility.yul\":2005:2007   */\n  0x40\n    /* \"#utility.yul\":1998:2020   */\n  mstore\n    /* \"#utility.yul\":1788:2026   */\n  pop\n    /* \"#utility.yul\":1745:2026   */\n  pop\n  pop\n  jump\t// out\n    /* \"#utility.yul\":2032:2161   */\ntag_24:\n    /* \"#utility.yul\":2066:2072   */\n  0x00\n    /* \"#utility.yul\":2093:2113   */\n  tag_74\n  tag_9\n  jump\t// in\ntag_74:\n    /* \"#utility.yul\":2083:2113   */\n  swap1\n  pop\n    /* \"#utility.yul\":2122:2155   */\n  tag_75\n    /* \"#utility.yul\":2150:2154   */\n  dup3\n    /* \"#utility.yul\":2142:2148   */\n  dup3\n    /* \"#utility.yul\":2122:2155   */\n  tag_23\n  jump\t// in\ntag_75:\n    /* \"#utility.yul\":2032:2161   */\n  swap2\n  swap1\n  pop\n  jump\t// out\n    /* \"#utility.yul\":2167:2475   */\ntag_25:\n    /* \"#utility.yul\":2229:2233   */\n  0x00\n    /* \"#utility.yul\":2319:2337   */\n  0xffffffffffffffff\n    /* \"#utility.yul\":2311:2317   */\n  dup3\n    /* \"#utility.yul\":2308:2338   */\n  gt\n    /* \"#utility.yul\":2305:2361   */\n  iszero\n  tag_77\n  jumpi\n    /* \"#utility.yul\":2341:2359   */\n  tag_78\n  tag_22\n  jump\t// in\ntag_78:\n    /* \"#utility.yul\":2305:2361   */\ntag_77:\n    /* \"#utility.yul\":2379:2408   */\n  tag_79\n    /* \"#utility.yul\":2401:2407   */\n  dup3\n    /* \"#utility.yul\":2379:2408   */\n  tag_21\n  jump\t// in\ntag_79:\n    /* \"#utility.yul\":2371:2408   */\n  swap1\n  pop\n    /* \"#utility.yul\":2463:2467   */\n  0x20\n    /* \"#utility.yul\":2457:2461   */\n  dup2\n    /* \"#utility.yul\":2453:2468   */\n  add\n    /* \"#utility.yul\":2445:2468   */\n  swap1\n  pop\n    /* \"#utility.yul\":2167:2475   */\n  swap2\n  swap1\n  pop\n  jump\t// out\n    /* \"#utility.yul\":2481:2727   */\ntag_26:\n    /* \"#utility.yul\":2562:2563   */\n  0x00\n    /* \"#utility.yul\":2572:2685   */\ntag_81:\n    /* \"#utility.yul\":2586:2592   */\n  dup4\n    /* \"#utility.yul\":2583:2584   */\n  dup2\n    /* \"#utility.yul\":2580:2593   */\n  lt\n    /* \"#utility.yul\":2572:2685   */\n  iszero\n  tag_83\n  jumpi\n    /* \"#utility.yul\":2671:2672   */\n  dup1\n    /* \"#utility.yul\":2666:2669   */\n  dup3\n    /* \"#utility.yul\":2662:2673   */\n  add\n    /* \"#utility.yul\":2656:2674   */\n  mload\n    /* \"#utility.yul\":2652:2653   */\n  dup2\n    /* \"#utility.yul\":2647:2650   */\n  dup5\n    /* \"#utility.yul\":2643:2654   */\n  add\n    /* \"#utility.yul\":2636:2675   */\n  mstore\n    /* \"#utility.yul\":2608:2610   */\n  0x20\n    /* \"#utility.yul\":2605:2606   */\n  dup2\n    /* \"#utility.yul\":2601:2611   */\n  add\n    /* \"#utility.yul\":2596:2611   */\n  swap1\n  pop\n    /* \"#utility.yul\":2572:2685   */\n  jump(tag_81)\ntag_83:\n    /* \"#utility.yul\":2719:2720   */\n  0x00\n    /* \"#utility.yul\":2710:2716   */\n  dup5\n    /* \"#utility.yul\":2705:2708   */\n  dup5\n    /* \"#utility.yul\":2701:2717   */\n  add\n    /* \"#utility.yul\":2694:2721   */\n  mstore\n    /* \"#utility.yul\":2543:2727   */\n  pop\n    /* \"#utility.yul\":2481:2727   */\n  pop\n  pop\n  pop\n  jump\t// out\n    /* \"#utility.yul\":2733:3167   */\ntag_27:\n    /* \"#utility.yul\":2822:2827   */\n  0x00\n    /* \"#utility.yul\":2847:2913   */\n  tag_85\n    /* \"#utility.yul\":2863:2912   */\n  tag_86\n    /* \"#utility.yul\":2905:2911   */\n  dup5\n    /* \"#utility.yul\":2863:2912   */\n  tag_25\n  jump\t// in\ntag_86:\n    /* \"#utility.yul\":2847:2913   */\n  tag_24\n  jump\t// in\ntag_85:\n    /* \"#utility.yul\":2838:2913   */\n  swap1\n  pop\n    /* \"#utility.yul\":2936:2942   */\n  dup3\n    /* \"#utility.yul\":2929:2934   */\n  dup2\n    /* \"#utility.yul\":2922:2943   */\n  mstore\n    /* \"#utility.yul\":2974:2978   */\n  0x20\n    /* \"#utility.yul\":2967:2972   */\n  dup2\n    /* \"#utility.yul\":2963:2979   */\n  add\n    /* \"#utility.yul\":3012:3015   */\n  dup5\n    /* \"#utility.yul\":3003:3009   */\n  dup5\n    /* \"#utility.yul\":2998:3001   */\n  dup5\n    /* \"#utility.yul\":2994:3010   */\n  add\n    /* \"#utility.yul\":2991:3016   */\n  gt\n    /* \"#utility.yul\":2988:3100   */\n  iszero\n  tag_87\n  jumpi\n    /* \"#utility.yul\":3019:3098   */\n  tag_88\n  tag_20\n  jump\t// in\ntag_88:\n    /* \"#utility.yul\":2988:3100   */\ntag_87:\n    /* \"#utility.yul\":3109:3161   */\n  tag_89\n    /* \"#utility.yul\":3154:3160   */\n  dup5\n    /* \"#utility.yul\":3149:3152   */\n  dup3\n    /* \"#utility.yul\":3144:3147   */\n  dup6\n    /* \"#utility.yul\":3109:3161   */\n  tag_26\n  jump\t// in\ntag_89:\n    /* \"#utility.yul\":2828:3167   */\n  pop\n    /* \"#utility.yul\":2733:3167   */\n  swap4\n  swap3\n  pop\n  pop\n  pop\n  jump\t// out\n    /* \"#utility.yul\":3187:3542   */\ntag_28:\n    /* \"#utility.yul\":3254:3259   */\n  0x00\n    /* \"#utility.yul\":3303:3306   */\n  dup3\n    /* \"#utility.yul\":3296:3300   */\n  0x1f\n    /* \"#utility.yul\":3288:3294   */\n  dup4\n    /* \"#utility.yul\":3284:3301   */\n  add\n    /* \"#utility.yul\":3280:3307   */\n  slt\n    /* \"#utility.yul\":3270:3392   */\n  tag_91\n  jumpi\n    /* \"#utility.yul\":3311:3390   */\n  tag_92\n  tag_19\n  jump\t// in\ntag_92:\n    /* \"#utility.yul\":3270:3392   */\ntag_91:\n    /* \"#utility.yul\":3421:3427   */\n  dup2\n    /* \"#utility.yul\":3415:3428   */\n  mload\n    /* \"#utility.yul\":3446:3536   */\n  tag_93\n    /* \"#utility.yul\":3532:3535   */\n  dup5\n    /* \"#utility.yul\":3524:3530   */\n  dup3\n    /* \"#utility.yul\":3517:3521   */\n  0x20\n    /* \"#utility.yul\":3509:3515   */\n  dup7\n    /* \"#utility.yul\":3505:3522   */\n  add\n    /* \"#utility.yul\":3446:3536   */\n  tag_27\n  jump\t// in\ntag_93:\n    /* \"#utility.yul\":3437:3536   */\n  swap2\n  pop\n    /* \"#utility.yul\":3260:3542   */\n  pop\n    /* \"#utility.yul\":3187:3542   */\n  swap3\n  swap2\n  pop\n  pop\n  jump\t// out\n    /* \"#utility.yul\":3548:4384   */\ntag_3:\n    /* \"#utility.yul\":3646:3652   */\n  0x00\n    /* \"#utility.yul\":3654:3660   */\n  dup1\n    /* \"#utility.yul\":3662:3668   */\n  0x00\n    /* \"#utility.yul\":3711:3713   */\n  0x60\n    /* \"#utility.yul\":3699:3708   */\n  dup5\n    /* \"#utility.yul\":3690:3697   */\n  dup7\n    /* \"#utility.yul\":3686:3709   */\n  sub\n    /* \"#utility.yul\":3682:3714   */\n  slt\n    /* \"#utility.yul\":3679:3798   */\n  iszero\n  tag_95\n  jumpi\n    /* \"#utility.yul\":3717:3796   */\n  tag_96\n  tag_10\n  jump\t// in\ntag_96:\n    /* \"#utility.yul\":3679:3798   */\ntag_95:\n    /* \"#utility.yul\":3837:3838   */\n  0x00\n    /* \"#utility.yul\":3862:3926   */\n  tag_97\n    /* \"#utility.yul\":3918:3925   */\n  dup7\n    /* \"#utility.yul\":3909:3915   */\n  dup3\n    /* \"#utility.yul\":3898:3907   */\n  dup8\n    /* \"#utility.yul\":3894:3916   */\n  add\n    /* \"#utility.yul\":3862:3926   */\n  tag_14\n  jump\t// in\ntag_97:\n    /* \"#utility.yul\":3852:3926   */\n  swap4\n  pop\n    /* \"#utility.yul\":3808:3936   */\n  pop\n    /* \"#utility.yul\":3975:3977   */\n  0x20\n    /* \"#utility.yul\":4001:4065   */\n  tag_98\n    /* \"#utility.yul\":4057:4064   */\n  dup7\n    /* \"#utility.yul\":4048:4054   */\n  dup3\n    /* \"#utility.yul\":4037:4046   */\n  dup8\n    /* \"#utility.yul\":4033:4055   */\n  add\n    /* \"#utility.yul\":4001:4065   */\n  tag_18\n  jump\t// in\ntag_98:\n    /* \"#utility.yul\":3991:4065   */\n  swap3\n  pop\n    /* \"#utility.yul\":3946:4075   */\n  pop\n    /* \"#utility.yul\":4135:4137   */\n  0x40\n    /* \"#utility.yul\":4124:4133   */\n  dup5\n    /* \"#utility.yul\":4120:4138   */\n  add\n    /* \"#utility.yul\":4114:4139   */\n  mload\n    /* \"#utility.yul\":4166:4184   */\n  0xffffffffffffffff\n    /* \"#utility.yul\":4158:4164   */\n  dup2\n    /* \"#utility.yul\":4155:4185   */\n  gt\n    /* \"#utility.yul\":4152:4269   */\n  iszero\n  tag_99\n  jumpi\n    /* \"#utility.yul\":4188:4267   */\n  tag_100\n  tag_11\n  jump\t// in\ntag_100:\n    /* \"#utility.yul\":4152:4269   */\ntag_99:\n    /* \"#utility.yul\":4293:4367   */\n  tag_101\n    /* \"#utility.yul\":4359:4366   */\n  dup7\n    /* \"#utility.yul\":4350:4356   */\n  dup3\n    /* \"#utility.yul\":4339:4348   */\n  dup8\n    /* \"#utility.yul\":4335:4357   */\n  add\n    /* \"#utility.yul\":4293:4367   */\n  tag_28\n  jump\t// in\ntag_101:\n    /* \"#utility.yul\":4283:4367   */\n  swap2\n  pop\n    /* \"#utility.yul\":4085:4377   */\n  pop\n    /* \"#utility.yul\":3548:4384   */\n  swap3\n  pop\n  swap3\n  pop\n  swap3\n  jump\t// out\n    /* \"#utility.yul\":4390:4489   */\ntag_29:\n    /* \"#utility.yul\":4442:4448   */\n  0x00\n    /* \"#utility.yul\":4476:4481   */\n  dup2\n    /* \"#utility.yul\":4470:4482   */\n  mload\n    /* \"#utility.yul\":4460:4482   */\n  swap1\n  pop\n    /* \"#utility.yul\":4390:4489   */\n  swap2\n  swap1\n  pop\n  jump\t// out\n    /* \"#utility.yul\":4495:4675   */\ntag_30:\n    /* \"#utility.yul\":4543:4620   */\n  0x4e487b7100000000000000000000000000000000000000000000000000000000\n    /* \"#utility.yul\":4540:4541   */\n  0x00\n    /* \"#utility.yul\":4533:4621   */\n  mstore\n    /* \"#utility.yul\":4640:4644   */\n  0x22\n    /* \"#utility.yul\":4637:4638   */\n  0x04\n    /* \"#utility.yul\":4630:4645   */\n  mstore\n    /* \"#utility.yul\":4664:4668   */\n  0x24\n    /* \"#utility.yul\":4661:4662   */\n  0x00\n    /* \"#utility.yul\":4654:4669   */\n  revert\n    /* \"#utility.yul\":4681:5001   */\ntag_31:\n    /* \"#utility.yul\":4725:4731   */\n  0x00\n    /* \"#utility.yul\":4762:4763   */\n  0x02\n    /* \"#utility.yul\":4756:4760   */\n  dup3\n    /* \"#utility.yul\":4752:4764   */\n  div\n    /* \"#utility.yul\":4742:4764   */\n  swap1\n  pop\n    /* \"#utility.yul\":4809:4810   */\n  0x01\n    /* \"#utility.yul\":4803:4807   */\n  dup3\n    /* \"#utility.yul\":4799:4811   */\n  and\n    /* \"#utility.yul\":4830:4848   */\n  dup1\n    /* \"#utility.yul\":4820:4901   */\n  tag_105\n  jumpi\n    /* \"#utility.yul\":4886:4890   */\n  0x7f\n    /* \"#utility.yul\":4878:4884   */\n  dup3\n    /* \"#utility.yul\":4874:4891   */\n  and\n    /* \"#utility.yul\":4864:4891   */\n  swap2\n  pop\n    /* \"#utility.yul\":4820:4901   */\ntag_105:\n    /* \"#utility.yul\":4948:4950   */\n  0x20\n    /* \"#utility.yul\":4940:4946   */\n  dup3\n    /* \"#utility.yul\":4937:4951   */\n  lt\n    /* \"#utility.yul\":4917:4935   */\n  dup2\n    /* \"#utility.yul\":4914:4952   */\n  sub\n    /* \"#utility.yul\":4911:4995   */\n  tag_106\n  jumpi\n    /* \"#utility.yul\":4967:4985   */\n  tag_107\n  tag_30\n  jump\t// in\ntag_107:\n    /* \"#utility.yul\":4911:4995   */\ntag_106:\n    /* \"#utility.yul\":4732:5001   */\n  pop\n    /* \"#utility.yul\":4681:5001   */\n  swap2\n  swap1\n  pop\n  jump\t// out\n    /* \"#utility.yul\":5007:5148   */\ntag_32:\n    /* \"#utility.yul\":5056:5060   */\n  0x00\n    /* \"#utility.yul\":5079:5082   */\n  dup2\n    /* \"#utility.yul\":5071:5082   */\n  swap1\n  pop\n    /* \"#utility.yul\":5102:5105   */\n  dup2\n    /* \"#utility.yul\":5099:5100   */\n  0x00\n    /* \"#utility.yul\":5092:5106   */\n  mstore\n    /* \"#utility.yul\":5136:5140   */\n  0x20\n    /* \"#utility.yul\":5133:5134   */\n  0x00\n    /* \"#utility.yul\":5123:5141   */\n  keccak256\n    /* \"#utility.yul\":5115:5141   */\n  swap1\n  pop\n    /* \"#utility.yul\":5007:5148   */\n  swap2\n  swap1\n  pop\n  jump\t// out\n    /* \"#utility.yul\":5154:5247   */\ntag_33:\n    /* \"#utility.yul\":5191:5197   */\n  0x00\n    /* \"#utility.yul\":5238:5240   */\n  0x20\n    /* \"#utility.yul\":5233:5235   */\n  0x1f\n    /* \"#utility.yul\":5226:5231   */\n  dup4\n    /* \"#utility.yul\":5222:5236   */\n  add\n    /* \"#utility.yul\":5218:5241   */\n  div\n    /* \"#utility.yul\":5208:5241   */\n  swap1\n  pop\n    /* \"#utility.yul\":5154:5247   */\n  swap2\n  swap1\n  pop\n  jump\t// out\n    /* \"#utility.yul\":5253:5360   */\ntag_34:\n    /* \"#utility.yul\":5297:5305   */\n  0x00\n    /* \"#utility.yul\":5347:5352   */\n  dup3\n    /* \"#utility.yul\":5341:5345   */\n  dup3\n    /* \"#utility.yul\":5337:5353   */\n  shl\n    /* \"#utility.yul\":5316:5353   */\n  swap1\n  pop\n    /* \"#utility.yul\":5253:5360   */\n  swap3\n  swap2\n  pop\n  pop\n  jump\t// out\n    /* \"#utility.yul\":5366:5759   */\ntag_35:\n    /* \"#utility.yul\":5435:5441   */\n  0x00\n    /* \"#utility.yul\":5485:5486   */\n  0x08\n    /* \"#utility.yul\":5473:5483   */\n  dup4\n    /* \"#utility.yul\":5469:5487   */\n  mul\n    /* \"#utility.yul\":5508:5605   */\n  tag_112\n    /* \"#utility.yul\":5538:5604   */\n  0xffffffffffffffffffffffffffffffffffffffffffffffffffffffffffffffff\n    /* \"#utility.yul\":5527:5536   */\n  dup3\n    /* \"#utility.yul\":5508:5605   */\n  tag_34\n  jump\t// in\ntag_112:\n    /* \"#utility.yul\":5626:5665   */\n  tag_113\n    /* \"#utility.yul\":5656:5664   */\n  dup7\n    /* \"#utility.yul\":5645:5654   */\n  dup4\n    /* \"#utility.yul\":5626:5665   */\n  tag_34\n  jump\t// in\ntag_113:\n    /* \"#utility.yul\":5614:5665   */\n  swap6\n  pop\n    /* \"#utility.yul\":5698:5702   */\n  dup1\n    /* \"#utility.yul\":5694:5703   */\n  not\n    /* \"#utility.yul\":5687:5692   */\n  dup5\n    /* \"#utility.yul\":5683:5704   */\n  and\n    /* \"#utility.yul\":5674:5704   */\n  swap4\n  pop\n    /* \"#utility.yul\":5747:5751   */\n  dup1\n    /* \"#utility.yul\":5737:5745   */\n  dup7\n    /* \"#utility.yul\":5733:5752   */\n  and\n    /* \"#utility.yul\":5726:5731   */\n  dup5\n    /* \"#utility.yul\":5723:5753   */\n  or\n    /* \"#utility.yul\":5713:5753   */\n  swap3\n  pop\n    /* \"#utility.yul\":5442:5759   */\n  pop\n  pop\n    /* \"#utility.yul\":5366:5759   */\n  swap4\n  swap3\n  pop\n  pop\n  pop\n  jump\t// out\n    /* \"#utility.yul\":5765:5825   */\ntag_36:\n    /* \"#utility.yul\":5793:5796   */\n  0x00\n    /* \"#utility.yul\":5814:5819   */\n  dup2\n    /* \"#utility.yul\":5807:5819   */\n  swap1\n  pop\n    /* \"#utility.yul\":5765:5825   */\n  swap2\n  swap1\n  pop\n  jump\t// out\n    /* \"#utility.yul\":5831:5973   */\ntag_37:\n    /* \"#utility.yul\":5881:5890   */\n  0x00\n    /* \"#utility.yul\":5914:5967   */\n  tag_116\n    /* \"#utility.yul\":5932:5966   */\n  tag_117\n    /* \"#utility.yul\":5941:5965   */\n  tag_118\n    /* \"#utility.yul\":5959:5964   */\n  dup5\n    /* \"#utility.yul\":5941:5965   */\n  tag_12\n  jump\t// in\ntag_118:\n    /* \"#utility.yul\":5932:5966   */\n  tag_36\n  jump\t// in\ntag_117:\n    /* \"#utility.yul\":5914:5967   */\n  tag_12\n  jump\t// in\ntag_116:\n    /* \"#utility.yul\":5901:5967   */\n  swap1\n  pop\n    /* \"#utility.yul\":5831:5973   */\n  swap2\n  swap1\n  pop\n  jump\t// out\n    /* \"#utility.yul\":5979:6054   */\ntag_38:\n    /* \"#utility.yul\":6022:6025   */\n  0x00\n    /* \"#utility.yul\":6043:6048   */\n  dup2\n    /* \"#utility.yul\":6036:6048   */\n  swap1\n  pop\n    /* \"#utility.yul\":5979:6054   */\n  swap2\n  swap1\n  pop\n  jump\t// out\n    /* \"#utility.yul\":6060:6329   */\ntag_39:\n    /* \"#utility.yul\":6170:6209   */\n  tag_121\n    /* \"#utility.yul\":6201:6208   */\n  dup4\n    /* \"#utility.yul\":6170:6209   */\n  tag_37\n  jump\t// in\ntag_121:\n    /* \"#utility.yul\":6231:6322   */\n  tag_122\n    /* \"#utility.yul\":6280:6321   */\n  tag_123\n    /* \"#utility.yul\":6304:6320   */\n  dup3\n    /* \"#utility.yul\":6280:6321   */\n  tag_38\n  jump\t// in\ntag_123:\n    /* \"#utility.yul\":6272:6278   */\n  dup5\n    /* \"#utility.yul\":6265:6269   */\n  dup5\n    /* \"#utility.yul\":6259:6270   */\n  sload\n    /* \"#utility.yul\":6231:6322   */\n  tag_35\n  jump\t// in\ntag_122:\n    /* \"#utility.yul\":6225:6229   */\n  dup3\n    /* \"#utility.yul\":6218:6323   */\n  sstore\n    /* \"#utility.yul\":6136:6329   */\n  pop\n    /* \"#utility.yul\":6060:6329   */\n  pop\n  pop\n  pop\n  jump\t// out\n    /* \"#utility.yul\":6335:6408   */\ntag_40:\n    /* \"#utility.yul\":6380:6383   */\n  0x00\n    /* \"#utility.yul\":6335:6408   */\n  swap1\n  jump\t// out\n    /* \"#utility.yul\":6414:6603   */\ntag_41:\n    /* \"#utility.yul\":6491:6523   */\n  tag_126\n  tag_40\n  jump\t// in\ntag_126:\n    /* \"#utility.yul\":6532:6597   */\n  tag_127\n    /* \"#utility.yul\":6590:6596   */\n  dup2\n    /* \"#utility.yul\":6582:6588   */\n  dup5\n    /* \"#utility.yul\":6576:6580   */\n  dup5\n    /* \"#utility.yul\":6532:6597   */\n  tag_39\n  jump\t// in\ntag_127:\n    /* \"#utility.yul\":6467:6603   */\n  pop\n    /* \"#utility.yul\":6414:6603   */\n  pop\n  pop\n  jump\t// out\n    /* \"#utility.yul\":6609:6795   */\ntag_42:\n    /* \"#utility.yul\":6669:6789   */\ntag_129:\n    /* \"#utility.yul\":6686:6689   */\n  dup2\n    /* \"#utility.yul\":6679:6684   */\n  dup2\n    /* \"#utility.yul\":6676:6690   */\n  lt\n    /* \"#utility.yul\":6669:6789   */\n  iszero\n  tag_131\n  jumpi\n    /* \"#utility.yul\":6740:6779   */\n  tag_132\n    /* \"#utility.yul\":6777:6778   */\n  0x00\n    /* \"#utility.yul\":6770:6775   */\n  dup3\n    /* \"#utility.yul\":6740:6779   */\n  tag_41\n  jump\t// in\ntag_132:\n    /* \"#utility.yul\":6713:6714   */\n  0x01\n    /* \"#utility.yul\":6706:6711   */\n  dup2\n    /* \"#utility.yul\":6702:6715   */\n  add\n    /* \"#utility.yul\":6693:6715   */\n  swap1\n  pop\n    /* \"#utility.yul\":6669:6789   */\n  jump(tag_129)\ntag_131:\n    /* \"#utility.yul\":6609:6795   */\n  pop\n  pop\n  jump\t// out\n    /* \"#utility.yul\":6801:7344   */\ntag_43:\n    /* \"#utility.yul\":6902:6904   */\n  0x1f\n    /* \"#utility.yul\":6897:6900   */\n  dup3\n    /* \"#utility.yul\":6894:6905   */\n  gt\n    /* \"#utility.yul\":6891:7337   */\n  iszero\n  tag_134\n  jumpi\n    /* \"#utility.yul\":6936:6974   */\n  tag_135\n    /* \"#utility.yul\":6968:6973   */\n  dup2\n    /* \"#utility.yul\":6936:6974   */\n  tag_32\n  jump\t// in\ntag_135:\n    /* \"#utility.yul\":7020:7049   */\n  tag_136\n    /* \"#utility.yul\":7038:7048   */\n  dup5\n    /* \"#utility.yul\":7020:7049   */\n  tag_33\n  jump\t// in\ntag_136:\n    /* \"#utility.yul\":7010:7018   */\n  dup2\n    /* \"#utility.yul\":7006:7050   */\n  add\n    /* \"#utility.yul\":7203:7205   */\n  0x20\n    /* \"#utility.yul\":7191:7201   */\n  dup6\n    /* \"#utility.yul\":7188:7206   */\n  lt\n    /* \"#utility.yul\":7185:7234   */\n  iszero\n  tag_137\n  jumpi\n    /* \"#utility.yul\":7224:7232   */\n  dup2\n    /* \"#utility.yul\":7209:7232   */\n  swap1\n  pop\n    /* \"#utility.yul\":7185:7234   */\ntag_137:\n    /* \"#utility.yul\":7247:7327   */\n  tag_138\n    /* \"#utility.yul\":7303:7325   */\n  tag_139\n    /* \"#utility.yul\":7321:7324   */\n  dup6\n    /* \"#utility.yul\":7303:7325   */\n  tag_33\n  jump\t// in\ntag_139:\n    /* \"#utility.yul\":7293:7301   */\n  dup4\n    /* \"#utility.yul\":7289:7326   */\n  add\n    /* \"#utility.yul\":7276:7287   */\n  dup3\n    /* \"#utility.yul\":7247:7327   */\n  tag_42\n  jump\t// in\ntag_138:\n    /* \"#utility.yul\":6906:7337   */\n  pop\n  pop\n    /* \"#utility.yul\":6891:7337   */\ntag_134:\n    /* \"#utility.yul\":6801:7344   */\n  pop\n  pop\n  pop\n  jump\t// out\n    /* \"#utility.yul\":7350:7467   */\ntag_44:\n    /* \"#utility.yul\":7404:7412   */\n  0x00\n    /* \"#utility.yul\":7454:7459   */\n  dup3\n    /* \"#utility.yul\":7448:7452   */\n  dup3\n    /* \"#utility.yul\":7444:7460   */\n  shr\n    /* \"#utility.yul\":7423:7460   */\n  swap1\n  pop\n    /* \"#utility.yul\":7350:7467   */\n  swap3\n  swap2\n  pop\n  pop\n  jump\t// out\n    /* \"#utility.yul\":7473:7642   */\ntag_45:\n    /* \"#utility.yul\":7517:7523   */\n  0x00\n    /* \"#utility.yul\":7550:7601   */\n  tag_142\n    /* \"#utility.yul\":7598:7599   */\n  0x00\n    /* \"#utility.yul\":7594:7600   */\n  not\n    /* \"#utility.yul\":7586:7591   */\n  dup5\n    /* \"#utility.yul\":7583:7584   */\n  0x08\n    /* \"#utility.yul\":7579:7592   */\n  mul\n    /* \"#utility.yul\":7550:7601   */\n  tag_44\n  jump\t// in\ntag_142:\n    /* \"#utility.yul\":7546:7602   */\n  not\n    /* \"#utility.yul\":7631:7635   */\n  dup1\n    /* \"#utility.yul\":7625:7629   */\n  dup4\n    /* \"#utility.yul\":7621:7636   */\n  and\n    /* \"#utility.yul\":7611:7636   */\n  swap2\n  pop\n    /* \"#utility.yul\":7524:7642   */\n  pop\n    /* \"#utility.yul\":7473:7642   */\n  swap3\n  swap2\n  pop\n  pop\n  jump\t// out\n    /* \"#utility.yul\":7647:7942   */\ntag_46:\n    /* \"#utility.yul\":7723:7727   */\n  0x00\n    /* \"#utility.yul\":7869:7898   */\n  tag_144\n    /* \"#utility.yul\":7894:7897   */\n  dup4\n    /* \"#utility.yul\":7888:7892   */\n  dup4\n    /* \"#utility.yul\":7869:7898   */\n  tag_45\n  jump\t// in\ntag_144:\n    /* \"#utility.yul\":7861:7898   */\n  swap2\n  pop\n    /* \"#utility.yul\":7931:7934   */\n  dup3\n    /* \"#utility.yul\":7928:7929   */\n  0x02\n    /* \"#utility.yul\":7924:7935   */\n  mul\n    /* \"#utility.yul\":7918:7922   */\n  dup3\n    /* \"#utility.yul\":7915:7936   */\n  or\n    /* \"#utility.yul\":7907:7936   */\n  swap1\n  pop\n    /* \"#utility.yul\":7647:7942   */\n  swap3\n  swap2\n  pop\n  pop\n  jump\t// out\n    /* \"#utility.yul\":7947:9342   */\ntag_7:\n    /* \"#utility.yul\":8064:8101   */\n  tag_146\n    /* \"#utility.yul\":8097:8100   */\n  dup3\n    /* \"#utility.yul\":8064:8101   */\n  tag_29\n  jump\t// in\ntag_146:\n    /* \"#utility.yul\":8166:8184   */\n  0xffffffffffffffff\n    /* \"#utility.yul\":8158:8164   */\n  dup2\n    /* \"#utility.yul\":8155:8185   */\n  gt\n    /* \"#utility.yul\":8152:8208   */\n  iszero\n  tag_147\n  jumpi\n    /* \"#utility.yul\":8188:8206   */\n  tag_148\n  tag_22\n  jump\t// in\ntag_148:\n    /* \"#utility.yul\":8152:8208   */\ntag_147:\n    /* \"#utility.yul\":8232:8270   */\n  tag_149\n    /* \"#utility.yul\":8264:8268   */\n  dup3\n    /* \"#utility.yul\":8258:8269   */\n  sload\n    /* \"#utility.yul\":8232:8270   */\n  tag_31\n  jump\t// in\ntag_149:\n    /* \"#utility.yul\":8317:8384   */\n  tag_150\n    /* \"#utility.yul\":8377:8383   */\n  dup3\n    /* \"#utility.yul\":8369:8375   */\n  dup3\n    /* \"#utility.yul\":8363:8367   */\n  dup6\n    /* \"#utility.yul\":8317:8384   */\n  tag_43\n  jump\t// in\ntag_150:\n    /* \"#utility.yul\":8411:8412   */\n  0x00\n    /* \"#utility.yul\":8435:8439   */\n  0x20\n    /* \"#utility.yul\":8422:8439   */\n  swap1\n  pop\n    /* \"#utility.yul\":8467:8469   */\n  0x1f\n    /* \"#utility.yul\":8459:8465   */\n  dup4\n    /* \"#utility.yul\":8456:8470   */\n  gt\n    /* \"#utility.yul\":8484:8485   */\n  0x01\n    /* \"#utility.yul\":8479:9097   */\n  dup2\n  eq\n  tag_152\n  jumpi\n    /* \"#utility.yul\":9141:9142   */\n  0x00\n    /* \"#utility.yul\":9158:9164   */\n  dup5\n    /* \"#utility.yul\":9155:9232   */\n  iszero\n  tag_153\n  jumpi\n    /* \"#utility.yul\":9207:9216   */\n  dup3\n    /* \"#utility.yul\":9202:9205   */\n  dup8\n    /* \"#utility.yul\":9198:9217   */\n  add\n    /* \"#utility.yul\":9192:9218   */\n  mload\n    /* \"#utility.yul\":9183:9218   */\n  swap1\n  pop\n    /* \"#utility.yul\":9155:9232   */\ntag_153:\n    /* \"#utility.yul\":9258:9325   */\n  tag_154\n    /* \"#utility.yul\":9318:9324   */\n  dup6\n    /* \"#utility.yul\":9311:9316   */\n  dup3\n    /* \"#utility.yul\":9258:9325   */\n  tag_46\n  jump\t// in\ntag_154:\n    /* \"#utility.yul\":9252:9256   */\n  dup7\n    /* \"#utility.yul\":9245:9326   */\n  sstore\n    /* \"#utility.yul\":9114:9336   */\n  pop\n    /* \"#utility.yul\":8449:9336   */\n  jump(tag_151)\n    /* \"#utility.yul\":8479:9097   */\ntag_152:\n    /* \"#utility.yul\":8531:8535   */\n  0x1f\n    /* \"#utility.yul\":8527:8536   */\n  not\n    /* \"#utility.yul\":8519:8525   */\n  dup5\n    /* \"#utility.yul\":8515:8537   */\n  and\n    /* \"#utility.yul\":8565:8602   */\n  tag_155\n    /* \"#utility.yul\":8597:8601   */\n  dup7\n    /* \"#utility.yul\":8565:8602   */\n  tag_32\n  jump\t// in\ntag_155:\n    /* \"#utility.yul\":8624:8625   */\n  0x00\n    /* \"#utility.yul\":8638:8846   */\ntag_156:\n    /* \"#utility.yul\":8652:8659   */\n  dup3\n    /* \"#utility.yul\":8649:8650   */\n  dup2\n    /* \"#utility.yul\":8646:8660   */\n  lt\n    /* \"#utility.yul\":8638:8846   */\n  iszero\n  tag_158\n  jumpi\n    /* \"#utility.yul\":8731:8740   */\n  dup5\n    /* \"#utility.yul\":8726:8729   */\n  dup10\n    /* \"#utility.yul\":8722:8741   */\n  add\n    /* \"#utility.yul\":8716:8742   */\n  mload\n    /* \"#utility.yul\":8708:8714   */\n  dup3\n    /* \"#utility.yul\":8701:8743   */\n  sstore\n    /* \"#utility.yul\":8782:8783   */\n  0x01\n    /* \"#utility.yul\":8774:8780   */\n  dup3\n    /* \"#utility.yul\":8770:8784   */\n  add\n    /* \"#utility.yul\":8760:8784   */\n  swap2\n  pop\n    /* \"#utility.yul\":8829:8831   */\n  0x20\n    /* \"#utility.yul\":8818:8827   */\n  dup6\n    /* \"#utility.yul\":8814:8832   */\n  add\n    /* \"#utility.yul\":8801:8832   */\n  swap5\n  pop\n    /* \"#utility.yul\":8675:8679   */\n  0x20\n    /* \"#utility.yul\":8672:8673   */\n  dup2\n    /* \"#utility.yul\":8668:8680   */\n  add\n    /* \"#utility.yul\":8663:8680   */\n  swap1\n  pop\n    /* \"#utility.yul\":8638:8846   */\n  jump(tag_156)\ntag_158:\n    /* \"#utility.yul\":8874:8880   */\n  dup7\n    /* \"#utility.yul\":8865:8872   */\n  dup4\n    /* \"#utility.yul\":8862:8881   */\n  lt\n    /* \"#utility.yul\":8859:9038   */\n  iszero\n  tag_159\n  jumpi\n    /* \"#utility.yul\":8932:8941   */\n  dup5\n    /* \"#utility.yul\":8927:8930   */\n  dup10\n    /* \"#utility.yul\":8923:8942   */\n  add\n    /* \"#utility.yul\":8917:8943   */\n  mload\n    /* \"#utility.yul\":8975:9023   */\n  tag_160\n    /* \"#utility.yul\":9017:9021   */\n  0x1f\n    /* \"#utility.yul\":9009:9015   */\n  dup10\n    /* \"#utility.yul\":9005:9022   */\n  and\n    /* \"#utility.yul\":8994:9003   */\n  dup3\n    /* \"#utility.yul\":8975:9023   */\n  tag_45\n  jump\t// in\ntag_160:\n    /* \"#utility.yul\":8967:8973   */\n  dup4\n    /* \"#utility.yul\":8960:9024   */\n  sstore\n    /* \"#utility.yul\":8882:9038   */\n  pop\n    /* \"#utility.yul\":8859:9038   */\ntag_159:\n    /* \"#utility.yul\":9084:9085   */\n  0x01\n    /* \"#utility.yul\":9080:9081   */\n  0x02\n    /* \"#utility.yul\":9072:9078   */\n  dup9\n    /* \"#utility.yul\":9068:9082   */\n  mul\n    /* \"#utility.yul\":9064:9086   */\n  add\n    /* \"#utility.yul\":9058:9062   */\n  dup9\n    /* \"#utility.yul\":9051:9087   */\n  sstore\n    /* \"#utility.yul\":8486:9097   */\n  pop\n  pop\n  pop\n    /* \"#utility.yul\":8449:9336   */\ntag_151:\n  pop\n    /* \"#utility.yul\":8039:9342   */\n  pop\n  pop\n  pop\n    /* \"#utility.yul\":7947:9342   */\n  pop\n  pop\n  jump\t// out\n    /* \"Campaign\":545:3211  contract Campaign {... */\ntag_8:\n  dataSize(sub_0)\n  dup1\n  dataOffset(sub_0)\n  0x00\n  codecopy\n  0x00\n  return\nstop\n\nsub_0: assembly {\n        /* \"Campaign\":545:3211  contract Campaign {... */\n      mstore(0x40, 0x80)\n      jumpi(tag_1, lt(calldatasize, 0x04))\n      shr(0xe0, calldataload(0x00))\n      dup1\n      0x81d12c58\n      gt\n      tag_15\n      jumpi\n      dup1\n      0x8a9cfd55\n      gt\n      tag_16\n      jumpi\n      dup1\n      0x8a9cfd55\n      eq\n      tag_11\n      jumpi\n      dup1\n      0x937e09b1\n      eq\n      tag_12\n      jumpi\n      dup1\n      0xd7bb99ba\n      eq\n      tag_13\n      jumpi\n      dup1\n      0xd7d1bbdb\n      eq\n      tag_14\n      jumpi\n      jump(tag_1)\n    tag_16:\n      dup1\n      0x81d12c58\n      eq\n      tag_8\n      jumpi\n      dup1\n      0x82fde093\n      eq\n      tag_9\n      jumpi\n      dup1\n      0x835a6172\n      eq\n      tag_10\n      jumpi\n      jump(tag_1)\n    tag_15:\n      dup1\n      0x03441006\n      eq\n      tag_2\n      jumpi\n      dup1\n      0x0a144391\n      eq\n      tag_3\n      jumpi\n      dup1\n      0x0c611f24\n      eq\n      tag_4\n      jumpi\n      dup1\n      0x3410452a\n      eq\n      tag_5\n      jumpi\n      dup1\n      0x481c6a75\n      eq\n      tag_6\n      jumpi\n      dup1\n      0x49367252\n      eq\n      tag_7\n      jumpi\n    tag_1:\n      0x00\n      dup1\n      revert\n        /* \"Campaign\":2372:2669  function finalizeRequest(uint index) public restricted {... */\n    tag_2:\n      callvalue\n      dup1\n      iszero\n      tag_17\n      jumpi\n      0x00\n      dup1\n      revert\n    tag_17:\n      pop\n      tag_18\n      0x04\n      dup1\n      calldatasize\n      sub\n      dup2\n      add\n      swap1\n      tag_19\n      swap2\n      swap1\n      tag_20\n      jump\t// in\n    tag_19:\n      tag_21\n      jump\t// in\n    tag_18:\n      stop\n        /* \"Campaign\":667:708  mapping(address => bool) public approvers */\n    tag_3:\n      callvalue\n      dup1\n      iszero\n      tag_22\n      jumpi\n      0x00\n      dup1\n      revert\n    tag_22:\n      pop\n      tag_23\n      0x04\n      dup1\n      calldatasize\n      sub\n      dup2\n      add\n      swap1\n      tag_24\n      swap2\n      swap1\n      tag_25\n      jump\t// in\n    tag_24:\n      tag_26\n      jump\t// in\n    tag_23:\n      mload(0x40)\n      tag_27\n      swap2\n      swap1\n      tag_28\n      jump\t// in\n    tag_27:\n      mload(0x40)\n      dup1\n      swap2\n      sub\n      swap1\n      return\n        /* \"Campaign\":2675:2981  function getCampaignDetails() public view returns (string memory, uint, uint, uint, uint, address) {... */\n    tag_4:\n      callvalue\n      dup1\n      iszero\n      tag_29\n      jumpi\n      0x00\n      dup1\n      revert\n    tag_29:\n      pop\n      tag_30\n      tag_31\n      jump\t// in\n    tag_30:\n      mload(0x40)\n      tag_32\n      swap7\n      swap6\n      swap5\n      swap4\n      swap3\n      swap2\n      swap1\n      tag_33\n      jump\t// in\n    tag_32:\n      mload(0x40)\n      dup1\n      swap2\n      sub\n      swap1\n      return\n        /* \"Campaign\":2987:3081  function getRequestsCount() public view returns (uint) {... */\n    tag_5:\n      callvalue\n      dup1\n      iszero\n      tag_34\n      jumpi\n      0x00\n      dup1\n      revert\n    tag_34:\n      pop\n      tag_35\n      tag_36\n      jump\t// in\n    tag_35:\n      mload(0x40)\n      tag_37\n      swap2\n      swap1\n      tag_38\n      jump\t// in\n    tag_37:\n      mload(0x40)\n      dup1\n      swap2\n      sub\n      swap1\n      return\n        /* \"Campaign\":569:591  address public manager */\n    tag_6:\n      callvalue\n      dup1\n      iszero\n      tag_39\n      jumpi\n      0x00\n      dup1\n      revert\n    tag_39:\n      pop\n      tag_40\n      tag_41\n      jump\t// in\n    tag_40:\n      mload(0x40)\n      tag_42\n      swap2\n      swap1\n      tag_43\n      jump\t// in\n    tag_42:\n      mload(0x40)\n      dup1\n      swap2\n      sub\n      swap1\n      return\n        /* \"Campaign\":3087:3208  function hasApproved(uint index) public view returns (bool) {... */\n    tag_7:\n      callvalue\n      dup1\n      iszero\n      tag_44\n      jumpi\n      0x00\n      dup1\n      revert\n    tag_44:\n      pop\n      tag_45\n      0x04\n      dup1\n      calldatasize\n      sub\n      dup2\n      add\n      swap1\n      tag_46\n      swap2\n      swap1\n      tag_20\n      jump\t// in\n    tag_46:\n      tag_47\n      jump\t// in\n    tag_45:\n      mload(0x40)\n      tag_48\n      swap2\n      swap1\n      tag_28\n      jump\t// in\n    tag_48:\n      mload(0x40)\n      dup1\n      swap2\n      sub\n      swap1\n      return\n        /* \"Campaign\":921:946  Request[] public requests */\n    tag_8:\n      callvalue\n      dup1\n      iszero\n      tag_49\n      jumpi\n      0x00\n      dup1\n      revert\n    tag_49:\n      pop\n      tag_50\n      0x04\n      dup1\n      calldatasize\n      sub\n      dup2\n      add\n      swap1\n      tag_51\n      swap2\n      swap1\n      tag_20\n      jump\t// in\n    tag_51:\n      tag_52\n      jump\t// in\n    tag_50:\n      mload(0x40)\n      tag_53\n      swap6\n      swap5\n      swap4\n      swap3\n      swap2\n      swap1\n      tag_54\n      jump\t// in\n    tag_53:\n      mload(0x40)\n      dup1\n      swap2\n      sub\n      swap1\n      return\n        /* \"Campaign\":952:978  uint public approversCount */\n    tag_9:\n      callvalue\n      dup1\n      iszero\n      tag_55\n      jumpi\n      0x00\n      dup1\n      revert\n    tag_55:\n      pop\n      tag_56\n      tag_57\n      jump\t// in\n    tag_56:\n      mload(0x40)\n      tag_58\n      swap2\n      swap1\n      tag_38\n      jump\t// in\n    tag_58:\n      mload(0x40)\n      dup1\n      swap2\n      sub\n      swap1\n      return\n        /* \"Campaign\":597:624  string public campaignTitle */\n    tag_10:\n      callvalue\n      dup1\n      iszero\n      tag_59\n      jumpi\n      0x00\n      dup1\n      revert\n    tag_59:\n      pop\n      tag_60\n      tag_61\n      jump\t// in\n    tag_60:\n      mload(0x40)\n      tag_62\n      swap2\n      swap1\n      tag_63\n      jump\t// in\n    tag_62:\n      mload(0x40)\n      dup1\n      swap2\n      sub\n      swap1\n      return\n        /* \"Campaign\":1601:2089  function createRequest(string memory description, uint value, address payable recipient) public restricted {... */\n    tag_11:\n      callvalue\n      dup1\n      iszero\n      tag_64\n      jumpi\n      0x00\n      dup1\n      revert\n    tag_64:\n      pop\n      tag_65\n      0x04\n      dup1\n      calldatasize\n      sub\n      dup2\n      add\n      swap1\n      tag_66\n      swap2\n      swap1\n      tag_67\n      jump\t// in\n    tag_66:\n      tag_68\n      jump\t// in\n    tag_65:\n      stop\n        /* \"Campaign\":630:661  uint public minimumContribution */\n    tag_12:\n      callvalue\n      dup1\n      iszero\n      tag_69\n      jumpi\n      0x00\n      dup1\n      revert\n    tag_69:\n      pop\n      tag_70\n      tag_71\n      jump\t// in\n    tag_70:\n      mload(0x40)\n      tag_72\n      swap2\n      swap1\n      tag_38\n      jump\t// in\n    tag_72:\n      mload(0x40)\n      dup1\n      swap2\n      sub\n      swap1\n      return\n        /* \"Campaign\":1246:1515  function contribute() public payable {... */\n    tag_13:\n      tag_73\n      tag_74\n      jump\t// in\n    tag_73:\n      stop\n        /* \"Campaign\":2095:2366  function approveRequest(uint index) public {... */\n    tag_14:\n      callvalue\n      dup1\n      iszero\n      tag_75\n      jumpi\n      0x00\n      dup1\n      revert\n    tag_75:\n      pop\n      tag_76\n      0x04\n      dup1\n      calldatasize\n      sub\n      dup2\n      add\n      swap1\n      tag_77\n      swap2\n      swap1\n      tag_20\n      jump\t// in\n    tag_77:\n      tag_78\n      jump\t// in\n    tag_76:\n      stop\n        /* \"Campaign\":2372:2669  function finalizeRequest(uint index) public restricted {... */\n    tag_21:\n        /* \"Campaign\":1040:1047  manager */\n      0x00\n      dup1\n      sload\n      swap1\n      0x0100\n      exp\n      swap1\n      div\n      0xffffffffffffffffffffffffffffffffffffffff\n      and\n        /* \"Campaign\":1026:1047  msg.sender == manager */\n      0xffffffffffffffffffffffffffffffffffffffff\n      and\n        /* \"Campaign\":1026:1036  msg.sender */\n      caller\n        /* \"Campaign\":1026:1047  msg.sender == manager */\n      0xffffffffffffffffffffffffffffffffffffffff\n      and\n      eq\n        /* \"Campaign\":1018:1048  require(msg.sender == manager) */\n      tag_80\n      jumpi\n      0x00\n      dup1\n      revert\n    tag_80:\n        /* \"Campaign\":2437:2460  Request storage request */\n      0x00\n        /* \"Campaign\":2463:2471  requests */\n      0x04\n        /* \"Campaign\":2472:2477  index */\n      dup3\n        /* \"Campaign\":2463:2478  requests[index] */\n      dup2\n      sload\n      dup2\n      lt\n      tag_82\n      jumpi\n      tag_83\n      tag_84\n      jump\t// in\n    tag_83:\n    tag_82:\n      swap1\n      0x00\n      mstore\n      keccak256(0x00, 0x20)\n      swap1\n      0x05\n      mul\n      add\n        /* \"Campaign\":2437:2478  Request storage request = requests[index] */\n      swap1\n      pop\n        /* \"Campaign\":2539:2540  2 */\n      0x02\n        /* \"Campaign\":2522:2536  approversCount */\n      sload(0x05)\n        /* \"Campaign\":2522:2540  approversCount / 2 */\n      tag_86\n      swap2\n      swap1\n      tag_87\n      jump\t// in\n    tag_86:\n        /* \"Campaign\":2497:2504  request */\n      dup2\n        /* \"Campaign\":2497:2518  request.approvalCount */\n      0x03\n      add\n      sload\n        /* \"Campaign\":2497:2541  request.approvalCount > (approversCount / 2) */\n      gt\n        /* \"Campaign\":2489:2542  require(request.approvalCount > (approversCount / 2)) */\n      tag_88\n      jumpi\n      0x00\n      dup1\n      revert\n    tag_88:\n        /* \"Campaign\":2561:2568  request */\n      dup1\n        /* \"Campaign\":2561:2577  request.complete */\n      0x02\n      add\n      0x14\n      swap1\n      sload\n      swap1\n      0x0100\n      exp\n      swap1\n      div\n      0xff\n      and\n        /* \"Campaign\":2560:2577  !request.complete */\n      iszero\n        /* \"Campaign\":2552:2578  require(!request.complete) */\n      tag_89\n      jumpi\n      0x00\n      dup1\n      revert\n    tag_89:\n        /* \"Campaign\":2588:2595  request */\n      dup1\n        /* \"Campaign\":2588:2605  request.recipient */\n      0x02\n      add\n      0x00\n      swap1\n      sload\n      swap1\n      0x0100\n      exp\n      swap1\n      div\n      0xffffffffffffffffffffffffffffffffffffffff\n      and\n        /* \"Campaign\":2588:2614  request.recipient.transfer */\n      0xffffffffffffffffffffffffffffffffffffffff\n      and\n        /* \"Campaign\":2588:2629  request.recipient.transfer(request.value) */\n      0x08fc\n        /* \"Campaign\":2615:2622  request */\n      dup3\n        /* \"Campaign\":2615:2628  request.value */\n      0x01\n      add\n      sload\n        /* \"Campaign\":2588:2629  request.recipient.transfer(request.value) */\n      swap1\n      dup2\n      iszero\n      mul\n      swap1\n      mload(0x40)\n      0x00\n      mload(0x40)\n      dup1\n      dup4\n      sub\n      dup2\n      dup6\n      dup9\n      dup9\n      call\n      swap4\n      pop\n      pop\n      pop\n      pop\n      iszero\n      dup1\n      iszero\n      tag_91\n      jumpi\n      returndatasize\n      0x00\n      dup1\n      returndatacopy\n      revert(0x00, returndatasize)\n    tag_91:\n      pop\n        /* \"Campaign\":2658:2662  true */\n      0x01\n        /* \"Campaign\":2639:2646  request */\n      dup2\n        /* \"Campaign\":2639:2655  request.complete */\n      0x02\n      add\n      0x14\n        /* \"Campaign\":2639:2662  request.complete = true */\n      0x0100\n      exp\n      dup2\n      sload\n      dup2\n      0xff\n      mul\n      not\n      and\n      swap1\n      dup4\n      iszero\n      iszero\n      mul\n      or\n      swap1\n      sstore\n      pop\n        /* \"Campaign\":2427:2669  {... */\n      pop\n        /* \"Campaign\":2372:2669  function finalizeRequest(uint index) public restricted {... */\n      pop\n      jump\t// out\n        /* \"Campaign\":667:708  mapping(address => bool) public approvers */\n    tag_26:\n      mstore(0x20, 0x03)\n      dup1\n      0x00\n      mstore\n      keccak256(0x00, 0x40)\n      0x00\n      swap2\n      pop\n      sload\n      swap1\n      0x0100\n      exp\n      swap1\n      div\n      0xff\n      and\n      dup2\n      jump\t// out\n        /* \"Campaign\":2675:2981  function getCampaignDetails() public view returns (string memory, uint, uint, uint, uint, address) {... */\n    tag_31:\n        /* \"Campaign\":2726:2739  string memory */\n      0x60\n        /* \"Campaign\":2741:2745  uint */\n      0x00\n        /* \"Campaign\":2747:2751  uint */\n      dup1\n        /* \"Campaign\":2753:2757  uint */\n      0x00\n        /* \"Campaign\":2759:2763  uint */\n      dup1\n        /* \"Campaign\":2765:2772  address */\n      0x00\n        /* \"Campaign\":2805:2818  campaignTitle */\n      0x01\n        /* \"Campaign\":2832:2851  minimumContribution */\n      sload(0x02)\n        /* \"Campaign\":2865:2886  address(this).balance */\n      selfbalance\n        /* \"Campaign\":2900:2908  requests */\n      0x04\n        /* \"Campaign\":2900:2915  requests.length */\n      dup1\n      sload\n      swap1\n      pop\n        /* \"Campaign\":2929:2943  approversCount */\n      sload(0x05)\n        /* \"Campaign\":2957:2964  manager */\n      0x00\n      dup1\n      sload\n      swap1\n      0x0100\n      exp\n      swap1\n      div\n      0xffffffffffffffffffffffffffffffffffffffff\n      and\n        /* \"Campaign\":2784:2974  return (... */\n      dup6\n      dup1\n      sload\n      tag_93\n      swap1\n      tag_94\n      jump\t// in\n    tag_93:\n      dup1\n      0x1f\n      add\n      0x20\n      dup1\n      swap2\n      div\n      mul\n      0x20\n      add\n      mload(0x40)\n      swap1\n      dup2\n      add\n      0x40\n      mstore\n      dup1\n      swap3\n      swap2\n      swap1\n      dup2\n      dup2\n      mstore\n      0x20\n      add\n      dup3\n      dup1\n      sload\n      tag_95\n      swap1\n      tag_94\n      jump\t// in\n    tag_95:\n      dup1\n      iszero\n      tag_96\n      jumpi\n      dup1\n      0x1f\n      lt\n      tag_97\n      jumpi\n      0x0100\n      dup1\n      dup4\n      sload\n      div\n      mul\n      dup4\n      mstore\n      swap2\n      0x20\n      add\n      swap2\n      jump(tag_96)\n    tag_97:\n      dup3\n      add\n      swap2\n      swap1\n      0x00\n      mstore\n      keccak256(0x00, 0x20)\n      swap1\n    tag_98:\n      dup2\n      sload\n      dup2\n      mstore\n      swap1\n      0x01\n      add\n      swap1\n      0x20\n      add\n      dup1\n      dup4\n      gt\n      tag_98\n      jumpi\n      dup3\n      swap1\n      sub\n      0x1f\n      and\n      dup3\n      add\n      swap2\n    tag_96:\n      pop\n      pop\n      pop\n      pop\n      pop\n      swap6\n      pop\n      swap6\n      pop\n      swap6\n      pop\n      swap6\n      pop\n      swap6\n      pop\n      swap6\n      pop\n      swap6\n      pop\n        /* \"Campaign\":2675:2981  function getCampaignDetails() public view returns (string memory, uint, uint, uint, uint, address) {... */\n      swap1\n      swap2\n      swap3\n      swap4\n      swap5\n      swap6\n      jump\t// out\n        /* \"Campaign\":2987:3081  function getRequestsCount() public view returns (uint) {... */\n    tag_36:\n        /* \"Campaign\":3036:3040  uint */\n      0x00\n        /* \"Campaign\":3059:3067  requests */\n      0x04\n        /* \"Campaign\":3059:3074  requests.length */\n      dup1\n      sload\n      swap1\n      pop\n        /* \"Campaign\":3052:3074  return requests.length */\n      swap1\n      pop\n        /* \"Campaign\":2987:3081  function getRequestsCount() public view returns (uint) {... */\n      swap1\n      jump\t// out\n        /* \"Campaign\":569:591  address public manager */\n    tag_41:\n      0x00\n      dup1\n      sload\n      swap1\n      0x0100\n      exp\n      swap1\n      div\n      0xffffffffffffffffffffffffffffffffffffffff\n      and\n      dup2\n      jump\t// out\n        /* \"Campaign\":3087:3208  function hasApproved(uint index) public view returns (bool) {... */\n    tag_47:\n        /* \"Campaign\":3141:3145  bool */\n      0x00\n        /* \"Campaign\":3164:3172  requests */\n      0x04\n        /* \"Campaign\":3173:3178  index */\n      dup3\n        /* \"Campaign\":3164:3179  requests[index] */\n      dup2\n      sload\n      dup2\n      lt\n      tag_101\n      jumpi\n      tag_102\n      tag_84\n      jump\t// in\n    tag_102:\n    tag_101:\n      swap1\n      0x00\n      mstore\n      keccak256(0x00, 0x20)\n      swap1\n      0x05\n      mul\n      add\n        /* \"Campaign\":3164:3189  requests[index].approvals */\n      0x04\n      add\n        /* \"Campaign\":3164:3201  requests[index].approvals[msg.sender] */\n      0x00\n        /* \"Campaign\":3190:3200  msg.sender */\n      caller\n        /* \"Campaign\":3164:3201  requests[index].approvals[msg.sender] */\n      0xffffffffffffffffffffffffffffffffffffffff\n      and\n      0xffffffffffffffffffffffffffffffffffffffff\n      and\n      dup2\n      mstore\n      0x20\n      add\n      swap1\n      dup2\n      mstore\n      0x20\n      add\n      0x00\n      keccak256\n      0x00\n      swap1\n      sload\n      swap1\n      0x0100\n      exp\n      swap1\n      div\n      0xff\n      and\n        /* \"Campaign\":3157:3201  return requests[index].approvals[msg.sender] */\n      swap1\n      pop\n        /* \"Campaign\":3087:3208  function hasApproved(uint index) public view returns (bool) {... */\n      swap2\n      swap1\n      pop\n      jump\t// out\n        /* \"Campaign\":921:946  Request[] public requests */\n    tag_52:\n      0x04\n      dup2\n      dup2\n      sload\n      dup2\n      lt\n      tag_104\n      jumpi\n      0x00\n      dup1\n      revert\n    tag_104:\n      swap1\n      0x00\n      mstore\n      keccak256(0x00, 0x20)\n      swap1\n      0x05\n      mul\n      add\n      0x00\n      swap2\n      pop\n      swap1\n      pop\n      dup1\n      0x00\n      add\n      dup1\n      sload\n      tag_106\n      swap1\n      tag_94\n      jump\t// in\n    tag_106:\n      dup1\n      0x1f\n      add\n      0x20\n      dup1\n      swap2\n      div\n      mul\n      0x20\n      add\n      mload(0x40)\n      swap1\n      dup2\n      add\n      0x40\n      mstore\n      dup1\n      swap3\n      swap2\n      swap1\n      dup2\n      dup2\n      mstore\n      0x20\n      add\n      dup3\n      dup1\n      sload\n      tag_107\n      swap1\n      tag_94\n      jump\t// in\n    tag_107:\n      dup1\n      iszero\n      tag_108\n      jumpi\n      dup1\n      0x1f\n      lt\n      tag_109\n      jumpi\n      0x0100\n      dup1\n      dup4\n      sload\n      div\n      mul\n      dup4\n      mstore\n      swap2\n      0x20\n      add\n      swap2\n      jump(tag_108)\n    tag_109:\n      dup3\n      add\n      swap2\n      swap1\n      0x00\n      mstore\n      keccak256(0x00, 0x20)\n      swap1\n    tag_110:\n      dup2\n      sload\n      dup2\n      mstore\n      swap1\n      0x01\n      add\n      swap1\n      0x20\n      add\n      dup1\n      dup4\n      gt\n      tag_110\n      jumpi\n      dup3\n      swap1\n      sub\n      0x1f\n      and\n      dup3\n      add\n      swap2\n    tag_108:\n      pop\n      pop\n      pop\n      pop\n      pop\n      swap1\n      dup1\n      0x01\n      add\n      sload\n      swap1\n      dup1\n      0x02\n      add\n      0x00\n      swap1\n      sload\n      swap1\n      0x0100\n      exp\n      swap1\n      div\n      0xffffffffffffffffffffffffffffffffffffffff\n      and\n      swap1\n      dup1\n      0x02\n      add\n      0x14\n      swap1\n      sload\n      swap1\n      0x0100\n      exp\n      swap1\n      div\n      0xff\n      and\n      swap1\n      dup1\n      0x03\n      add\n      sload\n      swap1\n      pop\n      dup6\n      jump\t// out\n        /* \"Campaign\":952:978  uint public approversCount */\n    tag_57:\n      sload(0x05)\n      dup2\n      jump\t// out\n        /* \"Campaign\":597:624  string public campaignTitle */\n    tag_61:\n      0x01\n      dup1\n      sload\n      tag_111\n      swap1\n      tag_94\n      jump\t// in\n    tag_111:\n      dup1\n      0x1f\n      add\n      0x20\n      dup1\n      swap2\n      div\n      mul\n      0x20\n      add\n      mload(0x40)\n      swap1\n      dup2\n      add\n      0x40\n      mstore\n      dup1\n      swap3\n      swap2\n      swap1\n      dup2\n      dup2\n      mstore\n      0x20\n      add\n      dup3\n      dup1\n      sload\n      tag_112\n      swap1\n      tag_94\n      jump\t// in\n    tag_112:\n      dup1\n      iszero\n      tag_113\n      jumpi\n      dup1\n      0x1f\n      lt\n      tag_114\n      jumpi\n      0x0100\n      dup1\n      dup4\n      sload\n      div\n      mul\n      dup4\n      mstore\n      swap2\n      0x20\n      add\n      swap2\n      jump(tag_113)\n    tag_114:\n      dup3\n      add\n      swap2\n      swap1\n      0x00\n      mstore\n      keccak256(0x00, 0x20)\n      swap1\n    tag_115:\n      dup2\n      sload\n      dup2\n      mstore\n      swap1\n      0x01\n      add\n      swap1\n      0x20\n      add\n      dup1\n      dup4\n      gt\n      tag_115\n      jumpi\n      dup3\n      swap1\n      sub\n      0x1f\n      and\n      dup3\n      add\n      swap2\n    tag_113:\n      pop\n      pop\n      pop\n      pop\n      pop\n      dup2\n      jump\t// out\n        /* \"Campaign\":1601:2089  function createRequest(string memory description, uint value, address payable recipient) public restricted {... */\n    tag_68:\n        /* \"Campaign\":1040:1047  manager */\n      0x00\n      dup1\n      sload\n      swap1\n      0x0100\n      exp\n      swap1\n      div\n      0xffffffffffffffffffffffffffffffffffffffff\n      and\n        /* \"Campaign\":1026:1047  msg.sender == manager */\n      0xffffffffffffffffffffffffffffffffffffffff\n      and\n        /* \"Campaign\":1026:1036  msg.sender */\n      caller\n        /* \"Campaign\":1026:1047  msg.sender == manager */\n      0xffffffffffffffffffffffffffffffffffffffff\n      and\n      eq\n        /* \"Campaign\":1018:1048  require(msg.sender == manager) */\n      tag_117\n      jumpi\n      0x00\n      dup1\n      revert\n    tag_117:\n        /* \"Campaign\":1797:1808  uint _index */\n      0x00\n        /* \"Campaign\":1811:1819  requests */\n      0x04\n        /* \"Campaign\":1811:1826  requests.length */\n      dup1\n      sload\n      swap1\n      pop\n        /* \"Campaign\":1797:1826  uint _index = requests.length */\n      swap1\n      pop\n        /* \"Campaign\":1838:1857  Request[] storage r */\n      0x00\n        /* \"Campaign\":1860:1868  requests */\n      0x04\n        /* \"Campaign\":1838:1868  Request[] storage r = requests */\n      swap1\n      pop\n        /* \"Campaign\":1880:1881  r */\n      dup1\n        /* \"Campaign\":1880:1888  r.push() */\n      0x01\n      dup2\n      0x01\n      dup2\n      sload\n      add\n      dup1\n      dup3\n      sstore\n      dup1\n      swap2\n      pop\n      pop\n      sub\n      swap1\n      0x00\n      mstore\n      keccak256(0x00, 0x20)\n      swap1\n      pop\n      pop\n        /* \"Campaign\":1924:1935  description */\n      dup5\n        /* \"Campaign\":1900:1901  r */\n      dup2\n        /* \"Campaign\":1902:1908  _index */\n      dup4\n        /* \"Campaign\":1900:1909  r[_index] */\n      dup2\n      sload\n      dup2\n      lt\n      tag_120\n      jumpi\n      tag_121\n      tag_84\n      jump\t// in\n    tag_121:\n    tag_120:\n      swap1\n      0x00\n      mstore\n      keccak256(0x00, 0x20)\n      swap1\n      0x05\n      mul\n      add\n        /* \"Campaign\":1900:1921  r[_index].description */\n      0x00\n      add\n        /* \"Campaign\":1900:1935  r[_index].description = description */\n      swap1\n      dup2\n      tag_123\n      swap2\n      swap1\n      tag_124\n      jump\t// in\n    tag_123:\n      pop\n        /* \"Campaign\":1963:1968  value */\n      dup4\n        /* \"Campaign\":1945:1946  r */\n      dup2\n        /* \"Campaign\":1947:1953  _index */\n      dup4\n        /* \"Campaign\":1945:1954  r[_index] */\n      dup2\n      sload\n      dup2\n      lt\n      tag_125\n      jumpi\n      tag_126\n      tag_84\n      jump\t// in\n    tag_126:\n    tag_125:\n      swap1\n      0x00\n      mstore\n      keccak256(0x00, 0x20)\n      swap1\n      0x05\n      mul\n      add\n        /* \"Campaign\":1945:1960  r[_index].value */\n      0x01\n      add\n        /* \"Campaign\":1945:1968  r[_index].value = value */\n      dup2\n      swap1\n      sstore\n      pop\n        /* \"Campaign\":2000:2009  recipient */\n      dup3\n        /* \"Campaign\":1978:1979  r */\n      dup2\n        /* \"Campaign\":1980:1986  _index */\n      dup4\n        /* \"Campaign\":1978:1987  r[_index] */\n      dup2\n      sload\n      dup2\n      lt\n      tag_128\n      jumpi\n      tag_129\n      tag_84\n      jump\t// in\n    tag_129:\n    tag_128:\n      swap1\n      0x00\n      mstore\n      keccak256(0x00, 0x20)\n      swap1\n      0x05\n      mul\n      add\n        /* \"Campaign\":1978:1997  r[_index].recipient */\n      0x02\n      add\n      0x00\n        /* \"Campaign\":1978:2009  r[_index].recipient = recipient */\n      0x0100\n      exp\n      dup2\n      sload\n      dup2\n      0xffffffffffffffffffffffffffffffffffffffff\n      mul\n      not\n      and\n      swap1\n      dup4\n      0xffffffffffffffffffffffffffffffffffffffff\n      and\n      mul\n      or\n      swap1\n      sstore\n      pop\n        /* \"Campaign\":2040:2045  false */\n      0x00\n        /* \"Campaign\":2019:2020  r */\n      dup2\n        /* \"Campaign\":2021:2027  _index */\n      dup4\n        /* \"Campaign\":2019:2028  r[_index] */\n      dup2\n      sload\n      dup2\n      lt\n      tag_131\n      jumpi\n      tag_132\n      tag_84\n      jump\t// in\n    tag_132:\n    tag_131:\n      swap1\n      0x00\n      mstore\n      keccak256(0x00, 0x20)\n      swap1\n      0x05\n      mul\n      add\n        /* \"Campaign\":2019:2037  r[_index].complete */\n      0x02\n      add\n      0x14\n        /* \"Campaign\":2019:2045  r[_index].complete = false */\n      0x0100\n      exp\n      dup2\n      sload\n      dup2\n      0xff\n      mul\n      not\n      and\n      swap1\n      dup4\n      iszero\n      iszero\n      mul\n      or\n      swap1\n      sstore\n      pop\n        /* \"Campaign\":2081:2082  0 */\n      0x00\n        /* \"Campaign\":2055:2056  r */\n      dup2\n        /* \"Campaign\":2057:2063  _index */\n      dup4\n        /* \"Campaign\":2055:2064  r[_index] */\n      dup2\n      sload\n      dup2\n      lt\n      tag_134\n      jumpi\n      tag_135\n      tag_84\n      jump\t// in\n    tag_135:\n    tag_134:\n      swap1\n      0x00\n      mstore\n      keccak256(0x00, 0x20)\n      swap1\n      0x05\n      mul\n      add\n        /* \"Campaign\":2055:2078  r[_index].approvalCount */\n      0x03\n      add\n        /* \"Campaign\":2055:2082  r[_index].approvalCount = 0 */\n      dup2\n      swap1\n      sstore\n      pop\n        /* \"Campaign\":1708:2089  {... */\n      pop\n      pop\n        /* \"Campaign\":1601:2089  function createRequest(string memory description, uint value, address payable recipient) public restricted {... */\n      pop\n      pop\n      pop\n      jump\t// out\n        /* \"Campaign\":630:661  uint public minimumContribution */\n    tag_71:\n      sload(0x02)\n      dup2\n      jump\t// out\n        /* \"Campaign\":1246:1515  function contribute() public payable {... */\n    tag_74:\n        /* \"Campaign\":1424:1443  minimumContribution */\n      sload(0x02)\n        /* \"Campaign\":1412:1421  msg.value */\n      callvalue\n        /* \"Campaign\":1412:1443  msg.value > minimumContribution */\n      gt\n        /* \"Campaign\":1404:1444  require(msg.value > minimumContribution) */\n      tag_138\n      jumpi\n      0x00\n      dup1\n      revert\n    tag_138:\n        /* \"Campaign\":1478:1482  true */\n      0x01\n        /* \"Campaign\":1454:1463  approvers */\n      0x03\n        /* \"Campaign\":1454:1475  approvers[msg.sender] */\n      0x00\n        /* \"Campaign\":1464:1474  msg.sender */\n      caller\n        /* \"Campaign\":1454:1475  approvers[msg.sender] */\n      0xffffffffffffffffffffffffffffffffffffffff\n      and\n      0xffffffffffffffffffffffffffffffffffffffff\n      and\n      dup2\n      mstore\n      0x20\n      add\n      swap1\n      dup2\n      mstore\n      0x20\n      add\n      0x00\n      keccak256\n      0x00\n        /* \"Campaign\":1454:1482  approvers[msg.sender] = true */\n      0x0100\n      exp\n      dup2\n      sload\n      dup2\n      0xff\n      mul\n      not\n      and\n      swap1\n      dup4\n      iszero\n      iszero\n      mul\n      or\n      swap1\n      sstore\n      pop\n        /* \"Campaign\":1492:1506  approversCount */\n      0x05\n      0x00\n        /* \"Campaign\":1492:1508  approversCount++ */\n      dup2\n      sload\n      dup1\n      swap3\n      swap2\n      swap1\n      tag_139\n      swap1\n      tag_140\n      jump\t// in\n    tag_139:\n      swap2\n      swap1\n      pop\n      sstore\n      pop\n        /* \"Campaign\":1246:1515  function contribute() public payable {... */\n      jump\t// out\n        /* \"Campaign\":2095:2366  function approveRequest(uint index) public {... */\n    tag_78:\n        /* \"Campaign\":2148:2171  Request storage request */\n      0x00\n        /* \"Campaign\":2174:2182  requests */\n      0x04\n        /* \"Campaign\":2183:2188  index */\n      dup3\n        /* \"Campaign\":2174:2189  requests[index] */\n      dup2\n      sload\n      dup2\n      lt\n      tag_142\n      jumpi\n      tag_143\n      tag_84\n      jump\t// in\n    tag_143:\n    tag_142:\n      swap1\n      0x00\n      mstore\n      keccak256(0x00, 0x20)\n      swap1\n      0x05\n      mul\n      add\n        /* \"Campaign\":2148:2189  Request storage request = requests[index] */\n      swap1\n      pop\n        /* \"Campaign\":2208:2217  approvers */\n      0x03\n        /* \"Campaign\":2208:2229  approvers[msg.sender] */\n      0x00\n        /* \"Campaign\":2218:2228  msg.sender */\n      caller\n        /* \"Campaign\":2208:2229  approvers[msg.sender] */\n      0xffffffffffffffffffffffffffffffffffffffff\n      and\n      0xffffffffffffffffffffffffffffffffffffffff\n      and\n      dup2\n      mstore\n      0x20\n      add\n      swap1\n      dup2\n      mstore\n      0x20\n      add\n      0x00\n      keccak256\n      0x00\n      swap1\n      sload\n      swap1\n      0x0100\n      exp\n      swap1\n      div\n      0xff\n      and\n        /* \"Campaign\":2200:2230  require(approvers[msg.sender]) */\n      tag_145\n      jumpi\n      0x00\n      dup1\n      revert\n    tag_145:\n        /* \"Campaign\":2249:2256  request */\n      dup1\n        /* \"Campaign\":2249:2266  request.approvals */\n      0x04\n      add\n        /* \"Campaign\":2249:2278  request.approvals[msg.sender] */\n      0x00\n        /* \"Campaign\":2267:2277  msg.sender */\n      caller\n        /* \"Campaign\":2249:2278  request.approvals[msg.sender] */\n      0xffffffffffffffffffffffffffffffffffffffff\n      and\n      0xffffffffffffffffffffffffffffffffffffffff\n      and\n      dup2\n      mstore\n      0x20\n      add\n      swap1\n      dup2\n      mstore\n      0x20\n      add\n      0x00\n      keccak256\n      0x00\n      swap1\n      sload\n      swap1\n      0x0100\n      exp\n      swap1\n      div\n      0xff\n      and\n        /* \"Campaign\":2248:2278  !request.approvals[msg.sender] */\n      iszero\n        /* \"Campaign\":2240:2279  require(!request.approvals[msg.sender]) */\n      tag_146\n      jumpi\n      0x00\n      dup1\n      revert\n    tag_146:\n        /* \"Campaign\":2322:2326  true */\n      0x01\n        /* \"Campaign\":2290:2297  request */\n      dup2\n        /* \"Campaign\":2290:2307  request.approvals */\n      0x04\n      add\n        /* \"Campaign\":2290:2319  request.approvals[msg.sender] */\n      0x00\n        /* \"Campaign\":2308:2318  msg.sender */\n      caller\n        /* \"Campaign\":2290:2319  request.approvals[msg.sender] */\n      0xffffffffffffffffffffffffffffffffffffffff\n      and\n      0xffffffffffffffffffffffffffffffffffffffff\n      and\n      dup2\n      mstore\n      0x20\n      add\n      swap1\n      dup2\n      mstore\n      0x20\n      add\n      0x00\n      keccak256\n      0x00\n        /* \"Campaign\":2290:2326  request.approvals[msg.sender] = true */\n      0x0100\n      exp\n      dup2\n      sload\n      dup2\n      0xff\n      mul\n      not\n      and\n      swap1\n      dup4\n      iszero\n      iszero\n      mul\n      or\n      swap1\n      sstore\n      pop\n        /* \"Campaign\":2336:2343  request */\n      dup1\n        /* \"Campaign\":2336:2357  request.approvalCount */\n      0x03\n      add\n      0x00\n        /* \"Campaign\":2336:2359  request.approvalCount++ */\n      dup2\n      sload\n      dup1\n      swap3\n      swap2\n      swap1\n      tag_147\n      swap1\n      tag_140\n      jump\t// in\n    tag_147:\n      swap2\n      swap1\n      pop\n      sstore\n      pop\n        /* \"Campaign\":2138:2366  {... */\n      pop\n        /* \"Campaign\":2095:2366  function approveRequest(uint index) public {... */\n      pop\n      jump\t// out\n        /* \"#utility.yul\":7:82   */\n    tag_148:\n        /* \"#utility.yul\":40:46   */\n      0x00\n        /* \"#utility.yul\":73:75   */\n      0x40\n        /* \"#utility.yul\":67:76   */\n      mload\n        /* \"#utility.yul\":57:76   */\n      swap1\n      pop\n        /* \"#utility.yul\":7:82   */\n      swap1\n      jump\t// out\n        /* \"#utility.yul\":88:205   */\n    tag_149:\n        /* \"#utility.yul\":197:198   */\n      0x00\n        /* \"#utility.yul\":194:195   */\n      dup1\n        /* \"#utility.yul\":187:199   */\n      revert\n        /* \"#utility.yul\":211:328   */\n    tag_150:\n        /* \"#utility.yul\":320:321   */\n      0x00\n        /* \"#utility.yul\":317:318   */\n      dup1\n        /* \"#utility.yul\":310:322   */\n      revert\n        /* \"#utility.yul\":334:411   */\n    tag_151:\n        /* \"#utility.yul\":371:378   */\n      0x00\n        /* \"#utility.yul\":400:405   */\n      dup2\n        /* \"#utility.yul\":389:405   */\n      swap1\n      pop\n        /* \"#utility.yul\":334:411   */\n      swap2\n      swap1\n      pop\n      jump\t// out\n        /* \"#utility.yul\":417:539   */\n    tag_152:\n        /* \"#utility.yul\":490:514   */\n      tag_204\n        /* \"#utility.yul\":508:513   */\n      dup2\n        /* \"#utility.yul\":490:514   */\n      tag_151\n      jump\t// in\n    tag_204:\n        /* \"#utility.yul\":483:488   */\n      dup2\n        /* \"#utility.yul\":480:515   */\n      eq\n        /* \"#utility.yul\":470:533   */\n      tag_205\n      jumpi\n        /* \"#utility.yul\":529:530   */\n      0x00\n        /* \"#utility.yul\":526:527   */\n      dup1\n        /* \"#utility.yul\":519:531   */\n      revert\n        /* \"#utility.yul\":470:533   */\n    tag_205:\n        /* \"#utility.yul\":417:539   */\n      pop\n      jump\t// out\n        /* \"#utility.yul\":545:684   */\n    tag_153:\n        /* \"#utility.yul\":591:596   */\n      0x00\n        /* \"#utility.yul\":629:635   */\n      dup2\n        /* \"#utility.yul\":616:636   */\n      calldataload\n        /* \"#utility.yul\":607:636   */\n      swap1\n      pop\n        /* \"#utility.yul\":645:678   */\n      tag_207\n        /* \"#utility.yul\":672:677   */\n      dup2\n        /* \"#utility.yul\":645:678   */\n      tag_152\n      jump\t// in\n    tag_207:\n        /* \"#utility.yul\":545:684   */\n      swap3\n      swap2\n      pop\n      pop\n      jump\t// out\n        /* \"#utility.yul\":690:1019   */\n    tag_20:\n        /* \"#utility.yul\":749:755   */\n      0x00\n        /* \"#utility.yul\":798:800   */\n      0x20\n        /* \"#utility.yul\":786:795   */\n      dup3\n        /* \"#utility.yul\":777:784   */\n      dup5\n        /* \"#utility.yul\":773:796   */\n      sub\n        /* \"#utility.yul\":769:801   */\n      slt\n        /* \"#utility.yul\":766:885   */\n      iszero\n      tag_209\n      jumpi\n        /* \"#utility.yul\":804:883   */\n      tag_210\n      tag_149\n      jump\t// in\n    tag_210:\n        /* \"#utility.yul\":766:885   */\n    tag_209:\n        /* \"#utility.yul\":924:925   */\n      0x00\n        /* \"#utility.yul\":949:1002   */\n      tag_211\n        /* \"#utility.yul\":994:1001   */\n      dup5\n        /* \"#utility.yul\":985:991   */\n      dup3\n        /* \"#utility.yul\":974:983   */\n      dup6\n        /* \"#utility.yul\":970:992   */\n      add\n        /* \"#utility.yul\":949:1002   */\n      tag_153\n      jump\t// in\n    tag_211:\n        /* \"#utility.yul\":939:1002   */\n      swap2\n      pop\n        /* \"#utility.yul\":895:1012   */\n      pop\n        /* \"#utility.yul\":690:1019   */\n      swap3\n      swap2\n      pop\n      pop\n      jump\t// out\n        /* \"#utility.yul\":1025:1151   */\n    tag_154:\n        /* \"#utility.yul\":1062:1069   */\n      0x00\n        /* \"#utility.yul\":1102:1144   */\n      0xffffffffffffffffffffffffffffffffffffffff\n        /* \"#utility.yul\":1095:1100   */\n      dup3\n        /* \"#utility.yul\":1091:1145   */\n      and\n        /* \"#utility.yul\":1080:1145   */\n      swap1\n      pop\n        /* \"#utility.yul\":1025:1151   */\n      swap2\n      swap1\n      pop\n      jump\t// out\n        /* \"#utility.yul\":1157:1253   */\n    tag_155:\n        /* \"#utility.yul\":1194:1201   */\n      0x00\n        /* \"#utility.yul\":1223:1247   */\n      tag_214\n        /* \"#utility.yul\":1241:1246   */\n      dup3\n        /* \"#utility.yul\":1223:1247   */\n      tag_154\n      jump\t// in\n    tag_214:\n        /* \"#utility.yul\":1212:1247   */\n      swap1\n      pop\n        /* \"#utility.yul\":1157:1253   */\n      swap2\n      swap1\n      pop\n      jump\t// out\n        /* \"#utility.yul\":1259:1381   */\n    tag_156:\n        /* \"#utility.yul\":1332:1356   */\n      tag_216\n        /* \"#utility.yul\":1350:1355   */\n      dup2\n        /* \"#utility.yul\":1332:1356   */\n      tag_155\n      jump\t// in\n    tag_216:\n        /* \"#utility.yul\":1325:1330   */\n      dup2\n        /* \"#utility.yul\":1322:1357   */\n      eq\n        /* \"#utility.yul\":1312:1375   */\n      tag_217\n      jumpi\n        /* \"#utility.yul\":1371:1372   */\n      0x00\n        /* \"#utility.yul\":1368:1369   */\n      dup1\n        /* \"#utility.yul\":1361:1373   */\n      revert\n        /* \"#utility.yul\":1312:1375   */\n    tag_217:\n        /* \"#utility.yul\":1259:1381   */\n      pop\n      jump\t// out\n        /* \"#utility.yul\":1387:1526   */\n    tag_157:\n        /* \"#utility.yul\":1433:1438   */\n      0x00\n        /* \"#utility.yul\":1471:1477   */\n      dup2\n        /* \"#utility.yul\":1458:1478   */\n      calldataload\n        /* \"#utility.yul\":1449:1478   */\n      swap1\n      pop\n        /* \"#utility.yul\":1487:1520   */\n      tag_219\n        /* \"#utility.yul\":1514:1519   */\n      dup2\n        /* \"#utility.yul\":1487:1520   */\n      tag_156\n      jump\t// in\n    tag_219:\n        /* \"#utility.yul\":1387:1526   */\n      swap3\n      swap2\n      pop\n      pop\n      jump\t// out\n        /* \"#utility.yul\":1532:1861   */\n    tag_25:\n        /* \"#utility.yul\":1591:1597   */\n      0x00\n        /* \"#utility.yul\":1640:1642   */\n      0x20\n        /* \"#utility.yul\":1628:1637   */\n      dup3\n        /* \"#utility.yul\":1619:1626   */\n      dup5\n        /* \"#utility.yul\":1615:1638   */\n      sub\n        /* \"#utility.yul\":1611:1643   */\n      slt\n        /* \"#utility.yul\":1608:1727   */\n      iszero\n      tag_221\n      jumpi\n        /* \"#utility.yul\":1646:1725   */\n      tag_222\n      tag_149\n      jump\t// in\n    tag_222:\n        /* \"#utility.yul\":1608:1727   */\n    tag_221:\n        /* \"#utility.yul\":1766:1767   */\n      0x00\n        /* \"#utility.yul\":1791:1844   */\n      tag_223\n        /* \"#utility.yul\":1836:1843   */\n      dup5\n        /* \"#utility.yul\":1827:1833   */\n      dup3\n        /* \"#utility.yul\":1816:1825   */\n      dup6\n        /* \"#utility.yul\":1812:1834   */\n      add\n        /* \"#utility.yul\":1791:1844   */\n      tag_157\n      jump\t// in\n    tag_223:\n        /* \"#utility.yul\":1781:1844   */\n      swap2\n      pop\n        /* \"#utility.yul\":1737:1854   */\n      pop\n        /* \"#utility.yul\":1532:1861   */\n      swap3\n      swap2\n      pop\n      pop\n      jump\t// out\n        /* \"#utility.yul\":1867:1957   */\n    tag_158:\n        /* \"#utility.yul\":1901:1908   */\n      0x00\n        /* \"#utility.yul\":1944:1949   */\n      dup2\n        /* \"#utility.yul\":1937:1950   */\n      iszero\n        /* \"#utility.yul\":1930:1951   */\n      iszero\n        /* \"#utility.yul\":1919:1951   */\n      swap1\n      pop\n        /* \"#utility.yul\":1867:1957   */\n      swap2\n      swap1\n      pop\n      jump\t// out\n        /* \"#utility.yul\":1963:2072   */\n    tag_159:\n        /* \"#utility.yul\":2044:2065   */\n      tag_226\n        /* \"#utility.yul\":2059:2064   */\n      dup2\n        /* \"#utility.yul\":2044:2065   */\n      tag_158\n      jump\t// in\n    tag_226:\n        /* \"#utility.yul\":2039:2042   */\n      dup3\n        /* \"#utility.yul\":2032:2066   */\n      mstore\n        /* \"#utility.yul\":1963:2072   */\n      pop\n      pop\n      jump\t// out\n        /* \"#utility.yul\":2078:2288   */\n    tag_28:\n        /* \"#utility.yul\":2165:2169   */\n      0x00\n        /* \"#utility.yul\":2203:2205   */\n      0x20\n        /* \"#utility.yul\":2192:2201   */\n      dup3\n        /* \"#utility.yul\":2188:2206   */\n      add\n        /* \"#utility.yul\":2180:2206   */\n      swap1\n      pop\n        /* \"#utility.yul\":2216:2281   */\n      tag_228\n        /* \"#utility.yul\":2278:2279   */\n      0x00\n        /* \"#utility.yul\":2267:2276   */\n      dup4\n        /* \"#utility.yul\":2263:2280   */\n      add\n        /* \"#utility.yul\":2254:2260   */\n      dup5\n        /* \"#utility.yul\":2216:2281   */\n      tag_159\n      jump\t// in\n    tag_228:\n        /* \"#utility.yul\":2078:2288   */\n      swap3\n      swap2\n      pop\n      pop\n      jump\t// out\n        /* \"#utility.yul\":2294:2393   */\n    tag_160:\n        /* \"#utility.yul\":2346:2352   */\n      0x00\n        /* \"#utility.yul\":2380:2385   */\n      dup2\n        /* \"#utility.yul\":2374:2386   */\n      mload\n        /* \"#utility.yul\":2364:2386   */\n      swap1\n      pop\n        /* \"#utility.yul\":2294:2393   */\n      swap2\n      swap1\n      pop\n      jump\t// out\n        /* \"#utility.yul\":2399:2568   */\n    tag_161:\n        /* \"#utility.yul\":2483:2494   */\n      0x00\n        /* \"#utility.yul\":2517:2523   */\n      dup3\n        /* \"#utility.yul\":2512:2515   */\n      dup3\n        /* \"#utility.yul\":2505:2524   */\n      mstore\n        /* \"#utility.yul\":2557:2561   */\n      0x20\n        /* \"#utility.yul\":2552:2555   */\n      dup3\n        /* \"#utility.yul\":2548:2562   */\n      add\n        /* \"#utility.yul\":2533:2562   */\n      swap1\n      pop\n        /* \"#utility.yul\":2399:2568   */\n      swap3\n      swap2\n      pop\n      pop\n      jump\t// out\n        /* \"#utility.yul\":2574:2820   */\n    tag_162:\n        /* \"#utility.yul\":2655:2656   */\n      0x00\n        /* \"#utility.yul\":2665:2778   */\n    tag_232:\n        /* \"#utility.yul\":2679:2685   */\n      dup4\n        /* \"#utility.yul\":2676:2677   */\n      dup2\n        /* \"#utility.yul\":2673:2686   */\n      lt\n        /* \"#utility.yul\":2665:2778   */\n      iszero\n      tag_234\n      jumpi\n        /* \"#utility.yul\":2764:2765   */\n      dup1\n        /* \"#utility.yul\":2759:2762   */\n      dup3\n        /* \"#utility.yul\":2755:2766   */\n      add\n        /* \"#utility.yul\":2749:2767   */\n      mload\n        /* \"#utility.yul\":2745:2746   */\n      dup2\n        /* \"#utility.yul\":2740:2743   */\n      dup5\n        /* \"#utility.yul\":2736:2747   */\n      add\n        /* \"#utility.yul\":2729:2768   */\n      mstore\n        /* \"#utility.yul\":2701:2703   */\n      0x20\n        /* \"#utility.yul\":2698:2699   */\n      dup2\n        /* \"#utility.yul\":2694:2704   */\n      add\n        /* \"#utility.yul\":2689:2704   */\n      swap1\n      pop\n        /* \"#utility.yul\":2665:2778   */\n      jump(tag_232)\n    tag_234:\n        /* \"#utility.yul\":2812:2813   */\n      0x00\n        /* \"#utility.yul\":2803:2809   */\n      dup5\n        /* \"#utility.yul\":2798:2801   */\n      dup5\n        /* \"#utility.yul\":2794:2810   */\n      add\n        /* \"#utility.yul\":2787:2814   */\n      mstore\n        /* \"#utility.yul\":2636:2820   */\n      pop\n        /* \"#utility.yul\":2574:2820   */\n      pop\n      pop\n      pop\n      jump\t// out\n        /* \"#utility.yul\":2826:2928   */\n    tag_163:\n        /* \"#utility.yul\":2867:2873   */\n      0x00\n        /* \"#utility.yul\":2918:2920   */\n      0x1f\n        /* \"#utility.yul\":2914:2921   */\n      not\n        /* \"#utility.yul\":2909:2911   */\n      0x1f\n        /* \"#utility.yul\":2902:2907   */\n      dup4\n        /* \"#utility.yul\":2898:2912   */\n      add\n        /* \"#utility.yul\":2894:2922   */\n      and\n        /* \"#utility.yul\":2884:2922   */\n      swap1\n      pop\n        /* \"#utility.yul\":2826:2928   */\n      swap2\n      swap1\n      pop\n      jump\t// out\n        /* \"#utility.yul\":2934:3311   */\n    tag_164:\n        /* \"#utility.yul\":3022:3025   */\n      0x00\n        /* \"#utility.yul\":3050:3089   */\n      tag_237\n        /* \"#utility.yul\":3083:3088   */\n      dup3\n        /* \"#utility.yul\":3050:3089   */\n      tag_160\n      jump\t// in\n    tag_237:\n        /* \"#utility.yul\":3105:3176   */\n      tag_238\n        /* \"#utility.yul\":3169:3175   */\n      dup2\n        /* \"#utility.yul\":3164:3167   */\n      dup6\n        /* \"#utility.yul\":3105:3176   */\n      tag_161\n      jump\t// in\n    tag_238:\n        /* \"#utility.yul\":3098:3176   */\n      swap4\n      pop\n        /* \"#utility.yul\":3185:3250   */\n      tag_239\n        /* \"#utility.yul\":3243:3249   */\n      dup2\n        /* \"#utility.yul\":3238:3241   */\n      dup6\n        /* \"#utility.yul\":3231:3235   */\n      0x20\n        /* \"#utility.yul\":3224:3229   */\n      dup7\n        /* \"#utility.yul\":3220:3236   */\n      add\n        /* \"#utility.yul\":3185:3250   */\n      tag_162\n      jump\t// in\n    tag_239:\n        /* \"#utility.yul\":3275:3304   */\n      tag_240\n        /* \"#utility.yul\":3297:3303   */\n      dup2\n        /* \"#utility.yul\":3275:3304   */\n      tag_163\n      jump\t// in\n    tag_240:\n        /* \"#utility.yul\":3270:3273   */\n      dup5\n        /* \"#utility.yul\":3266:3305   */\n      add\n        /* \"#utility.yul\":3259:3305   */\n      swap2\n      pop\n        /* \"#utility.yul\":3026:3311   */\n      pop\n        /* \"#utility.yul\":2934:3311   */\n      swap3\n      swap2\n      pop\n      pop\n      jump\t// out\n        /* \"#utility.yul\":3317:3435   */\n    tag_165:\n        /* \"#utility.yul\":3404:3428   */\n      tag_242\n        /* \"#utility.yul\":3422:3427   */\n      dup2\n        /* \"#utility.yul\":3404:3428   */\n      tag_151\n      jump\t// in\n    tag_242:\n        /* \"#utility.yul\":3399:3402   */\n      dup3\n        /* \"#utility.yul\":3392:3429   */\n      mstore\n        /* \"#utility.yul\":3317:3435   */\n      pop\n      pop\n      jump\t// out\n        /* \"#utility.yul\":3441:3559   */\n    tag_166:\n        /* \"#utility.yul\":3528:3552   */\n      tag_244\n        /* \"#utility.yul\":3546:3551   */\n      dup2\n        /* \"#utility.yul\":3528:3552   */\n      tag_155\n      jump\t// in\n    tag_244:\n        /* \"#utility.yul\":3523:3526   */\n      dup3\n        /* \"#utility.yul\":3516:3553   */\n      mstore\n        /* \"#utility.yul\":3441:3559   */\n      pop\n      pop\n      jump\t// out\n        /* \"#utility.yul\":3565:4431   */\n    tag_33:\n        /* \"#utility.yul\":3818:3822   */\n      0x00\n        /* \"#utility.yul\":3856:3859   */\n      0xc0\n        /* \"#utility.yul\":3845:3854   */\n      dup3\n        /* \"#utility.yul\":3841:3860   */\n      add\n        /* \"#utility.yul\":3833:3860   */\n      swap1\n      pop\n        /* \"#utility.yul\":3906:3915   */\n      dup2\n        /* \"#utility.yul\":3900:3904   */\n      dup2\n        /* \"#utility.yul\":3896:3916   */\n      sub\n        /* \"#utility.yul\":3892:3893   */\n      0x00\n        /* \"#utility.yul\":3881:3890   */\n      dup4\n        /* \"#utility.yul\":3877:3894   */\n      add\n        /* \"#utility.yul\":3870:3917   */\n      mstore\n        /* \"#utility.yul\":3934:4012   */\n      tag_246\n        /* \"#utility.yul\":4007:4011   */\n      dup2\n        /* \"#utility.yul\":3998:4004   */\n      dup10\n        /* \"#utility.yul\":3934:4012   */\n      tag_164\n      jump\t// in\n    tag_246:\n        /* \"#utility.yul\":3926:4012   */\n      swap1\n      pop\n        /* \"#utility.yul\":4022:4094   */\n      tag_247\n        /* \"#utility.yul\":4090:4092   */\n      0x20\n        /* \"#utility.yul\":4079:4088   */\n      dup4\n        /* \"#utility.yul\":4075:4093   */\n      add\n        /* \"#utility.yul\":4066:4072   */\n      dup9\n        /* \"#utility.yul\":4022:4094   */\n      tag_165\n      jump\t// in\n    tag_247:\n        /* \"#utility.yul\":4104:4176   */\n      tag_248\n        /* \"#utility.yul\":4172:4174   */\n      0x40\n        /* \"#utility.yul\":4161:4170   */\n      dup4\n        /* \"#utility.yul\":4157:4175   */\n      add\n        /* \"#utility.yul\":4148:4154   */\n      dup8\n        /* \"#utility.yul\":4104:4176   */\n      tag_165\n      jump\t// in\n    tag_248:\n        /* \"#utility.yul\":4186:4258   */\n      tag_249\n        /* \"#utility.yul\":4254:4256   */\n      0x60\n        /* \"#utility.yul\":4243:4252   */\n      dup4\n        /* \"#utility.yul\":4239:4257   */\n      add\n        /* \"#utility.yul\":4230:4236   */\n      dup7\n        /* \"#utility.yul\":4186:4258   */\n      tag_165\n      jump\t// in\n    tag_249:\n        /* \"#utility.yul\":4268:4341   */\n      tag_250\n        /* \"#utility.yul\":4336:4339   */\n      0x80\n        /* \"#utility.yul\":4325:4334   */\n      dup4\n        /* \"#utility.yul\":4321:4340   */\n      add\n        /* \"#utility.yul\":4312:4318   */\n      dup6\n        /* \"#utility.yul\":4268:4341   */\n      tag_165\n      jump\t// in\n    tag_250:\n        /* \"#utility.yul\":4351:4424   */\n      tag_251\n        /* \"#utility.yul\":4419:4422   */\n      0xa0\n        /* \"#utility.yul\":4408:4417   */\n      dup4\n        /* \"#utility.yul\":4404:4423   */\n      add\n        /* \"#utility.yul\":4395:4401   */\n      dup5\n        /* \"#utility.yul\":4351:4424   */\n      tag_166\n      jump\t// in\n    tag_251:\n        /* \"#utility.yul\":3565:4431   */\n      swap8\n      swap7\n      pop\n      pop\n      pop\n      pop\n      pop\n      pop\n      pop\n      jump\t// out\n        /* \"#utility.yul\":4437:4659   */\n    tag_38:\n        /* \"#utility.yul\":4530:4534   */\n      0x00\n        /* \"#utility.yul\":4568:4570   */\n      0x20\n        /* \"#utility.yul\":4557:4566   */\n      dup3\n        /* \"#utility.yul\":4553:4571   */\n      add\n        /* \"#utility.yul\":4545:4571   */\n      swap1\n      pop\n        /* \"#utility.yul\":4581:4652   */\n      tag_253\n        /* \"#utility.yul\":4649:4650   */\n      0x00\n        /* \"#utility.yul\":4638:4647   */\n      dup4\n        /* \"#utility.yul\":4634:4651   */\n      add\n        /* \"#utility.yul\":4625:4631   */\n      dup5\n        /* \"#utility.yul\":4581:4652   */\n      tag_165\n      jump\t// in\n    tag_253:\n        /* \"#utility.yul\":4437:4659   */\n      swap3\n      swap2\n      pop\n      pop\n      jump\t// out\n        /* \"#utility.yul\":4665:4887   */\n    tag_43:\n        /* \"#utility.yul\":4758:4762   */\n      0x00\n        /* \"#utility.yul\":4796:4798   */\n      0x20\n        /* \"#utility.yul\":4785:4794   */\n      dup3\n        /* \"#utility.yul\":4781:4799   */\n      add\n        /* \"#utility.yul\":4773:4799   */\n      swap1\n      pop\n        /* \"#utility.yul\":4809:4880   */\n      tag_255\n        /* \"#utility.yul\":4877:4878   */\n      0x00\n        /* \"#utility.yul\":4866:4875   */\n      dup4\n        /* \"#utility.yul\":4862:4879   */\n      add\n        /* \"#utility.yul\":4853:4859   */\n      dup5\n        /* \"#utility.yul\":4809:4880   */\n      tag_166\n      jump\t// in\n    tag_255:\n        /* \"#utility.yul\":4665:4887   */\n      swap3\n      swap2\n      pop\n      pop\n      jump\t// out\n        /* \"#utility.yul\":4893:4997   */\n    tag_167:\n        /* \"#utility.yul\":4938:4945   */\n      0x00\n        /* \"#utility.yul\":4967:4991   */\n      tag_257\n        /* \"#utility.yul\":4985:4990   */\n      dup3\n        /* \"#utility.yul\":4967:4991   */\n      tag_154\n      jump\t// in\n    tag_257:\n        /* \"#utility.yul\":4956:4991   */\n      swap1\n      pop\n        /* \"#utility.yul\":4893:4997   */\n      swap2\n      swap1\n      pop\n      jump\t// out\n        /* \"#utility.yul\":5003:5145   */\n    tag_168:\n        /* \"#utility.yul\":5106:5138   */\n      tag_259\n        /* \"#utility.yul\":5132:5137   */\n      dup2\n        /* \"#utility.yul\":5106:5138   */\n      tag_167\n      jump\t// in\n    tag_259:\n        /* \"#utility.yul\":5101:5104   */\n      dup3\n        /* \"#utility.yul\":5094:5139   */\n      mstore\n        /* \"#utility.yul\":5003:5145   */\n      pop\n      pop\n      jump\t// out\n        /* \"#utility.yul\":5151:5926   */\n    tag_54:\n        /* \"#utility.yul\":5386:5390   */\n      0x00\n        /* \"#utility.yul\":5424:5427   */\n      0xa0\n        /* \"#utility.yul\":5413:5422   */\n      dup3\n        /* \"#utility.yul\":5409:5428   */\n      add\n        /* \"#utility.yul\":5401:5428   */\n      swap1\n      pop\n        /* \"#utility.yul\":5474:5483   */\n      dup2\n        /* \"#utility.yul\":5468:5472   */\n      dup2\n        /* \"#utility.yul\":5464:5484   */\n      sub\n        /* \"#utility.yul\":5460:5461   */\n      0x00\n        /* \"#utility.yul\":5449:5458   */\n      dup4\n        /* \"#utility.yul\":5445:5462   */\n      add\n        /* \"#utility.yul\":5438:5485   */\n      mstore\n        /* \"#utility.yul\":5502:5580   */\n      tag_261\n        /* \"#utility.yul\":5575:5579   */\n      dup2\n        /* \"#utility.yul\":5566:5572   */\n      dup9\n        /* \"#utility.yul\":5502:5580   */\n      tag_164\n      jump\t// in\n    tag_261:\n        /* \"#utility.yul\":5494:5580   */\n      swap1\n      pop\n        /* \"#utility.yul\":5590:5662   */\n      tag_262\n        /* \"#utility.yul\":5658:5660   */\n      0x20\n        /* \"#utility.yul\":5647:5656   */\n      dup4\n        /* \"#utility.yul\":5643:5661   */\n      add\n        /* \"#utility.yul\":5634:5640   */\n      dup8\n        /* \"#utility.yul\":5590:5662   */\n      tag_165\n      jump\t// in\n    tag_262:\n        /* \"#utility.yul\":5672:5760   */\n      tag_263\n        /* \"#utility.yul\":5756:5758   */\n      0x40\n        /* \"#utility.yul\":5745:5754   */\n      dup4\n        /* \"#utility.yul\":5741:5759   */\n      add\n        /* \"#utility.yul\":5732:5738   */\n      dup7\n        /* \"#utility.yul\":5672:5760   */\n      tag_168\n      jump\t// in\n    tag_263:\n        /* \"#utility.yul\":5770:5836   */\n      tag_264\n        /* \"#utility.yul\":5832:5834   */\n      0x60\n        /* \"#utility.yul\":5821:5830   */\n      dup4\n        /* \"#utility.yul\":5817:5835   */\n      add\n        /* \"#utility.yul\":5808:5814   */\n      dup6\n        /* \"#utility.yul\":5770:5836   */\n      tag_159\n      jump\t// in\n    tag_264:\n        /* \"#utility.yul\":5846:5919   */\n      tag_265\n        /* \"#utility.yul\":5914:5917   */\n      0x80\n        /* \"#utility.yul\":5903:5912   */\n      dup4\n        /* \"#utility.yul\":5899:5918   */\n      add\n        /* \"#utility.yul\":5890:5896   */\n      dup5\n        /* \"#utility.yul\":5846:5919   */\n      tag_165\n      jump\t// in\n    tag_265:\n        /* \"#utility.yul\":5151:5926   */\n      swap7\n      swap6\n      pop\n      pop\n      pop\n      pop\n      pop\n      pop\n      jump\t// out\n        /* \"#utility.yul\":5932:6245   */\n    tag_63:\n        /* \"#utility.yul\":6045:6049   */\n      0x00\n        /* \"#utility.yul\":6083:6085   */\n      0x20\n        /* \"#utility.yul\":6072:6081   */\n      dup3\n        /* \"#utility.yul\":6068:6086   */\n      add\n        /* \"#utility.yul\":6060:6086   */\n      swap1\n      pop\n        /* \"#utility.yul\":6132:6141   */\n      dup2\n        /* \"#utility.yul\":6126:6130   */\n      dup2\n        /* \"#utility.yul\":6122:6142   */\n      sub\n        /* \"#utility.yul\":6118:6119   */\n      0x00\n        /* \"#utility.yul\":6107:6116   */\n      dup4\n        /* \"#utility.yul\":6103:6120   */\n      add\n        /* \"#utility.yul\":6096:6143   */\n      mstore\n        /* \"#utility.yul\":6160:6238   */\n      tag_267\n        /* \"#utility.yul\":6233:6237   */\n      dup2\n        /* \"#utility.yul\":6224:6230   */\n      dup5\n        /* \"#utility.yul\":6160:6238   */\n      tag_164\n      jump\t// in\n    tag_267:\n        /* \"#utility.yul\":6152:6238   */\n      swap1\n      pop\n        /* \"#utility.yul\":5932:6245   */\n      swap3\n      swap2\n      pop\n      pop\n      jump\t// out\n        /* \"#utility.yul\":6251:6368   */\n    tag_169:\n        /* \"#utility.yul\":6360:6361   */\n      0x00\n        /* \"#utility.yul\":6357:6358   */\n      dup1\n        /* \"#utility.yul\":6350:6362   */\n      revert\n        /* \"#utility.yul\":6374:6491   */\n    tag_170:\n        /* \"#utility.yul\":6483:6484   */\n      0x00\n        /* \"#utility.yul\":6480:6481   */\n      dup1\n        /* \"#utility.yul\":6473:6485   */\n      revert\n        /* \"#utility.yul\":6497:6677   */\n    tag_171:\n        /* \"#utility.yul\":6545:6622   */\n      0x4e487b7100000000000000000000000000000000000000000000000000000000\n        /* \"#utility.yul\":6542:6543   */\n      0x00\n        /* \"#utility.yul\":6535:6623   */\n      mstore\n        /* \"#utility.yul\":6642:6646   */\n      0x41\n        /* \"#utility.yul\":6639:6640   */\n      0x04\n        /* \"#utility.yul\":6632:6647   */\n      mstore\n        /* \"#utility.yul\":6666:6670   */\n      0x24\n        /* \"#utility.yul\":6663:6664   */\n      0x00\n        /* \"#utility.yul\":6656:6671   */\n      revert\n        /* \"#utility.yul\":6683:6964   */\n    tag_172:\n        /* \"#utility.yul\":6766:6793   */\n      tag_272\n        /* \"#utility.yul\":6788:6792   */\n      dup3\n        /* \"#utility.yul\":6766:6793   */\n      tag_163\n      jump\t// in\n    tag_272:\n        /* \"#utility.yul\":6758:6764   */\n      dup2\n        /* \"#utility.yul\":6754:6794   */\n      add\n        /* \"#utility.yul\":6896:6902   */\n      dup2\n        /* \"#utility.yul\":6884:6894   */\n      dup2\n        /* \"#utility.yul\":6881:6903   */\n      lt\n        /* \"#utility.yul\":6860:6878   */\n      0xffffffffffffffff\n        /* \"#utility.yul\":6848:6858   */\n      dup3\n        /* \"#utility.yul\":6845:6879   */\n      gt\n        /* \"#utility.yul\":6842:6904   */\n      or\n        /* \"#utility.yul\":6839:6927   */\n      iszero\n      tag_273\n      jumpi\n        /* \"#utility.yul\":6907:6925   */\n      tag_274\n      tag_171\n      jump\t// in\n    tag_274:\n        /* \"#utility.yul\":6839:6927   */\n    tag_273:\n        /* \"#utility.yul\":6947:6957   */\n      dup1\n        /* \"#utility.yul\":6943:6945   */\n      0x40\n        /* \"#utility.yul\":6936:6958   */\n      mstore\n        /* \"#utility.yul\":6726:6964   */\n      pop\n        /* \"#utility.yul\":6683:6964   */\n      pop\n      pop\n      jump\t// out\n        /* \"#utility.yul\":6970:7099   */\n    tag_173:\n        /* \"#utility.yul\":7004:7010   */\n      0x00\n        /* \"#utility.yul\":7031:7051   */\n      tag_276\n      tag_148\n      jump\t// in\n    tag_276:\n        /* \"#utility.yul\":7021:7051   */\n      swap1\n      pop\n        /* \"#utility.yul\":7060:7093   */\n      tag_277\n        /* \"#utility.yul\":7088:7092   */\n      dup3\n        /* \"#utility.yul\":7080:7086   */\n      dup3\n        /* \"#utility.yul\":7060:7093   */\n      tag_172\n      jump\t// in\n    tag_277:\n        /* \"#utility.yul\":6970:7099   */\n      swap2\n      swap1\n      pop\n      jump\t// out\n        /* \"#utility.yul\":7105:7413   */\n    tag_174:\n        /* \"#utility.yul\":7167:7171   */\n      0x00\n        /* \"#utility.yul\":7257:7275   */\n      0xffffffffffffffff\n        /* \"#utility.yul\":7249:7255   */\n      dup3\n        /* \"#utility.yul\":7246:7276   */\n      gt\n        /* \"#utility.yul\":7243:7299   */\n      iszero\n      tag_279\n      jumpi\n        /* \"#utility.yul\":7279:7297   */\n      tag_280\n      tag_171\n      jump\t// in\n    tag_280:\n        /* \"#utility.yul\":7243:7299   */\n    tag_279:\n        /* \"#utility.yul\":7317:7346   */\n      tag_281\n        /* \"#utility.yul\":7339:7345   */\n      dup3\n        /* \"#utility.yul\":7317:7346   */\n      tag_163\n      jump\t// in\n    tag_281:\n        /* \"#utility.yul\":7309:7346   */\n      swap1\n      pop\n        /* \"#utility.yul\":7401:7405   */\n      0x20\n        /* \"#utility.yul\":7395:7399   */\n      dup2\n        /* \"#utility.yul\":7391:7406   */\n      add\n        /* \"#utility.yul\":7383:7406   */\n      swap1\n      pop\n        /* \"#utility.yul\":7105:7413   */\n      swap2\n      swap1\n      pop\n      jump\t// out\n        /* \"#utility.yul\":7419:7565   */\n    tag_175:\n        /* \"#utility.yul\":7516:7522   */\n      dup3\n        /* \"#utility.yul\":7511:7514   */\n      dup2\n        /* \"#utility.yul\":7506:7509   */\n      dup4\n        /* \"#utility.yul\":7493:7523   */\n      calldatacopy\n        /* \"#utility.yul\":7557:7558   */\n      0x00\n        /* \"#utility.yul\":7548:7554   */\n      dup4\n        /* \"#utility.yul\":7543:7546   */\n      dup4\n        /* \"#utility.yul\":7539:7555   */\n      add\n        /* \"#utility.yul\":7532:7559   */\n      mstore\n        /* \"#utility.yul\":7419:7565   */\n      pop\n      pop\n      pop\n      jump\t// out\n        /* \"#utility.yul\":7571:7996   */\n    tag_176:\n        /* \"#utility.yul\":7649:7654   */\n      0x00\n        /* \"#utility.yul\":7674:7740   */\n      tag_284\n        /* \"#utility.yul\":7690:7739   */\n      tag_285\n        /* \"#utility.yul\":7732:7738   */\n      dup5\n        /* \"#utility.yul\":7690:7739   */\n      tag_174\n      jump\t// in\n    tag_285:\n        /* \"#utility.yul\":7674:7740   */\n      tag_173\n      jump\t// in\n    tag_284:\n        /* \"#utility.yul\":7665:7740   */\n      swap1\n      pop\n        /* \"#utility.yul\":7763:7769   */\n      dup3\n        /* \"#utility.yul\":7756:7761   */\n      dup2\n        /* \"#utility.yul\":7749:7770   */\n      mstore\n        /* \"#utility.yul\":7801:7805   */\n      0x20\n        /* \"#utility.yul\":7794:7799   */\n      dup2\n        /* \"#utility.yul\":7790:7806   */\n      add\n        /* \"#utility.yul\":7839:7842   */\n      dup5\n        /* \"#utility.yul\":7830:7836   */\n      dup5\n        /* \"#utility.yul\":7825:7828   */\n      dup5\n        /* \"#utility.yul\":7821:7837   */\n      add\n        /* \"#utility.yul\":7818:7843   */\n      gt\n        /* \"#utility.yul\":7815:7927   */\n      iszero\n      tag_286\n      jumpi\n        /* \"#utility.yul\":7846:7925   */\n      tag_287\n      tag_170\n      jump\t// in\n    tag_287:\n        /* \"#utility.yul\":7815:7927   */\n    tag_286:\n        /* \"#utility.yul\":7936:7990   */\n      tag_288\n        /* \"#utility.yul\":7983:7989   */\n      dup5\n        /* \"#utility.yul\":7978:7981   */\n      dup3\n        /* \"#utility.yul\":7973:7976   */\n      dup6\n        /* \"#utility.yul\":7936:7990   */\n      tag_175\n      jump\t// in\n    tag_288:\n        /* \"#utility.yul\":7655:7996   */\n      pop\n        /* \"#utility.yul\":7571:7996   */\n      swap4\n      swap3\n      pop\n      pop\n      pop\n      jump\t// out\n        /* \"#utility.yul\":8016:8356   */\n    tag_177:\n        /* \"#utility.yul\":8072:8077   */\n      0x00\n        /* \"#utility.yul\":8121:8124   */\n      dup3\n        /* \"#utility.yul\":8114:8118   */\n      0x1f\n        /* \"#utility.yul\":8106:8112   */\n      dup4\n        /* \"#utility.yul\":8102:8119   */\n      add\n        /* \"#utility.yul\":8098:8125   */\n      slt\n        /* \"#utility.yul\":8088:8210   */\n      tag_290\n      jumpi\n        /* \"#utility.yul\":8129:8208   */\n      tag_291\n      tag_169\n      jump\t// in\n    tag_291:\n        /* \"#utility.yul\":8088:8210   */\n    tag_290:\n        /* \"#utility.yul\":8246:8252   */\n      dup2\n        /* \"#utility.yul\":8233:8253   */\n      calldataload\n        /* \"#utility.yul\":8271:8350   */\n      tag_292\n        /* \"#utility.yul\":8346:8349   */\n      dup5\n        /* \"#utility.yul\":8338:8344   */\n      dup3\n        /* \"#utility.yul\":8331:8335   */\n      0x20\n        /* \"#utility.yul\":8323:8329   */\n      dup7\n        /* \"#utility.yul\":8319:8336   */\n      add\n        /* \"#utility.yul\":8271:8350   */\n      tag_176\n      jump\t// in\n    tag_292:\n        /* \"#utility.yul\":8262:8350   */\n      swap2\n      pop\n        /* \"#utility.yul\":8078:8356   */\n      pop\n        /* \"#utility.yul\":8016:8356   */\n      swap3\n      swap2\n      pop\n      pop\n      jump\t// out\n        /* \"#utility.yul\":8362:8500   */\n    tag_178:\n        /* \"#utility.yul\":8443:8475   */\n      tag_294\n        /* \"#utility.yul\":8469:8474   */\n      dup2\n        /* \"#utility.yul\":8443:8475   */\n      tag_167\n      jump\t// in\n    tag_294:\n        /* \"#utility.yul\":8436:8441   */\n      dup2\n        /* \"#utility.yul\":8433:8476   */\n      eq\n        /* \"#utility.yul\":8423:8494   */\n      tag_295\n      jumpi\n        /* \"#utility.yul\":8490:8491   */\n      0x00\n        /* \"#utility.yul\":8487:8488   */\n      dup1\n        /* \"#utility.yul\":8480:8492   */\n      revert\n        /* \"#utility.yul\":8423:8494   */\n    tag_295:\n        /* \"#utility.yul\":8362:8500   */\n      pop\n      jump\t// out\n        /* \"#utility.yul\":8506:8661   */\n    tag_179:\n        /* \"#utility.yul\":8560:8565   */\n      0x00\n        /* \"#utility.yul\":8598:8604   */\n      dup2\n        /* \"#utility.yul\":8585:8605   */\n      calldataload\n        /* \"#utility.yul\":8576:8605   */\n      swap1\n      pop\n        /* \"#utility.yul\":8614:8655   */\n      tag_297\n        /* \"#utility.yul\":8649:8654   */\n      dup2\n        /* \"#utility.yul\":8614:8655   */\n      tag_178\n      jump\t// in\n    tag_297:\n        /* \"#utility.yul\":8506:8661   */\n      swap3\n      swap2\n      pop\n      pop\n      jump\t// out\n        /* \"#utility.yul\":8667:9482   */\n    tag_67:\n        /* \"#utility.yul\":8762:8768   */\n      0x00\n        /* \"#utility.yul\":8770:8776   */\n      dup1\n        /* \"#utility.yul\":8778:8784   */\n      0x00\n        /* \"#utility.yul\":8827:8829   */\n      0x60\n        /* \"#utility.yul\":8815:8824   */\n      dup5\n        /* \"#utility.yul\":8806:8813   */\n      dup7\n        /* \"#utility.yul\":8802:8825   */\n      sub\n        /* \"#utility.yul\":8798:8830   */\n      slt\n        /* \"#utility.yul\":8795:8914   */\n      iszero\n      tag_299\n      jumpi\n        /* \"#utility.yul\":8833:8912   */\n      tag_300\n      tag_149\n      jump\t// in\n    tag_300:\n        /* \"#utility.yul\":8795:8914   */\n    tag_299:\n        /* \"#utility.yul\":8981:8982   */\n      0x00\n        /* \"#utility.yul\":8970:8979   */\n      dup5\n        /* \"#utility.yul\":8966:8983   */\n      add\n        /* \"#utility.yul\":8953:8984   */\n      calldataload\n        /* \"#utility.yul\":9011:9029   */\n      0xffffffffffffffff\n        /* \"#utility.yul\":9003:9009   */\n      dup2\n        /* \"#utility.yul\":9000:9030   */\n      gt\n        /* \"#utility.yul\":8997:9114   */\n      iszero\n      tag_301\n      jumpi\n        /* \"#utility.yul\":9033:9112   */\n      tag_302\n      tag_150\n      jump\t// in\n    tag_302:\n        /* \"#utility.yul\":8997:9114   */\n    tag_301:\n        /* \"#utility.yul\":9138:9201   */\n      tag_303\n        /* \"#utility.yul\":9193:9200   */\n      dup7\n        /* \"#utility.yul\":9184:9190   */\n      dup3\n        /* \"#utility.yul\":9173:9182   */\n      dup8\n        /* \"#utility.yul\":9169:9191   */\n      add\n        /* \"#utility.yul\":9138:9201   */\n      tag_177\n      jump\t// in\n    tag_303:\n        /* \"#utility.yul\":9128:9201   */\n      swap4\n      pop\n        /* \"#utility.yul\":8924:9211   */\n      pop\n        /* \"#utility.yul\":9250:9252   */\n      0x20\n        /* \"#utility.yul\":9276:9329   */\n      tag_304\n        /* \"#utility.yul\":9321:9328   */\n      dup7\n        /* \"#utility.yul\":9312:9318   */\n      dup3\n        /* \"#utility.yul\":9301:9310   */\n      dup8\n        /* \"#utility.yul\":9297:9319   */\n      add\n        /* \"#utility.yul\":9276:9329   */\n      tag_153\n      jump\t// in\n    tag_304:\n        /* \"#utility.yul\":9266:9329   */\n      swap3\n      pop\n        /* \"#utility.yul\":9221:9339   */\n      pop\n        /* \"#utility.yul\":9378:9380   */\n      0x40\n        /* \"#utility.yul\":9404:9465   */\n      tag_305\n        /* \"#utility.yul\":9457:9464   */\n      dup7\n        /* \"#utility.yul\":9448:9454   */\n      dup3\n        /* \"#utility.yul\":9437:9446   */\n      dup8\n        /* \"#utility.yul\":9433:9455   */\n      add\n        /* \"#utility.yul\":9404:9465   */\n      tag_179\n      jump\t// in\n    tag_305:\n        /* \"#utility.yul\":9394:9465   */\n      swap2\n      pop\n        /* \"#utility.yul\":9349:9475   */\n      pop\n        /* \"#utility.yul\":8667:9482   */\n      swap3\n      pop\n      swap3\n      pop\n      swap3\n      jump\t// out\n        /* \"#utility.yul\":9488:9668   */\n    tag_84:\n        /* \"#utility.yul\":9536:9613   */\n      0x4e487b7100000000000000000000000000000000000000000000000000000000\n        /* \"#utility.yul\":9533:9534   */\n      0x00\n        /* \"#utility.yul\":9526:9614   */\n      mstore\n        /* \"#utility.yul\":9633:9637   */\n      0x32\n        /* \"#utility.yul\":9630:9631   */\n      0x04\n        /* \"#utility.yul\":9623:9638   */\n      mstore\n        /* \"#utility.yul\":9657:9661   */\n      0x24\n        /* \"#utility.yul\":9654:9655   */\n      0x00\n        /* \"#utility.yul\":9647:9662   */\n      revert\n        /* \"#utility.yul\":9674:9854   */\n    tag_180:\n        /* \"#utility.yul\":9722:9799   */\n      0x4e487b7100000000000000000000000000000000000000000000000000000000\n        /* \"#utility.yul\":9719:9720   */\n      0x00\n        /* \"#utility.yul\":9712:9800   */\n      mstore\n        /* \"#utility.yul\":9819:9823   */\n      0x12\n        /* \"#utility.yul\":9816:9817   */\n      0x04\n        /* \"#utility.yul\":9809:9824   */\n      mstore\n        /* \"#utility.yul\":9843:9847   */\n      0x24\n        /* \"#utility.yul\":9840:9841   */\n      0x00\n        /* \"#utility.yul\":9833:9848   */\n      revert\n        /* \"#utility.yul\":9860:10040   */\n    tag_181:\n        /* \"#utility.yul\":9908:9985   */\n      0x4e487b7100000000000000000000000000000000000000000000000000000000\n        /* \"#utility.yul\":9905:9906   */\n      0x00\n        /* \"#utility.yul\":9898:9986   */\n      mstore\n        /* \"#utility.yul\":10005:10009   */\n      0x11\n        /* \"#utility.yul\":10002:10003   */\n      0x04\n        /* \"#utility.yul\":9995:10010   */\n      mstore\n        /* \"#utility.yul\":10029:10033   */\n      0x24\n        /* \"#utility.yul\":10026:10027   */\n      0x00\n        /* \"#utility.yul\":10019:10034   */\n      revert\n        /* \"#utility.yul\":10046:10231   */\n    tag_87:\n        /* \"#utility.yul\":10086:10087   */\n      0x00\n        /* \"#utility.yul\":10103:10123   */\n      tag_310\n        /* \"#utility.yul\":10121:10122   */\n      dup3\n        /* \"#utility.yul\":10103:10123   */\n      tag_151\n      jump\t// in\n    tag_310:\n        /* \"#utility.yul\":10098:10123   */\n      swap2\n      pop\n        /* \"#utility.yul\":10137:10157   */\n      tag_311\n        /* \"#utility.yul\":10155:10156   */\n      dup4\n        /* \"#utility.yul\":10137:10157   */\n      tag_151\n      jump\t// in\n    tag_311:\n        /* \"#utility.yul\":10132:10157   */\n      swap3\n      pop\n        /* \"#utility.yul\":10176:10177   */\n      dup3\n        /* \"#utility.yul\":10166:10201   */\n      tag_312\n      jumpi\n        /* \"#utility.yul\":10181:10199   */\n      tag_313\n      tag_180\n      jump\t// in\n    tag_313:\n        /* \"#utility.yul\":10166:10201   */\n    tag_312:\n        /* \"#utility.yul\":10223:10224   */\n      dup3\n        /* \"#utility.yul\":10220:10221   */\n      dup3\n        /* \"#utility.yul\":10216:10225   */\n      div\n        /* \"#utility.yul\":10211:10225   */\n      swap1\n      pop\n        /* \"#utility.yul\":10046:10231   */\n      swap3\n      swap2\n      pop\n      pop\n      jump\t// out\n        /* \"#utility.yul\":10237:10417   */\n    tag_182:\n        /* \"#utility.yul\":10285:10362   */\n      0x4e487b7100000000000000000000000000000000000000000000000000000000\n        /* \"#utility.yul\":10282:10283   */\n      0x00\n        /* \"#utility.yul\":10275:10363   */\n      mstore\n        /* \"#utility.yul\":10382:10386   */\n      0x22\n        /* \"#utility.yul\":10379:10380   */\n      0x04\n        /* \"#utility.yul\":10372:10387   */\n      mstore\n        /* \"#utility.yul\":10406:10410   */\n      0x24\n        /* \"#utility.yul\":10403:10404   */\n      0x00\n        /* \"#utility.yul\":10396:10411   */\n      revert\n        /* \"#utility.yul\":10423:10743   */\n    tag_94:\n        /* \"#utility.yul\":10467:10473   */\n      0x00\n        /* \"#utility.yul\":10504:10505   */\n      0x02\n        /* \"#utility.yul\":10498:10502   */\n      dup3\n        /* \"#utility.yul\":10494:10506   */\n      div\n        /* \"#utility.yul\":10484:10506   */\n      swap1\n      pop\n        /* \"#utility.yul\":10551:10552   */\n      0x01\n        /* \"#utility.yul\":10545:10549   */\n      dup3\n        /* \"#utility.yul\":10541:10553   */\n      and\n        /* \"#utility.yul\":10572:10590   */\n      dup1\n        /* \"#utility.yul\":10562:10643   */\n      tag_316\n      jumpi\n        /* \"#utility.yul\":10628:10632   */\n      0x7f\n        /* \"#utility.yul\":10620:10626   */\n      dup3\n        /* \"#utility.yul\":10616:10633   */\n      and\n        /* \"#utility.yul\":10606:10633   */\n      swap2\n      pop\n        /* \"#utility.yul\":10562:10643   */\n    tag_316:\n        /* \"#utility.yul\":10690:10692   */\n      0x20\n        /* \"#utility.yul\":10682:10688   */\n      dup3\n        /* \"#utility.yul\":10679:10693   */\n      lt\n        /* \"#utility.yul\":10659:10677   */\n      dup2\n        /* \"#utility.yul\":10656:10694   */\n      sub\n        /* \"#utility.yul\":10653:10737   */\n      tag_317\n      jumpi\n        /* \"#utility.yul\":10709:10727   */\n      tag_318\n      tag_182\n      jump\t// in\n    tag_318:\n        /* \"#utility.yul\":10653:10737   */\n    tag_317:\n        /* \"#utility.yul\":10474:10743   */\n      pop\n        /* \"#utility.yul\":10423:10743   */\n      swap2\n      swap1\n      pop\n      jump\t// out\n        /* \"#utility.yul\":10749:10890   */\n    tag_183:\n        /* \"#utility.yul\":10798:10802   */\n      0x00\n        /* \"#utility.yul\":10821:10824   */\n      dup2\n        /* \"#utility.yul\":10813:10824   */\n      swap1\n      pop\n        /* \"#utility.yul\":10844:10847   */\n      dup2\n        /* \"#utility.yul\":10841:10842   */\n      0x00\n        /* \"#utility.yul\":10834:10848   */\n      mstore\n        /* \"#utility.yul\":10878:10882   */\n      0x20\n        /* \"#utility.yul\":10875:10876   */\n      0x00\n        /* \"#utility.yul\":10865:10883   */\n      keccak256\n        /* \"#utility.yul\":10857:10883   */\n      swap1\n      pop\n        /* \"#utility.yul\":10749:10890   */\n      swap2\n      swap1\n      pop\n      jump\t// out\n        /* \"#utility.yul\":10896:10989   */\n    tag_184:\n        /* \"#utility.yul\":10933:10939   */\n      0x00\n        /* \"#utility.yul\":10980:10982   */\n      0x20\n        /* \"#utility.yul\":10975:10977   */\n      0x1f\n        /* \"#utility.yul\":10968:10973   */\n      dup4\n        /* \"#utility.yul\":10964:10978   */\n      add\n        /* \"#utility.yul\":10960:10983   */\n      div\n        /* \"#utility.yul\":10950:10983   */\n      swap1\n      pop\n        /* \"#utility.yul\":10896:10989   */\n      swap2\n      swap1\n      pop\n      jump\t// out\n        /* \"#utility.yul\":10995:11102   */\n    tag_185:\n        /* \"#utility.yul\":11039:11047   */\n      0x00\n        /* \"#utility.yul\":11089:11094   */\n      dup3\n        /* \"#utility.yul\":11083:11087   */\n      dup3\n        /* \"#utility.yul\":11079:11095   */\n      shl\n        /* \"#utility.yul\":11058:11095   */\n      swap1\n      pop\n        /* \"#utility.yul\":10995:11102   */\n      swap3\n      swap2\n      pop\n      pop\n      jump\t// out\n        /* \"#utility.yul\":11108:11501   */\n    tag_186:\n        /* \"#utility.yul\":11177:11183   */\n      0x00\n        /* \"#utility.yul\":11227:11228   */\n      0x08\n        /* \"#utility.yul\":11215:11225   */\n      dup4\n        /* \"#utility.yul\":11211:11229   */\n      mul\n        /* \"#utility.yul\":11250:11347   */\n      tag_323\n        /* \"#utility.yul\":11280:11346   */\n      0xffffffffffffffffffffffffffffffffffffffffffffffffffffffffffffffff\n        /* \"#utility.yul\":11269:11278   */\n      dup3\n        /* \"#utility.yul\":11250:11347   */\n      tag_185\n      jump\t// in\n    tag_323:\n        /* \"#utility.yul\":11368:11407   */\n      tag_324\n        /* \"#utility.yul\":11398:11406   */\n      dup7\n        /* \"#utility.yul\":11387:11396   */\n      dup4\n        /* \"#utility.yul\":11368:11407   */\n      tag_185\n      jump\t// in\n    tag_324:\n        /* \"#utility.yul\":11356:11407   */\n      swap6\n      pop\n        /* \"#utility.yul\":11440:11444   */\n      dup1\n        /* \"#utility.yul\":11436:11445   */\n      not\n        /* \"#utility.yul\":11429:11434   */\n      dup5\n        /* \"#utility.yul\":11425:11446   */\n      and\n        /* \"#utility.yul\":11416:11446   */\n      swap4\n      pop\n        /* \"#utility.yul\":11489:11493   */\n      dup1\n        /* \"#utility.yul\":11479:11487   */\n      dup7\n        /* \"#utility.yul\":11475:11494   */\n      and\n        /* \"#utility.yul\":11468:11473   */\n      dup5\n        /* \"#utility.yul\":11465:11495   */\n      or\n        /* \"#utility.yul\":11455:11495   */\n      swap3\n      pop\n        /* \"#utility.yul\":11184:11501   */\n      pop\n      pop\n        /* \"#utility.yul\":11108:11501   */\n      swap4\n      swap3\n      pop\n      pop\n      pop\n      jump\t// out\n        /* \"#utility.yul\":11507:11567   */\n    tag_187:\n        /* \"#utility.yul\":11535:11538   */\n      0x00\n        /* \"#utility.yul\":11556:11561   */\n      dup2\n        /* \"#utility.yul\":11549:11561   */\n      swap1\n      pop\n        /* \"#utility.yul\":11507:11567   */\n      swap2\n      swap1\n      pop\n      jump\t// out\n        /* \"#utility.yul\":11573:11715   */\n    tag_188:\n        /* \"#utility.yul\":11623:11632   */\n      0x00\n        /* \"#utility.yul\":11656:11709   */\n      tag_327\n        /* \"#utility.yul\":11674:11708   */\n      tag_328\n        /* \"#utility.yul\":11683:11707   */\n      tag_329\n        /* \"#utility.yul\":11701:11706   */\n      dup5\n        /* \"#utility.yul\":11683:11707   */\n      tag_151\n      jump\t// in\n    tag_329:\n        /* \"#utility.yul\":11674:11708   */\n      tag_187\n      jump\t// in\n    tag_328:\n        /* \"#utility.yul\":11656:11709   */\n      tag_151\n      jump\t// in\n    tag_327:\n        /* \"#utility.yul\":11643:11709   */\n      swap1\n      pop\n        /* \"#utility.yul\":11573:11715   */\n      swap2\n      swap1\n      pop\n      jump\t// out\n        /* \"#utility.yul\":11721:11796   */\n    tag_189:\n        /* \"#utility.yul\":11764:11767   */\n      0x00\n        /* \"#utility.yul\":11785:11790   */\n      dup2\n        /* \"#utility.yul\":11778:11790   */\n      swap1\n      pop\n        /* \"#utility.yul\":11721:11796   */\n      swap2\n      swap1\n      pop\n      jump\t// out\n        /* \"#utility.yul\":11802:12071   */\n    tag_190:\n        /* \"#utility.yul\":11912:11951   */\n      tag_332\n        /* \"#utility.yul\":11943:11950   */\n      dup4\n        /* \"#utility.yul\":11912:11951   */\n      tag_188\n      jump\t// in\n    tag_332:\n        /* \"#utility.yul\":11973:12064   */\n      tag_333\n        /* \"#utility.yul\":12022:12063   */\n      tag_334\n        /* \"#utility.yul\":12046:12062   */\n      dup3\n        /* \"#utility.yul\":12022:12063   */\n      tag_189\n      jump\t// in\n    tag_334:\n        /* \"#utility.yul\":12014:12020   */\n      dup5\n        /* \"#utility.yul\":12007:12011   */\n      dup5\n        /* \"#utility.yul\":12001:12012   */\n      sload\n        /* \"#utility.yul\":11973:12064   */\n      tag_186\n      jump\t// in\n    tag_333:\n        /* \"#utility.yul\":11967:11971   */\n      dup3\n        /* \"#utility.yul\":11960:12065   */\n      sstore\n        /* \"#utility.yul\":11878:12071   */\n      pop\n        /* \"#utility.yul\":11802:12071   */\n      pop\n      pop\n      pop\n      jump\t// out\n        /* \"#utility.yul\":12077:12150   */\n    tag_191:\n        /* \"#utility.yul\":12122:12125   */\n      0x00\n        /* \"#utility.yul\":12077:12150   */\n      swap1\n      jump\t// out\n        /* \"#utility.yul\":12156:12345   */\n    tag_192:\n        /* \"#utility.yul\":12233:12265   */\n      tag_337\n      tag_191\n      jump\t// in\n    tag_337:\n        /* \"#utility.yul\":12274:12339   */\n      tag_338\n        /* \"#utility.yul\":12332:12338   */\n      dup2\n        /* \"#utility.yul\":12324:12330   */\n      dup5\n        /* \"#utility.yul\":12318:12322   */\n      dup5\n        /* \"#utility.yul\":12274:12339   */\n      tag_190\n      jump\t// in\n    tag_338:\n        /* \"#utility.yul\":12209:12345   */\n      pop\n        /* \"#utility.yul\":12156:12345   */\n      pop\n      pop\n      jump\t// out\n        /* \"#utility.yul\":12351:12537   */\n    tag_193:\n        /* \"#utility.yul\":12411:12531   */\n    tag_340:\n        /* \"#utility.yul\":12428:12431   */\n      dup2\n        /* \"#utility.yul\":12421:12426   */\n      dup2\n        /* \"#utility.yul\":12418:12432   */\n      lt\n        /* \"#utility.yul\":12411:12531   */\n      iszero\n      tag_342\n      jumpi\n        /* \"#utility.yul\":12482:12521   */\n      tag_343\n        /* \"#utility.yul\":12519:12520   */\n      0x00\n        /* \"#utility.yul\":12512:12517   */\n      dup3\n        /* \"#utility.yul\":12482:12521   */\n      tag_192\n      jump\t// in\n    tag_343:\n        /* \"#utility.yul\":12455:12456   */\n      0x01\n        /* \"#utility.yul\":12448:12453   */\n      dup2\n        /* \"#utility.yul\":12444:12457   */\n      add\n        /* \"#utility.yul\":12435:12457   */\n      swap1\n      pop\n        /* \"#utility.yul\":12411:12531   */\n      jump(tag_340)\n    tag_342:\n        /* \"#utility.yul\":12351:12537   */\n      pop\n      pop\n      jump\t// out\n        /* \"#utility.yul\":12543:13086   */\n    tag_194:\n        /* \"#utility.yul\":12644:12646   */\n      0x1f\n        /* \"#utility.yul\":12639:12642   */\n      dup3\n        /* \"#utility.yul\":12636:12647   */\n      gt\n        /* \"#utility.yul\":12633:13079   */\n      iszero\n      tag_345\n      jumpi\n        /* \"#utility.yul\":12678:12716   */\n      tag_346\n        /* \"#utility.yul\":12710:12715   */\n      dup2\n        /* \"#utility.yul\":12678:12716   */\n      tag_183\n      jump\t// in\n    tag_346:\n        /* \"#utility.yul\":12762:12791   */\n      tag_347\n        /* \"#utility.yul\":12780:12790   */\n      dup5\n        /* \"#utility.yul\":12762:12791   */\n      tag_184\n      jump\t// in\n    tag_347:\n        /* \"#utility.yul\":12752:12760   */\n      dup2\n        /* \"#utility.yul\":12748:12792   */\n      add\n        /* \"#utility.yul\":12945:12947   */\n      0x20\n        /* \"#utility.yul\":12933:12943   */\n      dup6\n        /* \"#utility.yul\":12930:12948   */\n      lt\n        /* \"#utility.yul\":12927:12976   */\n      iszero\n      tag_348\n      jumpi\n        /* \"#utility.yul\":12966:12974   */\n      dup2\n        /* \"#utility.yul\":12951:12974   */\n      swap1\n      pop\n        /* \"#utility.yul\":12927:12976   */\n    tag_348:\n        /* \"#utility.yul\":12989:13069   */\n      tag_349\n        /* \"#utility.yul\":13045:13067   */\n      tag_350\n        /* \"#utility.yul\":13063:13066   */\n      dup6\n        /* \"#utility.yul\":13045:13067   */\n      tag_184\n      jump\t// in\n    tag_350:\n        /* \"#utility.yul\":13035:13043   */\n      dup4\n        /* \"#utility.yul\":13031:13068   */\n      add\n        /* \"#utility.yul\":13018:13029   */\n      dup3\n        /* \"#utility.yul\":12989:13069   */\n      tag_193\n      jump\t// in\n    tag_349:\n        /* \"#utility.yul\":12648:13079   */\n      pop\n      pop\n        /* \"#utility.yul\":12633:13079   */\n    tag_345:\n        /* \"#utility.yul\":12543:13086   */\n      pop\n      pop\n      pop\n      jump\t// out\n        /* \"#utility.yul\":13092:13209   */\n    tag_195:\n        /* \"#utility.yul\":13146:13154   */\n      0x00\n        /* \"#utility.yul\":13196:13201   */\n      dup3\n        /* \"#utility.yul\":13190:13194   */\n      dup3\n        /* \"#utility.yul\":13186:13202   */\n      shr\n        /* \"#utility.yul\":13165:13202   */\n      swap1\n      pop\n        /* \"#utility.yul\":13092:13209   */\n      swap3\n      swap2\n      pop\n      pop\n      jump\t// out\n        /* \"#utility.yul\":13215:13384   */\n    tag_196:\n        /* \"#utility.yul\":13259:13265   */\n      0x00\n        /* \"#utility.yul\":13292:13343   */\n      tag_353\n        /* \"#utility.yul\":13340:13341   */\n      0x00\n        /* \"#utility.yul\":13336:13342   */\n      not\n        /* \"#utility.yul\":13328:13333   */\n      dup5\n        /* \"#utility.yul\":13325:13326   */\n      0x08\n        /* \"#utility.yul\":13321:13334   */\n      mul\n        /* \"#utility.yul\":13292:13343   */\n      tag_195\n      jump\t// in\n    tag_353:\n        /* \"#utility.yul\":13288:13344   */\n      not\n        /* \"#utility.yul\":13373:13377   */\n      dup1\n        /* \"#utility.yul\":13367:13371   */\n      dup4\n        /* \"#utility.yul\":13363:13378   */\n      and\n        /* \"#utility.yul\":13353:13378   */\n      swap2\n      pop\n        /* \"#utility.yul\":13266:13384   */\n      pop\n        /* \"#utility.yul\":13215:13384   */\n      swap3\n      swap2\n      pop\n      pop\n      jump\t// out\n        /* \"#utility.yul\":13389:13684   */\n    tag_197:\n        /* \"#utility.yul\":13465:13469   */\n      0x00\n        /* \"#utility.yul\":13611:13640   */\n      tag_355\n        /* \"#utility.yul\":13636:13639   */\n      dup4\n        /* \"#utility.yul\":13630:13634   */\n      dup4\n        /* \"#utility.yul\":13611:13640   */\n      tag_196\n      jump\t// in\n    tag_355:\n        /* \"#utility.yul\":13603:13640   */\n      swap2\n      pop\n        /* \"#utility.yul\":13673:13676   */\n      dup3\n        /* \"#utility.yul\":13670:13671   */\n      0x02\n        /* \"#utility.yul\":13666:13677   */\n      mul\n        /* \"#utility.yul\":13660:13664   */\n      dup3\n        /* \"#utility.yul\":13657:13678   */\n      or\n        /* \"#utility.yul\":13649:13678   */\n      swap1\n      pop\n        /* \"#utility.yul\":13389:13684   */\n      swap3\n      swap2\n      pop\n      pop\n      jump\t// out\n        /* \"#utility.yul\":13689:15084   */\n    tag_124:\n        /* \"#utility.yul\":13806:13843   */\n      tag_357\n        /* \"#utility.yul\":13839:13842   */\n      dup3\n        /* \"#utility.yul\":13806:13843   */\n      tag_160\n      jump\t// in\n    tag_357:\n        /* \"#utility.yul\":13908:13926   */\n      0xffffffffffffffff\n        /* \"#utility.yul\":13900:13906   */\n      dup2\n        /* \"#utility.yul\":13897:13927   */\n      gt\n        /* \"#utility.yul\":13894:13950   */\n      iszero\n      tag_358\n      jumpi\n        /* \"#utility.yul\":13930:13948   */\n      tag_359\n      tag_171\n      jump\t// in\n    tag_359:\n        /* \"#utility.yul\":13894:13950   */\n    tag_358:\n        /* \"#utility.yul\":13974:14012   */\n      tag_360\n        /* \"#utility.yul\":14006:14010   */\n      dup3\n        /* \"#utility.yul\":14000:14011   */\n      sload\n        /* \"#utility.yul\":13974:14012   */\n      tag_94\n      jump\t// in\n    tag_360:\n        /* \"#utility.yul\":14059:14126   */\n      tag_361\n        /* \"#utility.yul\":14119:14125   */\n      dup3\n        /* \"#utility.yul\":14111:14117   */\n      dup3\n        /* \"#utility.yul\":14105:14109   */\n      dup6\n        /* \"#utility.yul\":14059:14126   */\n      tag_194\n      jump\t// in\n    tag_361:\n        /* \"#utility.yul\":14153:14154   */\n      0x00\n        /* \"#utility.yul\":14177:14181   */\n      0x20\n        /* \"#utility.yul\":14164:14181   */\n      swap1\n      pop\n        /* \"#utility.yul\":14209:14211   */\n      0x1f\n        /* \"#utility.yul\":14201:14207   */\n      dup4\n        /* \"#utility.yul\":14198:14212   */\n      gt\n        /* \"#utility.yul\":14226:14227   */\n      0x01\n        /* \"#utility.yul\":14221:14839   */\n      dup2\n      eq\n      tag_363\n      jumpi\n        /* \"#utility.yul\":14883:14884   */\n      0x00\n        /* \"#utility.yul\":14900:14906   */\n      dup5\n        /* \"#utility.yul\":14897:14974   */\n      iszero\n      tag_364\n      jumpi\n        /* \"#utility.yul\":14949:14958   */\n      dup3\n        /* \"#utility.yul\":14944:14947   */\n      dup8\n        /* \"#utility.yul\":14940:14959   */\n      add\n        /* \"#utility.yul\":14934:14960   */\n      mload\n        /* \"#utility.yul\":14925:14960   */\n      swap1\n      pop\n        /* \"#utility.yul\":14897:14974   */\n    tag_364:\n        /* \"#utility.yul\":15000:15067   */\n      tag_365\n        /* \"#utility.yul\":15060:15066   */\n      dup6\n        /* \"#utility.yul\":15053:15058   */\n      dup3\n        /* \"#utility.yul\":15000:15067   */\n      tag_197\n      jump\t// in\n    tag_365:\n        /* \"#utility.yul\":14994:14998   */\n      dup7\n        /* \"#utility.yul\":14987:15068   */\n      sstore\n        /* \"#utility.yul\":14856:15078   */\n      pop\n        /* \"#utility.yul\":14191:15078   */\n      jump(tag_362)\n        /* \"#utility.yul\":14221:14839   */\n    tag_363:\n        /* \"#utility.yul\":14273:14277   */\n      0x1f\n        /* \"#utility.yul\":14269:14278   */\n      not\n        /* \"#utility.yul\":14261:14267   */\n      dup5\n        /* \"#utility.yul\":14257:14279   */\n      and\n        /* \"#utility.yul\":14307:14344   */\n      tag_366\n        /* \"#utility.yul\":14339:14343   */\n      dup7\n        /* \"#utility.yul\":14307:14344   */\n      tag_183\n      jump\t// in\n    tag_366:\n        /* \"#utility.yul\":14366:14367   */\n      0x00\n        /* \"#utility.yul\":14380:14588   */\n    tag_367:\n        /* \"#utility.yul\":14394:14401   */\n      dup3\n        /* \"#utility.yul\":14391:14392   */\n      dup2\n        /* \"#utility.yul\":14388:14402   */\n      lt\n        /* \"#utility.yul\":14380:14588   */\n      iszero\n      tag_369\n      jumpi\n        /* \"#utility.yul\":14473:14482   */\n      dup5\n        /* \"#utility.yul\":14468:14471   */\n      dup10\n        /* \"#utility.yul\":14464:14483   */\n      add\n        /* \"#utility.yul\":14458:14484   */\n      mload\n        /* \"#utility.yul\":14450:14456   */\n      dup3\n        /* \"#utility.yul\":14443:14485   */\n      sstore\n        /* \"#utility.yul\":14524:14525   */\n      0x01\n        /* \"#utility.yul\":14516:14522   */\n      dup3\n        /* \"#utility.yul\":14512:14526   */\n      add\n        /* \"#utility.yul\":14502:14526   */\n      swap2\n      pop\n        /* \"#utility.yul\":14571:14573   */\n      0x20\n        /* \"#utility.yul\":14560:14569   */\n      dup6\n        /* \"#utility.yul\":14556:14574   */\n      add\n        /* \"#utility.yul\":14543:14574   */\n      swap5\n      pop\n        /* \"#utility.yul\":14417:14421   */\n      0x20\n        /* \"#utility.yul\":14414:14415   */\n      dup2\n        /* \"#utility.yul\":14410:14422   */\n      add\n        /* \"#utility.yul\":14405:14422   */\n      swap1\n      pop\n        /* \"#utility.yul\":14380:14588   */\n      jump(tag_367)\n    tag_369:\n        /* \"#utility.yul\":14616:14622   */\n      dup7\n        /* \"#utility.yul\":14607:14614   */\n      dup4\n        /* \"#utility.yul\":14604:14623   */\n      lt\n        /* \"#utility.yul\":14601:14780   */\n      iszero\n      tag_370\n      jumpi\n        /* \"#utility.yul\":14674:14683   */\n      dup5\n        /* \"#utility.yul\":14669:14672   */\n      dup10\n        /* \"#utility.yul\":14665:14684   */\n      add\n        /* \"#utility.yul\":14659:14685   */\n      mload\n        /* \"#utility.yul\":14717:14765   */\n      tag_371\n        /* \"#utility.yul\":14759:14763   */\n      0x1f\n        /* \"#utility.yul\":14751:14757   */\n      dup10\n        /* \"#utility.yul\":14747:14764   */\n      and\n        /* \"#utility.yul\":14736:14745   */\n      dup3\n        /* \"#utility.yul\":14717:14765   */\n      tag_196\n      jump\t// in\n    tag_371:\n        /* \"#utility.yul\":14709:14715   */\n      dup4\n        /* \"#utility.yul\":14702:14766   */\n      sstore\n        /* \"#utility.yul\":14624:14780   */\n      pop\n        /* \"#utility.yul\":14601:14780   */\n    tag_370:\n        /* \"#utility.yul\":14826:14827   */\n      0x01\n        /* \"#utility.yul\":14822:14823   */\n      0x02\n        /* \"#utility.yul\":14814:14820   */\n      dup9\n        /* \"#utility.yul\":14810:14824   */\n      mul\n        /* \"#utility.yul\":14806:14828   */\n      add\n        /* \"#utility.yul\":14800:14804   */\n      dup9\n        /* \"#utility.yul\":14793:14829   */\n      sstore\n        /* \"#utility.yul\":14228:14839   */\n      pop\n      pop\n      pop\n        /* \"#utility.yul\":14191:15078   */\n    tag_362:\n      pop\n        /* \"#utility.yul\":13781:15084   */\n      pop\n      pop\n      pop\n        /* \"#utility.yul\":13689:15084   */\n      pop\n      pop\n      jump\t// out\n        /* \"#utility.yul\":15090:15323   */\n    tag_140:\n        /* \"#utility.yul\":15129:15132   */\n      0x00\n        /* \"#utility.yul\":15152:15176   */\n      tag_373\n        /* \"#utility.yul\":15170:15175   */\n      dup3\n        /* \"#utility.yul\":15152:15176   */\n      tag_151\n      jump\t// in\n    tag_373:\n        /* \"#utility.yul\":15143:15176   */\n      swap2\n      pop\n        /* \"#utility.yul\":15198:15264   */\n      0xffffffffffffffffffffffffffffffffffffffffffffffffffffffffffffffff\n        /* \"#utility.yul\":15191:15196   */\n      dup3\n        /* \"#utility.yul\":15188:15265   */\n      sub\n        /* \"#utility.yul\":15185:15288   */\n      tag_374\n      jumpi\n        /* \"#utility.yul\":15268:15286   */\n      tag_375\n      tag_181\n      jump\t// in\n    tag_375:\n        /* \"#utility.yul\":15185:15288   */\n    tag_374:\n        /* \"#utility.yul\":15315:15316   */\n      0x01\n        /* \"#utility.yul\":15308:15313   */\n      dup3\n        /* \"#utility.yul\":15304:15317   */\n      add\n        /* \"#utility.yul\":15297:15317   */\n      swap1\n      pop\n        /* \"#utility.yul\":15090:15323   */\n      swap2\n      swap1\n      pop\n      jump\t// out\n\n    auxdata: 0xa2646970667358221220f4c4a960ce0dbeea9d81b0f4fad9929599612431a44f8763032fb449bc4b649064736f6c63430008120033\n}\n","bytecode":{"linkReferences":{},"object":"60806040523480156200001157600080fd5b5060405162001a9738038062001a978339818101604052810190620000379190620002cc565b816000806101000a81548173ffffffffffffffffffffffffffffffffffffffff021916908373ffffffffffffffffffffffffffffffffffffffff160217905550806001908162000088919062000588565b50826002819055505050506200066f565b6000604051905090565b600080fd5b600080fd5b6000819050919050565b620000c281620000ad565b8114620000ce57600080fd5b50565b600081519050620000e281620000b7565b92915050565b600073ffffffffffffffffffffffffffffffffffffffff82169050919050565b60006200011582620000e8565b9050919050565b620001278162000108565b81146200013357600080fd5b50565b60008151905062000147816200011c565b92915050565b600080fd5b600080fd5b6000601f19601f8301169050919050565b7f4e487b7100000000000000000000000000000000000000000000000000000000600052604160045260246000fd5b620001a28262000157565b810181811067ffffffffffffffff82111715620001c457620001c362000168565b5b80604052505050565b6000620001d962000099565b9050620001e7828262000197565b919050565b600067ffffffffffffffff8211156200020a576200020962000168565b5b620002158262000157565b9050602081019050919050565b60005b838110156200024257808201518184015260208101905062000225565b60008484015250505050565b6000620002656200025f84620001ec565b620001cd565b90508281526020810184848401111562000284576200028362000152565b5b6200029184828562000222565b509392505050565b600082601f830112620002b157620002b06200014d565b5b8151620002c38482602086016200024e565b91505092915050565b600080600060608486031215620002e857620002e7620000a3565b5b6000620002f886828701620000d1565b93505060206200030b8682870162000136565b925050604084015167ffffffffffffffff8111156200032f576200032e620000a8565b5b6200033d8682870162000299565b9150509250925092565b600081519050919050565b7f4e487b7100000000000000000000000000000000000000000000000000000000600052602260045260246000fd5b600060028204905060018216806200039a57607f821691505b602082108103620003b057620003af62000352565b5b50919050565b60008190508160005260206000209050919050565b60006020601f8301049050919050565b600082821b905092915050565b6000600883026200041a7fffffffffffffffffffffffffffffffffffffffffffffffffffffffffffffffff82620003db565b620004268683620003db565b95508019841693508086168417925050509392505050565b6000819050919050565b600062000469620004636200045d84620000ad565b6200043e565b620000ad565b9050919050565b6000819050919050565b620004858362000448565b6200049d620004948262000470565b848454620003e8565b825550505050565b600090565b620004b4620004a5565b620004c18184846200047a565b505050565b5b81811015620004e957620004dd600082620004aa565b600181019050620004c7565b5050565b601f82111562000538576200050281620003b6565b6200050d84620003cb565b810160208510156200051d578190505b620005356200052c85620003cb565b830182620004c6565b50505b505050565b600082821c905092915050565b60006200055d600019846008026200053d565b1980831691505092915050565b60006200057883836200054a565b9150826002028217905092915050565b620005938262000347565b67ffffffffffffffff811115620005af57620005ae62000168565b5b620005bb825462000381565b620005c8828285620004ed565b600060209050601f831160018114620006005760008415620005eb578287015190505b620005f785826200056a565b86555062000667565b601f1984166200061086620003b6565b60005b828110156200063a5784890151825560018201915060208501945060208101905062000613565b868310156200065a578489015162000656601f8916826200054a565b8355505b6001600288020188555050505b505050505050565b611418806200067f6000396000f3fe6080604052600436106100c25760003560e01c806381d12c581161007f5780638a9cfd55116100595780638a9cfd5514610287578063937e09b1146102b0578063d7bb99ba146102db578063d7d1bbdb146102e5576100c2565b806381d12c58146101f057806382fde09314610231578063835a61721461025c576100c2565b806303441006146100c75780630a144391146100f05780630c611f241461012d5780633410452a1461015d578063481c6a751461018857806349367252146101b3575b600080fd5b3480156100d357600080fd5b506100ee60048036038101906100e99190610b57565b61030e565b005b3480156100fc57600080fd5b5061011760048036038101906101129190610be2565b610456565b6040516101249190610c2a565b60405180910390f35b34801561013957600080fd5b50610142610476565b60405161015496959493929190610cf3565b60405180910390f35b34801561016957600080fd5b50610172610550565b60405161017f9190610d5b565b60405180910390f35b34801561019457600080fd5b5061019d61055d565b6040516101aa9190610d76565b60405180910390f35b3480156101bf57600080fd5b506101da60048036038101906101d59190610b57565b610581565b6040516101e79190610c2a565b60405180910390f35b3480156101fc57600080fd5b5061021760048036038101906102129190610b57565b6105fa565b604051610228959493929190610db2565b60405180910390f35b34801561023d57600080fd5b506102466106f5565b6040516102539190610d5b565b60405180910390f35b34801561026857600080fd5b506102716106fb565b60405161027e9190610e0c565b60405180910390f35b34801561029357600080fd5b506102ae60048036038101906102a99190610f8f565b610789565b005b3480156102bc57600080fd5b506102c561093a565b6040516102d29190610d5b565b60405180910390f35b6102e3610940565b005b3480156102f157600080fd5b5061030c60048036038101906103079190610b57565b6109c0565b005b60008054906101000a900473ffffffffffffffffffffffffffffffffffffffff1673ffffffffffffffffffffffffffffffffffffffff163373ffffffffffffffffffffffffffffffffffffffff161461036657600080fd5b60006004828154811061037c5761037b610ffe565b5b90600052602060002090600502019050600260055461039b919061108b565b8160030154116103aa57600080fd5b8060020160149054906101000a900460ff16156103c657600080fd5b8060020160009054906101000a900473ffffffffffffffffffffffffffffffffffffffff1673ffffffffffffffffffffffffffffffffffffffff166108fc82600101549081150290604051600060405180830381858888f19350505050158015610434573d6000803e3d6000fd5b5060018160020160146101000a81548160ff0219169083151502179055505050565b60036020528060005260406000206000915054906101000a900460ff1681565b6060600080600080600060016002544760048054905060055460008054906101000a900473ffffffffffffffffffffffffffffffffffffffff168580546104bc906110eb565b80601f01602080910402602001604051908101604052809291908181526020018280546104e8906110eb565b80156105355780601f1061050a57610100808354040283529160200191610535565b820191906000526020600020905b81548152906001019060200180831161051857829003601f168201915b50505050509550955095509550955095509550909192939495565b6000600480549050905090565b60008054906101000a900473ffffffffffffffffffffffffffffffffffffffff1681565b60006004828154811061059757610596610ffe565b5b906000526020600020906005020160040160003373ffffffffffffffffffffffffffffffffffffffff1673ffffffffffffffffffffffffffffffffffffffff16815260200190815260200160002060009054906101000a900460ff169050919050565b6004818154811061060a57600080fd5b906000526020600020906005020160009150905080600001805461062d906110eb565b80601f0160208091040260200160405190810160405280929190818152602001828054610659906110eb565b80156106a65780601f1061067b576101008083540402835291602001916106a6565b820191906000526020600020905b81548152906001019060200180831161068957829003601f168201915b5050505050908060010154908060020160009054906101000a900473ffffffffffffffffffffffffffffffffffffffff16908060020160149054906101000a900460ff16908060030154905085565b60055481565b60018054610708906110eb565b80601f0160208091040260200160405190810160405280929190818152602001828054610734906110eb565b80156107815780601f1061075657610100808354040283529160200191610781565b820191906000526020600020905b81548152906001019060200180831161076457829003601f168201915b505050505081565b60008054906101000a900473ffffffffffffffffffffffffffffffffffffffff1673ffffffffffffffffffffffffffffffffffffffff163373ffffffffffffffffffffffffffffffffffffffff16146107e157600080fd5b6000600480549050905060006004905080600181600181540180825580915050039060005260206000209050508481838154811061082257610821610ffe565b5b9060005260206000209060050201600001908161083f91906112c8565b508381838154811061085457610853610ffe565b5b9060005260206000209060050201600101819055508281838154811061087d5761087c610ffe565b5b906000526020600020906005020160020160006101000a81548173ffffffffffffffffffffffffffffffffffffffff021916908373ffffffffffffffffffffffffffffffffffffffff16021790555060008183815481106108e1576108e0610ffe565b5b906000526020600020906005020160020160146101000a81548160ff021916908315150217905550600081838154811061091e5761091d610ffe565b5b9060005260206000209060050201600301819055505050505050565b60025481565b600254341161094e57600080fd5b6001600360003373ffffffffffffffffffffffffffffffffffffffff1673ffffffffffffffffffffffffffffffffffffffff16815260200190815260200160002060006101000a81548160ff021916908315150217905550600560008154809291906109b99061139a565b9190505550565b6000600482815481106109d6576109d5610ffe565b5b90600052602060002090600502019050600360003373ffffffffffffffffffffffffffffffffffffffff1673ffffffffffffffffffffffffffffffffffffffff16815260200190815260200160002060009054906101000a900460ff16610a3c57600080fd5b8060040160003373ffffffffffffffffffffffffffffffffffffffff1673ffffffffffffffffffffffffffffffffffffffff16815260200190815260200160002060009054906101000a900460ff1615610a9557600080fd5b60018160040160003373ffffffffffffffffffffffffffffffffffffffff1673ffffffffffffffffffffffffffffffffffffffff16815260200190815260200160002060006101000a81548160ff021916908315150217905550806003016000815480929190610b049061139a565b91905055505050565b6000604051905090565b600080fd5b600080fd5b6000819050919050565b610b3481610b21565b8114610b3f57600080fd5b50565b600081359050610b5181610b2b565b92915050565b600060208284031215610b6d57610b6c610b17565b5b6000610b7b84828501610b42565b91505092915050565b600073ffffffffffffffffffffffffffffffffffffffff82169050919050565b6000610baf82610b84565b9050919050565b610bbf81610ba4565b8114610bca57600080fd5b50565b600081359050610bdc81610bb6565b92915050565b600060208284031215610bf857610bf7610b17565b5b6000610c0684828501610bcd565b91505092915050565b60008115159050919050565b610c2481610c0f565b82525050565b6000602082019050610c3f6000830184610c1b565b92915050565b600081519050919050565b600082825260208201905092915050565b60005b83811015610c7f578082015181840152602081019050610c64565b60008484015250505050565b6000601f19601f8301169050919050565b6000610ca782610c45565b610cb18185610c50565b9350610cc1818560208601610c61565b610cca81610c8b565b840191505092915050565b610cde81610b21565b82525050565b610ced81610ba4565b82525050565b600060c0820190508181036000830152610d0d8189610c9c565b9050610d1c6020830188610cd5565b610d296040830187610cd5565b610d366060830186610cd5565b610d436080830185610cd5565b610d5060a0830184610ce4565b979650505050505050565b6000602082019050610d706000830184610cd5565b92915050565b6000602082019050610d8b6000830184610ce4565b92915050565b6000610d9c82610b84565b9050919050565b610dac81610d91565b82525050565b600060a0820190508181036000830152610dcc8188610c9c565b9050610ddb6020830187610cd5565b610de86040830186610da3565b610df56060830185610c1b565b610e026080830184610cd5565b9695505050505050565b60006020820190508181036000830152610e268184610c9c565b905092915050565b600080fd5b600080fd5b7f4e487b7100000000000000000000000000000000000000000000000000000000600052604160045260246000fd5b610e7082610c8b565b810181811067ffffffffffffffff82111715610e8f57610e8e610e38565b5b80604052505050565b6000610ea2610b0d565b9050610eae8282610e67565b919050565b600067ffffffffffffffff821115610ece57610ecd610e38565b5b610ed782610c8b565b9050602081019050919050565b82818337600083830152505050565b6000610f06610f0184610eb3565b610e98565b905082815260208101848484011115610f2257610f21610e33565b5b610f2d848285610ee4565b509392505050565b600082601f830112610f4a57610f49610e2e565b5b8135610f5a848260208601610ef3565b91505092915050565b610f6c81610d91565b8114610f7757600080fd5b50565b600081359050610f8981610f63565b92915050565b600080600060608486031215610fa857610fa7610b17565b5b600084013567ffffffffffffffff811115610fc657610fc5610b1c565b5b610fd286828701610f35565b9350506020610fe386828701610b42565b9250506040610ff486828701610f7a565b9150509250925092565b7f4e487b7100000000000000000000000000000000000000000000000000000000600052603260045260246000fd5b7f4e487b7100000000000000000000000000000000000000000000000000000000600052601260045260246000fd5b7f4e487b7100000000000000000000000000000000000000000000000000000000600052601160045260246000fd5b600061109682610b21565b91506110a183610b21565b9250826110b1576110b061102d565b5b828204905092915050565b7f4e487b7100000000000000000000000000000000000000000000000000000000600052602260045260246000fd5b6000600282049050600182168061110357607f821691505b602082108103611116576111156110bc565b5b50919050565b60008190508160005260206000209050919050565b60006020601f8301049050919050565b600082821b905092915050565b60006008830261117e7fffffffffffffffffffffffffffffffffffffffffffffffffffffffffffffffff82611141565b6111888683611141565b95508019841693508086168417925050509392505050565b6000819050919050565b60006111c56111c06111bb84610b21565b6111a0565b610b21565b9050919050565b6000819050919050565b6111df836111aa565b6111f36111eb826111cc565b84845461114e565b825550505050565b600090565b6112086111fb565b6112138184846111d6565b505050565b5b818110156112375761122c600082611200565b600181019050611219565b5050565b601f82111561127c5761124d8161111c565b61125684611131565b81016020851015611265578190505b61127961127185611131565b830182611218565b50505b505050565b600082821c905092915050565b600061129f60001984600802611281565b1980831691505092915050565b60006112b8838361128e565b9150826002028217905092915050565b6112d182610c45565b67ffffffffffffffff8111156112ea576112e9610e38565b5b6112f482546110eb565b6112ff82828561123b565b600060209050601f8311600181146113325760008415611320578287015190505b61132a85826112ac565b865550611392565b601f1984166113408661111c565b60005b8281101561136857848901518255600182019150602085019450602081019050611343565b868310156113855784890151611381601f89168261128e565b8355505b6001600288020188555050505b505050505050565b60006113a582610b21565b91507fffffffffffffffffffffffffffffffffffffffffffffffffffffffffffffffff82036113d7576113d661105c565b5b60018201905091905056fea2646970667358221220f4c4a960ce0dbeea9d81b0f4fad9929599612431a44f8763032fb449bc4b649064736f6c63430008120033","opcodes":"PUSH1 0x80 PUSH1 0x40 MSTORE CALLVALUE DUP1 ISZERO PUSH3 0x11 JUMPI PUSH1 0x0 DUP1 REVERT JUMPDEST POP PUSH1 0x40 MLOAD PUSH3 0x1A97 CODESIZE SUB DUP1 PUSH3 0x1A97 DUP4 CODECOPY DUP2 DUP2 ADD PUSH1 0x40 MSTORE DUP2 ADD SWAP1 PUSH3 0x37 SWAP2 SWAP1 PUSH3 0x2CC JUMP JUMPDEST DUP2 PUSH1 0x0 DUP1 PUSH2 0x100 EXP DUP2 SLOAD DUP2 PUSH20 0xFFFFFFFFFFFFFFFFFFFFFFFFFFFFFFFFFFFFFFFF MUL NOT AND SWAP1 DUP4 PUSH20 0xFFFFFFFFFFFFFFFFFFFFFFFFFFFFFFFFFFFFFFFF AND MUL OR SWAP1 SSTORE POP DUP1 PUSH1 0x1 SWAP1 DUP2 PUSH3 0x88 SWAP2 SWAP1 PUSH3 0x588 JUMP JUMPDEST POP DUP3 PUSH1 0x2 DUP2 SWAP1 SSTORE POP POP POP POP PUSH3 0x66F JUMP JUMPDEST PUSH1 0x0 PUSH1 0x40 MLOAD SWAP1 POP SWAP1 JUMP JUMPDEST PUSH1 0x0 DUP1 REVERT JUMPDEST PUSH1 0x0 DUP1 REVERT JUMPDEST PUSH1 0x0 DUP2 SWAP1 POP SWAP2 SWAP1 POP JUMP JUMPDEST PUSH3 0xC2 DUP2 PUSH3 0xAD JUMP JUMPDEST DUP2 EQ PUSH3 0xCE JUMPI PUSH1 0x0 DUP1 REVERT JUMPDEST POP JUMP JUMPDEST PUSH1 0x0 DUP2 MLOAD SWAP1 POP PUSH3 0xE2 DUP2 PUSH3 0xB7 JUMP JUMPDEST SWAP3 SWAP2 POP POP JUMP JUMPDEST PUSH1 0x0 PUSH20 0xFFFFFFFFFFFFFFFFFFFFFFFFFFFFFFFFFFFFFFFF DUP3 AND SWAP1 POP SWAP2 SWAP1 POP JUMP JUMPDEST PUSH1 0x0 PUSH3 0x115 DUP3 PUSH3 0xE8 JUMP JUMPDEST SWAP1 POP SWAP2 SWAP1 POP JUMP JUMPDEST PUSH3 0x127 DUP2 PUSH3 0x108 JUMP JUMPDEST DUP2 EQ PUSH3 0x133 JUMPI PUSH1 0x0 DUP1 REVERT JUMPDEST POP JUMP JUMPDEST PUSH1 0x0 DUP2 MLOAD SWAP1 POP PUSH3 0x147 DUP2 PUSH3 0x11C JUMP JUMPDEST SWAP3 SWAP2 POP POP JUMP JUMPDEST PUSH1 0x0 DUP1 REVERT JUMPDEST PUSH1 0x0 DUP1 REVERT JUMPDEST PUSH1 0x0 PUSH1 0x1F NOT PUSH1 0x1F DUP4 ADD AND SWAP1 POP SWAP2 SWAP1 POP JUMP JUMPDEST PUSH32 0x4E487B7100000000000000000000000000000000000000000000000000000000 PUSH1 0x0 MSTORE PUSH1 0x41 PUSH1 0x4 MSTORE PUSH1 0x24 PUSH1 0x0 REVERT JUMPDEST PUSH3 0x1A2 DUP3 PUSH3 0x157 JUMP JUMPDEST DUP2 ADD DUP2 DUP2 LT PUSH8 0xFFFFFFFFFFFFFFFF DUP3 GT OR ISZERO PUSH3 0x1C4 JUMPI PUSH3 0x1C3 PUSH3 0x168 JUMP JUMPDEST JUMPDEST DUP1 PUSH1 0x40 MSTORE POP POP POP JUMP JUMPDEST PUSH1 0x0 PUSH3 0x1D9 PUSH3 0x99 JUMP JUMPDEST SWAP1 POP PUSH3 0x1E7 DUP3 DUP3 PUSH3 0x197 JUMP JUMPDEST SWAP2 SWAP1 POP JUMP JUMPDEST PUSH1 0x0 PUSH8 0xFFFFFFFFFFFFFFFF DUP3 GT ISZERO PUSH3 0x20A JUMPI PUSH3 0x209 PUSH3 0x168 JUMP JUMPDEST JUMPDEST PUSH3 0x215 DUP3 PUSH3 0x157 JUMP JUMPDEST SWAP1 POP PUSH1 0x20 DUP2 ADD SWAP1 POP SWAP2 SWAP1 POP JUMP JUMPDEST PUSH1 0x0 JUMPDEST DUP4 DUP2 LT ISZERO PUSH3 0x242 JUMPI DUP1 DUP3 ADD MLOAD DUP2 DUP5 ADD MSTORE PUSH1 0x20 DUP2 ADD SWAP1 POP PUSH3 0x225 JUMP JUMPDEST PUSH1 0x0 DUP5 DUP5 ADD MSTORE POP POP POP POP JUMP JUMPDEST PUSH1 0x0 PUSH3 0x265 PUSH3 0x25F DUP5 PUSH3 0x1EC JUMP JUMPDEST PUSH3 0x1CD JUMP JUMPDEST SWAP1 POP DUP3 DUP2 MSTORE PUSH1 0x20 DUP2 ADD DUP5 DUP5 DUP5 ADD GT ISZERO PUSH3 0x284 JUMPI PUSH3 0x283 PUSH3 0x152 JUMP JUMPDEST JUMPDEST PUSH3 0x291 DUP5 DUP3 DUP6 PUSH3 0x222 JUMP JUMPDEST POP SWAP4 SWAP3 POP POP POP JUMP JUMPDEST PUSH1 0x0 DUP3 PUSH1 0x1F DUP4 ADD SLT PUSH3 0x2B1 JUMPI PUSH3 0x2B0 PUSH3 0x14D JUMP JUMPDEST JUMPDEST DUP2 MLOAD PUSH3 0x2C3 DUP5 DUP3 PUSH1 0x20 DUP7 ADD PUSH3 0x24E JUMP JUMPDEST SWAP2 POP POP SWAP3 SWAP2 POP POP JUMP JUMPDEST PUSH1 0x0 DUP1 PUSH1 0x0 PUSH1 0x60 DUP5 DUP7 SUB SLT ISZERO PUSH3 0x2E8 JUMPI PUSH3 0x2E7 PUSH3 0xA3 JUMP JUMPDEST JUMPDEST PUSH1 0x0 PUSH3 0x2F8 DUP7 DUP3 DUP8 ADD PUSH3 0xD1 JUMP JUMPDEST SWAP4 POP POP PUSH1 0x20 PUSH3 0x30B DUP7 DUP3 DUP8 ADD PUSH3 0x136 JUMP JUMPDEST SWAP3 POP POP PUSH1 0x40 DUP5 ADD MLOAD PUSH8 0xFFFFFFFFFFFFFFFF DUP2 GT ISZERO PUSH3 0x32F JUMPI PUSH3 0x32E PUSH3 0xA8 JUMP JUMPDEST JUMPDEST PUSH3 0x33D DUP7 DUP3 DUP8 ADD PUSH3 0x299 JUMP JUMPDEST SWAP2 POP POP SWAP3 POP SWAP3 POP SWAP3 JUMP JUMPDEST PUSH1 0x0 DUP2 MLOAD SWAP1 POP SWAP2 SWAP1 POP JUMP JUMPDEST PUSH32 0x4E487B7100000000000000000000000000000000000000000000000000000000 PUSH1 0x0 MSTORE PUSH1 0x22 PUSH1 0x4 MSTORE PUSH1 0x24 PUSH1 0x0 REVERT JUMPDEST PUSH1 0x0 PUSH1 0x2 DUP3 DIV SWAP1 POP PUSH1 0x1 DUP3 AND DUP1 PUSH3 0x39A JUMPI PUSH1 0x7F DUP3 AND SWAP2 POP JUMPDEST PUSH1 0x20 DUP3 LT DUP2 SUB PUSH3 0x3B0 JUMPI PUSH3 0x3AF PUSH3 0x352 JUMP JUMPDEST JUMPDEST POP SWAP2 SWAP1 POP JUMP JUMPDEST PUSH1 0x0 DUP2 SWAP1 POP DUP2 PUSH1 0x0 MSTORE PUSH1 0x20 PUSH1 0x0 KECCAK256 SWAP1 POP SWAP2 SWAP1 POP JUMP JUMPDEST PUSH1 0x0 PUSH1 0x20 PUSH1 0x1F DUP4 ADD DIV SWAP1 POP SWAP2 SWAP1 POP JUMP JUMPDEST PUSH1 0x0 DUP3 DUP3 SHL SWAP1 POP SWAP3 SWAP2 POP POP JUMP JUMPDEST PUSH1 0x0 PUSH1 0x8 DUP4 MUL PUSH3 0x41A PUSH32 0xFFFFFFFFFFFFFFFFFFFFFFFFFFFFFFFFFFFFFFFFFFFFFFFFFFFFFFFFFFFFFFFF DUP3 PUSH3 0x3DB JUMP JUMPDEST PUSH3 0x426 DUP7 DUP4 PUSH3 0x3DB JUMP JUMPDEST SWAP6 POP DUP1 NOT DUP5 AND SWAP4 POP DUP1 DUP7 AND DUP5 OR SWAP3 POP POP POP SWAP4 SWAP3 POP POP POP JUMP JUMPDEST PUSH1 0x0 DUP2 SWAP1 POP SWAP2 SWAP1 POP JUMP JUMPDEST PUSH1 0x0 PUSH3 0x469 PUSH3 0x463 PUSH3 0x45D DUP5 PUSH3 0xAD JUMP JUMPDEST PUSH3 0x43E JUMP JUMPDEST PUSH3 0xAD JUMP JUMPDEST SWAP1 POP SWAP2 SWAP1 POP JUMP JUMPDEST PUSH1 0x0 DUP2 SWAP1 POP SWAP2 SWAP1 POP JUMP JUMPDEST PUSH3 0x485 DUP4 PUSH3 0x448 JUMP JUMPDEST PUSH3 0x49D PUSH3 0x494 DUP3 PUSH3 0x470 JUMP JUMPDEST DUP5 DUP5 SLOAD PUSH3 0x3E8 JUMP JUMPDEST DUP3 SSTORE POP POP POP POP JUMP JUMPDEST PUSH1 0x0 SWAP1 JUMP JUMPDEST PUSH3 0x4B4 PUSH3 0x4A5 JUMP JUMPDEST PUSH3 0x4C1 DUP2 DUP5 DUP5 PUSH3 0x47A JUMP JUMPDEST POP POP POP JUMP JUMPDEST JUMPDEST DUP2 DUP2 LT ISZERO PUSH3 0x4E9 JUMPI PUSH3 0x4DD PUSH1 0x0 DUP3 PUSH3 0x4AA JUMP JUMPDEST PUSH1 0x1 DUP2 ADD SWAP1 POP PUSH3 0x4C7 JUMP JUMPDEST POP POP JUMP JUMPDEST PUSH1 0x1F DUP3 GT ISZERO PUSH3 0x538 JUMPI PUSH3 0x502 DUP2 PUSH3 0x3B6 JUMP JUMPDEST PUSH3 0x50D DUP5 PUSH3 0x3CB JUMP JUMPDEST DUP2 ADD PUSH1 0x20 DUP6 LT ISZERO PUSH3 0x51D JUMPI DUP2 SWAP1 POP JUMPDEST PUSH3 0x535 PUSH3 0x52C DUP6 PUSH3 0x3CB JUMP JUMPDEST DUP4 ADD DUP3 PUSH3 0x4C6 JUMP JUMPDEST POP POP JUMPDEST POP POP POP JUMP JUMPDEST PUSH1 0x0 DUP3 DUP3 SHR SWAP1 POP SWAP3 SWAP2 POP POP JUMP JUMPDEST PUSH1 0x0 PUSH3 0x55D PUSH1 0x0 NOT DUP5 PUSH1 0x8 MUL PUSH3 0x53D JUMP JUMPDEST NOT DUP1 DUP4 AND SWAP2 POP POP SWAP3 SWAP2 POP POP JUMP JUMPDEST PUSH1 0x0 PUSH3 0x578 DUP4 DUP4 PUSH3 0x54A JUMP JUMPDEST SWAP2 POP DUP3 PUSH1 0x2 MUL DUP3 OR SWAP1 POP SWAP3 SWAP2 POP POP JUMP JUMPDEST PUSH3 0x593 DUP3 PUSH3 0x347 JUMP JUMPDEST PUSH8 0xFFFFFFFFFFFFFFFF DUP2 GT ISZERO PUSH3 0x5AF JUMPI PUSH3 0x5AE PUSH3 0x168 JUMP JUMPDEST JUMPDEST PUSH3 0x5BB DUP3 SLOAD PUSH3 0x381 JUMP JUMPDEST PUSH3 0x5C8 DUP3 DUP3 DUP6 PUSH3 0x4ED JUMP JUMPDEST PUSH1 0x0 PUSH1 0x20 SWAP1 POP PUSH1 0x1F DUP4 GT PUSH1 0x1 DUP2 EQ PUSH3 0x600 JUMPI PUSH1 0x0 DUP5 ISZERO PUSH3 0x5EB JUMPI DUP3 DUP8 ADD MLOAD SWAP1 POP JUMPDEST PUSH3 0x5F7 DUP6 DUP3 PUSH3 0x56A JUMP JUMPDEST DUP7 SSTORE POP PUSH3 0x667 JUMP JUMPDEST PUSH1 0x1F NOT DUP5 AND PUSH3 0x610 DUP7 PUSH3 0x3B6 JUMP JUMPDEST PUSH1 0x0 JUMPDEST DUP3 DUP2 LT ISZERO PUSH3 0x63A JUMPI DUP5 DUP10 ADD MLOAD DUP3 SSTORE PUSH1 0x1 DUP3 ADD SWAP2 POP PUSH1 0x20 DUP6 ADD SWAP5 POP PUSH1 0x20 DUP2 ADD SWAP1 POP PUSH3 0x613 JUMP JUMPDEST DUP7 DUP4 LT ISZERO PUSH3 0x65A JUMPI DUP5 DUP10 ADD MLOAD PUSH3 0x656 PUSH1 0x1F DUP10 AND DUP3 PUSH3 0x54A JUMP JUMPDEST DUP4 SSTORE POP JUMPDEST PUSH1 0x1 PUSH1 0x2 DUP9 MUL ADD DUP9 SSTORE POP POP POP JUMPDEST POP POP POP POP POP POP JUMP JUMPDEST PUSH2 0x1418 DUP1 PUSH3 0x67F PUSH1 0x0 CODECOPY PUSH1 0x0 RETURN INVALID PUSH1 0x80 PUSH1 0x40 MSTORE PUSH1 0x4 CALLDATASIZE LT PUSH2 0xC2 JUMPI PUSH1 0x0 CALLDATALOAD PUSH1 0xE0 SHR DUP1 PUSH4 0x81D12C58 GT PUSH2 0x7F JUMPI DUP1 PUSH4 0x8A9CFD55 GT PUSH2 0x59 JUMPI DUP1 PUSH4 0x8A9CFD55 EQ PUSH2 0x287 JUMPI DUP1 PUSH4 0x937E09B1 EQ PUSH2 0x2B0 JUMPI DUP1 PUSH4 0xD7BB99BA EQ PUSH2 0x2DB JUMPI DUP1 PUSH4 0xD7D1BBDB EQ PUSH2 0x2E5 JUMPI PUSH2 0xC2 JUMP JUMPDEST DUP1 PUSH4 0x81D12C58 EQ PUSH2 0x1F0 JUMPI DUP1 PUSH4 0x82FDE093 EQ PUSH2 0x231 JUMPI DUP1 PUSH4 0x835A6172 EQ PUSH2 0x25C JUMPI PUSH2 0xC2 JUMP JUMPDEST DUP1 PUSH4 0x3441006 EQ PUSH2 0xC7 JUMPI DUP1 PUSH4 0xA144391 EQ PUSH2 0xF0 JUMPI DUP1 PUSH4 0xC611F24 EQ PUSH2 0x12D JUMPI DUP1 PUSH4 0x3410452A EQ PUSH2 0x15D JUMPI DUP1 PUSH4 0x481C6A75 EQ PUSH2 0x188 JUMPI DUP1 PUSH4 0x49367252 EQ PUSH2 0x1B3 JUMPI JUMPDEST PUSH1 0x0 DUP1 REVERT JUMPDEST CALLVALUE DUP1 ISZERO PUSH2 0xD3 JUMPI PUSH1 0x0 DUP1 REVERT JUMPDEST POP PUSH2 0xEE PUSH1 0x4 DUP1 CALLDATASIZE SUB DUP2 ADD SWAP1 PUSH2 0xE9 SWAP2 SWAP1 PUSH2 0xB57 JUMP JUMPDEST PUSH2 0x30E JUMP JUMPDEST STOP JUMPDEST CALLVALUE DUP1 ISZERO PUSH2 0xFC JUMPI PUSH1 0x0 DUP1 REVERT JUMPDEST POP PUSH2 0x117 PUSH1 0x4 DUP1 CALLDATASIZE SUB DUP2 ADD SWAP1 PUSH2 0x112 SWAP2 SWAP1 PUSH2 0xBE2 JUMP JUMPDEST PUSH2 0x456 JUMP JUMPDEST PUSH1 0x40 MLOAD PUSH2 0x124 SWAP2 SWAP1 PUSH2 0xC2A JUMP JUMPDEST PUSH1 0x40 MLOAD DUP1 SWAP2 SUB SWAP1 RETURN JUMPDEST CALLVALUE DUP1 ISZERO PUSH2 0x139 JUMPI PUSH1 0x0 DUP1 REVERT JUMPDEST POP PUSH2 0x142 PUSH2 0x476 JUMP JUMPDEST PUSH1 0x40 MLOAD PUSH2 0x154 SWAP7 SWAP6 SWAP5 SWAP4 SWAP3 SWAP2 SWAP1 PUSH2 0xCF3 JUMP JUMPDEST PUSH1 0x40 MLOAD DUP1 SWAP2 SUB SWAP1 RETURN JUMPDEST CALLVALUE DUP1 ISZERO PUSH2 0x169 JUMPI PUSH1 0x0 DUP1 REVERT JUMPDEST POP PUSH2 0x172 PUSH2 0x550 JUMP JUMPDEST PUSH1 0x40 MLOAD PUSH2 0x17F SWAP2 SWAP1 PUSH2 0xD5B JUMP JUMPDEST PUSH1 0x40 MLOAD DUP1 SWAP2 SUB SWAP1 RETURN JUMPDEST CALLVALUE DUP1 ISZERO PUSH2 0x194 JUMPI PUSH1 0x0 DUP1 REVERT JUMPDEST POP PUSH2 0x19D PUSH2 0x55D JUMP JUMPDEST PUSH1 0x40 MLOAD PUSH2 0x1AA SWAP2 SWAP1 PUSH2 0xD76 JUMP JUMPDEST PUSH1 0x40 MLOAD DUP1 SWAP2 SUB SWAP1 RETURN JUMPDEST CALLVALUE DUP1 ISZERO PUSH2 0x1BF JUMPI PUSH1 0x0 DUP1 REVERT JUMPDEST POP PUSH2 0x1DA PUSH1 0x4 DUP1 CALLDATASIZE SUB DUP2 ADD SWAP1 PUSH2 0x1D5 SWAP2 SWAP1 PUSH2 0xB57 JUMP JUMPDEST PUSH2 0x581 JUMP JUMPDEST PUSH1 0x40 MLOAD PUSH2 0x1E7 SWAP2 SWAP1 PUSH2 0xC2A JUMP JUMPDEST PUSH1 0x40 MLOAD DUP1 SWAP2 SUB SWAP1 RETURN JUMPDEST CALLVALUE DUP1 ISZERO PUSH2 0x1FC JUMPI PUSH1 0x0 DUP1 REVERT JUMPDEST POP PUSH2 0x217 PUSH1 0x4 DUP1 CALLDATASIZE SUB DUP2 ADD SWAP1 PUSH2 0x212 SWAP2 SWAP1 PUSH2 0xB57 JUMP JUMPDEST PUSH2 0x5FA JUMP JUMPDEST PUSH1 0x40 MLOAD PUSH2 0x228 SWAP6 SWAP5 SWAP4 SWAP3 SWAP2 SWAP1 PUSH2 0xDB2 JUMP JUMPDEST PUSH1 0x40 MLOAD DUP1 SWAP2 SUB SWAP1 RETURN JUMPDEST CALLVALUE DUP1 ISZERO PUSH2 0x23D JUMPI PUSH1 0x0 DUP1 REVERT JUMPDEST POP PUSH2 0x246 PUSH2 0x6F5 JUMP JUMPDEST PUSH1 0x40 MLOAD PUSH2 0x253 SWAP2 SWAP1 PUSH2 0xD5B JUMP JUMPDEST PUSH1 0x40 MLOAD DUP1 SWAP2 SUB SWAP1 RETURN JUMPDEST CALLVALUE DUP1 ISZERO PUSH2 0x268 JUMPI PUSH1 0x0 DUP1 REVERT JUMPDEST POP PUSH2 0x271 PUSH2 0x6FB JUMP JUMPDEST PUSH1 0x40 MLOAD PUSH2 0x27E SWAP2 SWAP1 PUSH2 0xE0C JUMP JUMPDEST PUSH1 0x40 MLOAD DUP1 SWAP2 SUB SWAP1 RETURN JUMPDEST CALLVALUE DUP1 ISZERO PUSH2 0x293 JUMPI PUSH1 0x0 DUP1 REVERT JUMPDEST POP PUSH2 0x2AE PUSH1 0x4 DUP1 CALLDATASIZE SUB DUP2 ADD SWAP1 PUSH2 0x2A9 SWAP2 SWAP1 PUSH2 0xF8F JUMP JUMPDEST PUSH2 0x789 JUMP JUMPDEST STOP JUMPDEST CALLVALUE DUP1 ISZERO PUSH2 0x2BC JUMPI PUSH1 0x0 DUP1 REVERT JUMPDEST POP PUSH2 0x2C5 PUSH2 0x93A JUMP JUMPDEST PUSH1 0x40 MLOAD PUSH2 0x2D2 SWAP2 SWAP1 PUSH2 0xD5B JUMP JUMPDEST PUSH1 0x40 MLOAD DUP1 SWAP2 SUB SWAP1 RETURN JUMPDEST PUSH2 0x2E3 PUSH2 0x940 JUMP JUMPDEST STOP JUMPDEST CALLVALUE DUP1 ISZERO PUSH2 0x2F1 JUMPI PUSH1 0x0 DUP1 REVERT JUMPDEST POP PUSH2 0x30C PUSH1 0x4 DUP1 CALLDATASIZE SUB DUP2 ADD SWAP1 PUSH2 0x307 SWAP2 SWAP1 PUSH2 0xB57 JUMP JUMPDEST PUSH2 0x9C0 JUMP JUMPDEST STOP JUMPDEST PUSH1 0x0 DUP1 SLOAD SWAP1 PUSH2 0x100 EXP SWAP1 DIV PUSH20 0xFFFFFFFFFFFFFFFFFFFFFFFFFFFFFFFFFFFFFFFF AND PUSH20 0xFFFFFFFFFFFFFFFFFFFFFFFFFFFFFFFFFFFFFFFF AND CALLER PUSH20 0xFFFFFFFFFFFFFFFFFFFFFFFFFFFFFFFFFFFFFFFF AND EQ PUSH2 0x366 JUMPI PUSH1 0x0 DUP1 REVERT JUMPDEST PUSH1 0x0 PUSH1 0x4 DUP3 DUP2 SLOAD DUP2 LT PUSH2 0x37C JUMPI PUSH2 0x37B PUSH2 0xFFE JUMP JUMPDEST JUMPDEST SWAP1 PUSH1 0x0 MSTORE PUSH1 0x20 PUSH1 0x0 KECCAK256 SWAP1 PUSH1 0x5 MUL ADD SWAP1 POP PUSH1 0x2 PUSH1 0x5 SLOAD PUSH2 0x39B SWAP2 SWAP1 PUSH2 0x108B JUMP JUMPDEST DUP2 PUSH1 0x3 ADD SLOAD GT PUSH2 0x3AA JUMPI PUSH1 0x0 DUP1 REVERT JUMPDEST DUP1 PUSH1 0x2 ADD PUSH1 0x14 SWAP1 SLOAD SWAP1 PUSH2 0x100 EXP SWAP1 DIV PUSH1 0xFF AND ISZERO PUSH2 0x3C6 JUMPI PUSH1 0x0 DUP1 REVERT JUMPDEST DUP1 PUSH1 0x2 ADD PUSH1 0x0 SWAP1 SLOAD SWAP1 PUSH2 0x100 EXP SWAP1 DIV PUSH20 0xFFFFFFFFFFFFFFFFFFFFFFFFFFFFFFFFFFFFFFFF AND PUSH20 0xFFFFFFFFFFFFFFFFFFFFFFFFFFFFFFFFFFFFFFFF AND PUSH2 0x8FC DUP3 PUSH1 0x1 ADD SLOAD SWAP1 DUP2 ISZERO MUL SWAP1 PUSH1 0x40 MLOAD PUSH1 0x0 PUSH1 0x40 MLOAD DUP1 DUP4 SUB DUP2 DUP6 DUP9 DUP9 CALL SWAP4 POP POP POP POP ISZERO DUP1 ISZERO PUSH2 0x434 JUMPI RETURNDATASIZE PUSH1 0x0 DUP1 RETURNDATACOPY RETURNDATASIZE PUSH1 0x0 REVERT JUMPDEST POP PUSH1 0x1 DUP2 PUSH1 0x2 ADD PUSH1 0x14 PUSH2 0x100 EXP DUP2 SLOAD DUP2 PUSH1 0xFF MUL NOT AND SWAP1 DUP4 ISZERO ISZERO MUL OR SWAP1 SSTORE POP POP POP JUMP JUMPDEST PUSH1 0x3 PUSH1 0x20 MSTORE DUP1 PUSH1 0x0 MSTORE PUSH1 0x40 PUSH1 0x0 KECCAK256 PUSH1 0x0 SWAP2 POP SLOAD SWAP1 PUSH2 0x100 EXP SWAP1 DIV PUSH1 0xFF AND DUP2 JUMP JUMPDEST PUSH1 0x60 PUSH1 0x0 DUP1 PUSH1 0x0 DUP1 PUSH1 0x0 PUSH1 0x1 PUSH1 0x2 SLOAD SELFBALANCE PUSH1 0x4 DUP1 SLOAD SWAP1 POP PUSH1 0x5 SLOAD PUSH1 0x0 DUP1 SLOAD SWAP1 PUSH2 0x100 EXP SWAP1 DIV PUSH20 0xFFFFFFFFFFFFFFFFFFFFFFFFFFFFFFFFFFFFFFFF AND DUP6 DUP1 SLOAD PUSH2 0x4BC SWAP1 PUSH2 0x10EB JUMP JUMPDEST DUP1 PUSH1 0x1F ADD PUSH1 0x20 DUP1 SWAP2 DIV MUL PUSH1 0x20 ADD PUSH1 0x40 MLOAD SWAP1 DUP2 ADD PUSH1 0x40 MSTORE DUP1 SWAP3 SWAP2 SWAP1 DUP2 DUP2 MSTORE PUSH1 0x20 ADD DUP3 DUP1 SLOAD PUSH2 0x4E8 SWAP1 PUSH2 0x10EB JUMP JUMPDEST DUP1 ISZERO PUSH2 0x535 JUMPI DUP1 PUSH1 0x1F LT PUSH2 0x50A JUMPI PUSH2 0x100 DUP1 DUP4 SLOAD DIV MUL DUP4 MSTORE SWAP2 PUSH1 0x20 ADD SWAP2 PUSH2 0x535 JUMP JUMPDEST DUP3 ADD SWAP2 SWAP1 PUSH1 0x0 MSTORE PUSH1 0x20 PUSH1 0x0 KECCAK256 SWAP1 JUMPDEST DUP2 SLOAD DUP2 MSTORE SWAP1 PUSH1 0x1 ADD SWAP1 PUSH1 0x20 ADD DUP1 DUP4 GT PUSH2 0x518 JUMPI DUP3 SWAP1 SUB PUSH1 0x1F AND DUP3 ADD SWAP2 JUMPDEST POP POP POP POP POP SWAP6 POP SWAP6 POP SWAP6 POP SWAP6 POP SWAP6 POP SWAP6 POP SWAP6 POP SWAP1 SWAP2 SWAP3 SWAP4 SWAP5 SWAP6 JUMP JUMPDEST PUSH1 0x0 PUSH1 0x4 DUP1 SLOAD SWAP1 POP SWAP1 POP SWAP1 JUMP JUMPDEST PUSH1 0x0 DUP1 SLOAD SWAP1 PUSH2 0x100 EXP SWAP1 DIV PUSH20 0xFFFFFFFFFFFFFFFFFFFFFFFFFFFFFFFFFFFFFFFF AND DUP2 JUMP JUMPDEST PUSH1 0x0 PUSH1 0x4 DUP3 DUP2 SLOAD DUP2 LT PUSH2 0x597 JUMPI PUSH2 0x596 PUSH2 0xFFE JUMP JUMPDEST JUMPDEST SWAP1 PUSH1 0x0 MSTORE PUSH1 0x20 PUSH1 0x0 KECCAK256 SWAP1 PUSH1 0x5 MUL ADD PUSH1 0x4 ADD PUSH1 0x0 CALLER PUSH20 0xFFFFFFFFFFFFFFFFFFFFFFFFFFFFFFFFFFFFFFFF AND PUSH20 0xFFFFFFFFFFFFFFFFFFFFFFFFFFFFFFFFFFFFFFFF AND DUP2 MSTORE PUSH1 0x20 ADD SWAP1 DUP2 MSTORE PUSH1 0x20 ADD PUSH1 0x0 KECCAK256 PUSH1 0x0 SWAP1 SLOAD SWAP1 PUSH2 0x100 EXP SWAP1 DIV PUSH1 0xFF AND SWAP1 POP SWAP2 SWAP1 POP JUMP JUMPDEST PUSH1 0x4 DUP2 DUP2 SLOAD DUP2 LT PUSH2 0x60A JUMPI PUSH1 0x0 DUP1 REVERT JUMPDEST SWAP1 PUSH1 0x0 MSTORE PUSH1 0x20 PUSH1 0x0 KECCAK256 SWAP1 PUSH1 0x5 MUL ADD PUSH1 0x0 SWAP2 POP SWAP1 POP DUP1 PUSH1 0x0 ADD DUP1 SLOAD PUSH2 0x62D SWAP1 PUSH2 0x10EB JUMP JUMPDEST DUP1 PUSH1 0x1F ADD PUSH1 0x20 DUP1 SWAP2 DIV MUL PUSH1 0x20 ADD PUSH1 0x40 MLOAD SWAP1 DUP2 ADD PUSH1 0x40 MSTORE DUP1 SWAP3 SWAP2 SWAP1 DUP2 DUP2 MSTORE PUSH1 0x20 ADD DUP3 DUP1 SLOAD PUSH2 0x659 SWAP1 PUSH2 0x10EB JUMP JUMPDEST DUP1 ISZERO PUSH2 0x6A6 JUMPI DUP1 PUSH1 0x1F LT PUSH2 0x67B JUMPI PUSH2 0x100 DUP1 DUP4 SLOAD DIV MUL DUP4 MSTORE SWAP2 PUSH1 0x20 ADD SWAP2 PUSH2 0x6A6 JUMP JUMPDEST DUP3 ADD SWAP2 SWAP1 PUSH1 0x0 MSTORE PUSH1 0x20 PUSH1 0x0 KECCAK256 SWAP1 JUMPDEST DUP2 SLOAD DUP2 MSTORE SWAP1 PUSH1 0x1 ADD SWAP1 PUSH1 0x20 ADD DUP1 DUP4 GT PUSH2 0x689 JUMPI DUP3 SWAP1 SUB PUSH1 0x1F AND DUP3 ADD SWAP2 JUMPDEST POP POP POP POP POP SWAP1 DUP1 PUSH1 0x1 ADD SLOAD SWAP1 DUP1 PUSH1 0x2 ADD PUSH1 0x0 SWAP1 SLOAD SWAP1 PUSH2 0x100 EXP SWAP1 DIV PUSH20 0xFFFFFFFFFFFFFFFFFFFFFFFFFFFFFFFFFFFFFFFF AND SWAP1 DUP1 PUSH1 0x2 ADD PUSH1 0x14 SWAP1 SLOAD SWAP1 PUSH2 0x100 EXP SWAP1 DIV PUSH1 0xFF AND SWAP1 DUP1 PUSH1 0x3 ADD SLOAD SWAP1 POP DUP6 JUMP JUMPDEST PUSH1 0x5 SLOAD DUP2 JUMP JUMPDEST PUSH1 0x1 DUP1 SLOAD PUSH2 0x708 SWAP1 PUSH2 0x10EB JUMP JUMPDEST DUP1 PUSH1 0x1F ADD PUSH1 0x20 DUP1 SWAP2 DIV MUL PUSH1 0x20 ADD PUSH1 0x40 MLOAD SWAP1 DUP2 ADD PUSH1 0x40 MSTORE DUP1 SWAP3 SWAP2 SWAP1 DUP2 DUP2 MSTORE PUSH1 0x20 ADD DUP3 DUP1 SLOAD PUSH2 0x734 SWAP1 PUSH2 0x10EB JUMP JUMPDEST DUP1 ISZERO PUSH2 0x781 JUMPI DUP1 PUSH1 0x1F LT PUSH2 0x756 JUMPI PUSH2 0x100 DUP1 DUP4 SLOAD DIV MUL DUP4 MSTORE SWAP2 PUSH1 0x20 ADD SWAP2 PUSH2 0x781 JUMP JUMPDEST DUP3 ADD SWAP2 SWAP1 PUSH1 0x0 MSTORE PUSH1 0x20 PUSH1 0x0 KECCAK256 SWAP1 JUMPDEST DUP2 SLOAD DUP2 MSTORE SWAP1 PUSH1 0x1 ADD SWAP1 PUSH1 0x20 ADD DUP1 DUP4 GT PUSH2 0x764 JUMPI DUP3 SWAP1 SUB PUSH1 0x1F AND DUP3 ADD SWAP2 JUMPDEST POP POP POP POP POP DUP2 JUMP JUMPDEST PUSH1 0x0 DUP1 SLOAD SWAP1 PUSH2 0x100 EXP SWAP1 DIV PUSH20 0xFFFFFFFFFFFFFFFFFFFFFFFFFFFFFFFFFFFFFFFF AND PUSH20 0xFFFFFFFFFFFFFFFFFFFFFFFFFFFFFFFFFFFFFFFF AND CALLER PUSH20 0xFFFFFFFFFFFFFFFFFFFFFFFFFFFFFFFFFFFFFFFF AND EQ PUSH2 0x7E1 JUMPI PUSH1 0x0 DUP1 REVERT JUMPDEST PUSH1 0x0 PUSH1 0x4 DUP1 SLOAD SWAP1 POP SWAP1 POP PUSH1 0x0 PUSH1 0x4 SWAP1 POP DUP1 PUSH1 0x1 DUP2 PUSH1 0x1 DUP2 SLOAD ADD DUP1 DUP3 SSTORE DUP1 SWAP2 POP POP SUB SWAP1 PUSH1 0x0 MSTORE PUSH1 0x20 PUSH1 0x0 KECCAK256 SWAP1 POP POP DUP5 DUP2 DUP4 DUP2 SLOAD DUP2 LT PUSH2 0x822 JUMPI PUSH2 0x821 PUSH2 0xFFE JUMP JUMPDEST JUMPDEST SWAP1 PUSH1 0x0 MSTORE PUSH1 0x20 PUSH1 0x0 KECCAK256 SWAP1 PUSH1 0x5 MUL ADD PUSH1 0x0 ADD SWAP1 DUP2 PUSH2 0x83F SWAP2 SWAP1 PUSH2 0x12C8 JUMP JUMPDEST POP DUP4 DUP2 DUP4 DUP2 SLOAD DUP2 LT PUSH2 0x854 JUMPI PUSH2 0x853 PUSH2 0xFFE JUMP JUMPDEST JUMPDEST SWAP1 PUSH1 0x0 MSTORE PUSH1 0x20 PUSH1 0x0 KECCAK256 SWAP1 PUSH1 0x5 MUL ADD PUSH1 0x1 ADD DUP2 SWAP1 SSTORE POP DUP3 DUP2 DUP4 DUP2 SLOAD DUP2 LT PUSH2 0x87D JUMPI PUSH2 0x87C PUSH2 0xFFE JUMP JUMPDEST JUMPDEST SWAP1 PUSH1 0x0 MSTORE PUSH1 0x20 PUSH1 0x0 KECCAK256 SWAP1 PUSH1 0x5 MUL ADD PUSH1 0x2 ADD PUSH1 0x0 PUSH2 0x100 EXP DUP2 SLOAD DUP2 PUSH20 0xFFFFFFFFFFFFFFFFFFFFFFFFFFFFFFFFFFFFFFFF MUL NOT AND SWAP1 DUP4 PUSH20 0xFFFFFFFFFFFFFFFFFFFFFFFFFFFFFFFFFFFFFFFF AND MUL OR SWAP1 SSTORE POP PUSH1 0x0 DUP2 DUP4 DUP2 SLOAD DUP2 LT PUSH2 0x8E1 JUMPI PUSH2 0x8E0 PUSH2 0xFFE JUMP JUMPDEST JUMPDEST SWAP1 PUSH1 0x0 MSTORE PUSH1 0x20 PUSH1 0x0 KECCAK256 SWAP1 PUSH1 0x5 MUL ADD PUSH1 0x2 ADD PUSH1 0x14 PUSH2 0x100 EXP DUP2 SLOAD DUP2 PUSH1 0xFF MUL NOT AND SWAP1 DUP4 ISZERO ISZERO MUL OR SWAP1 SSTORE POP PUSH1 0x0 DUP2 DUP4 DUP2 SLOAD DUP2 LT PUSH2 0x91E JUMPI PUSH2 0x91D PUSH2 0xFFE JUMP JUMPDEST JUMPDEST SWAP1 PUSH1 0x0 MSTORE PUSH1 0x20 PUSH1 0x0 KECCAK256 SWAP1 PUSH1 0x5 MUL ADD PUSH1 0x3 ADD DUP2 SWAP1 SSTORE POP POP POP POP POP POP JUMP JUMPDEST PUSH1 0x2 SLOAD DUP2 JUMP JUMPDEST PUSH1 0x2 SLOAD CALLVALUE GT PUSH2 0x94E JUMPI PUSH1 0x0 DUP1 REVERT JUMPDEST PUSH1 0x1 PUSH1 0x3 PUSH1 0x0 CALLER PUSH20 0xFFFFFFFFFFFFFFFFFFFFFFFFFFFFFFFFFFFFFFFF AND PUSH20 0xFFFFFFFFFFFFFFFFFFFFFFFFFFFFFFFFFFFFFFFF AND DUP2 MSTORE PUSH1 0x20 ADD SWAP1 DUP2 MSTORE PUSH1 0x20 ADD PUSH1 0x0 KECCAK256 PUSH1 0x0 PUSH2 0x100 EXP DUP2 SLOAD DUP2 PUSH1 0xFF MUL NOT AND SWAP1 DUP4 ISZERO ISZERO MUL OR SWAP1 SSTORE POP PUSH1 0x5 PUSH1 0x0 DUP2 SLOAD DUP1 SWAP3 SWAP2 SWAP1 PUSH2 0x9B9 SWAP1 PUSH2 0x139A JUMP JUMPDEST SWAP2 SWAP1 POP SSTORE POP JUMP JUMPDEST PUSH1 0x0 PUSH1 0x4 DUP3 DUP2 SLOAD DUP2 LT PUSH2 0x9D6 JUMPI PUSH2 0x9D5 PUSH2 0xFFE JUMP JUMPDEST JUMPDEST SWAP1 PUSH1 0x0 MSTORE PUSH1 0x20 PUSH1 0x0 KECCAK256 SWAP1 PUSH1 0x5 MUL ADD SWAP1 POP PUSH1 0x3 PUSH1 0x0 CALLER PUSH20 0xFFFFFFFFFFFFFFFFFFFFFFFFFFFFFFFFFFFFFFFF AND PUSH20 0xFFFFFFFFFFFFFFFFFFFFFFFFFFFFFFFFFFFFFFFF AND DUP2 MSTORE PUSH1 0x20 ADD SWAP1 DUP2 MSTORE PUSH1 0x20 ADD PUSH1 0x0 KECCAK256 PUSH1 0x0 SWAP1 SLOAD SWAP1 PUSH2 0x100 EXP SWAP1 DIV PUSH1 0xFF AND PUSH2 0xA3C JUMPI PUSH1 0x0 DUP1 REVERT JUMPDEST DUP1 PUSH1 0x4 ADD PUSH1 0x0 CALLER PUSH20 0xFFFFFFFFFFFFFFFFFFFFFFFFFFFFFFFFFFFFFFFF AND PUSH20 0xFFFFFFFFFFFFFFFFFFFFFFFFFFFFFFFFFFFFFFFF AND DUP2 MSTORE PUSH1 0x20 ADD SWAP1 DUP2 MSTORE PUSH1 0x20 ADD PUSH1 0x0 KECCAK256 PUSH1 0x0 SWAP1 SLOAD SWAP1 PUSH2 0x100 EXP SWAP1 DIV PUSH1 0xFF AND ISZERO PUSH2 0xA95 JUMPI PUSH1 0x0 DUP1 REVERT JUMPDEST PUSH1 0x1 DUP2 PUSH1 0x4 ADD PUSH1 0x0 CALLER PUSH20 0xFFFFFFFFFFFFFFFFFFFFFFFFFFFFFFFFFFFFFFFF AND PUSH20 0xFFFFFFFFFFFFFFFFFFFFFFFFFFFFFFFFFFFFFFFF AND DUP2 MSTORE PUSH1 0x20 ADD SWAP1 DUP2 MSTORE PUSH1 0x20 ADD PUSH1 0x0 KECCAK256 PUSH1 0x0 PUSH2 0x100 EXP DUP2 SLOAD DUP2 PUSH1 0xFF MUL NOT AND SWAP1 DUP4 ISZERO ISZERO MUL OR SWAP1 SSTORE POP DUP1 PUSH1 0x3 ADD PUSH1 0x0 DUP2 SLOAD DUP1 SWAP3 SWAP2 SWAP1 PUSH2 0xB04 SWAP1 PUSH2 0x139A JUMP JUMPDEST SWAP2 SWAP1 POP SSTORE POP POP POP JUMP JUMPDEST PUSH1 0x0 PUSH1 0x40 MLOAD SWAP1 POP SWAP1 JUMP JUMPDEST PUSH1 0x0 DUP1 REVERT JUMPDEST PUSH1 0x0 DUP1 REVERT JUMPDEST PUSH1 0x0 DUP2 SWAP1 POP SWAP2 SWAP1 POP JUMP JUMPDEST PUSH2 0xB34 DUP2 PUSH2 0xB21 JUMP JUMPDEST DUP2 EQ PUSH2 0xB3F JUMPI PUSH1 0x0 DUP1 REVERT JUMPDEST POP JUMP JUMPDEST PUSH1 0x0 DUP2 CALLDATALOAD SWAP1 POP PUSH2 0xB51 DUP2 PUSH2 0xB2B JUMP JUMPDEST SWAP3 SWAP2 POP POP JUMP JUMPDEST PUSH1 0x0 PUSH1 0x20 DUP3 DUP5 SUB SLT ISZERO PUSH2 0xB6D JUMPI PUSH2 0xB6C PUSH2 0xB17 JUMP JUMPDEST JUMPDEST PUSH1 0x0 PUSH2 0xB7B DUP5 DUP3 DUP6 ADD PUSH2 0xB42 JUMP JUMPDEST SWAP2 POP POP SWAP3 SWAP2 POP POP JUMP JUMPDEST PUSH1 0x0 PUSH20 0xFFFFFFFFFFFFFFFFFFFFFFFFFFFFFFFFFFFFFFFF DUP3 AND SWAP1 POP SWAP2 SWAP1 POP JUMP JUMPDEST PUSH1 0x0 PUSH2 0xBAF DUP3 PUSH2 0xB84 JUMP JUMPDEST SWAP1 POP SWAP2 SWAP1 POP JUMP JUMPDEST PUSH2 0xBBF DUP2 PUSH2 0xBA4 JUMP JUMPDEST DUP2 EQ PUSH2 0xBCA JUMPI PUSH1 0x0 DUP1 REVERT JUMPDEST POP JUMP JUMPDEST PUSH1 0x0 DUP2 CALLDATALOAD SWAP1 POP PUSH2 0xBDC DUP2 PUSH2 0xBB6 JUMP JUMPDEST SWAP3 SWAP2 POP POP JUMP JUMPDEST PUSH1 0x0 PUSH1 0x20 DUP3 DUP5 SUB SLT ISZERO PUSH2 0xBF8 JUMPI PUSH2 0xBF7 PUSH2 0xB17 JUMP JUMPDEST JUMPDEST PUSH1 0x0 PUSH2 0xC06 DUP5 DUP3 DUP6 ADD PUSH2 0xBCD JUMP JUMPDEST SWAP2 POP POP SWAP3 SWAP2 POP POP JUMP JUMPDEST PUSH1 0x0 DUP2 ISZERO ISZERO SWAP1 POP SWAP2 SWAP1 POP JUMP JUMPDEST PUSH2 0xC24 DUP2 PUSH2 0xC0F JUMP JUMPDEST DUP3 MSTORE POP POP JUMP JUMPDEST PUSH1 0x0 PUSH1 0x20 DUP3 ADD SWAP1 POP PUSH2 0xC3F PUSH1 0x0 DUP4 ADD DUP5 PUSH2 0xC1B JUMP JUMPDEST SWAP3 SWAP2 POP POP JUMP JUMPDEST PUSH1 0x0 DUP2 MLOAD SWAP1 POP SWAP2 SWAP1 POP JUMP JUMPDEST PUSH1 0x0 DUP3 DUP3 MSTORE PUSH1 0x20 DUP3 ADD SWAP1 POP SWAP3 SWAP2 POP POP JUMP JUMPDEST PUSH1 0x0 JUMPDEST DUP4 DUP2 LT ISZERO PUSH2 0xC7F JUMPI DUP1 DUP3 ADD MLOAD DUP2 DUP5 ADD MSTORE PUSH1 0x20 DUP2 ADD SWAP1 POP PUSH2 0xC64 JUMP JUMPDEST PUSH1 0x0 DUP5 DUP5 ADD MSTORE POP POP POP POP JUMP JUMPDEST PUSH1 0x0 PUSH1 0x1F NOT PUSH1 0x1F DUP4 ADD AND SWAP1 POP SWAP2 SWAP1 POP JUMP JUMPDEST PUSH1 0x0 PUSH2 0xCA7 DUP3 PUSH2 0xC45 JUMP JUMPDEST PUSH2 0xCB1 DUP2 DUP6 PUSH2 0xC50 JUMP JUMPDEST SWAP4 POP PUSH2 0xCC1 DUP2 DUP6 PUSH1 0x20 DUP7 ADD PUSH2 0xC61 JUMP JUMPDEST PUSH2 0xCCA DUP2 PUSH2 0xC8B JUMP JUMPDEST DUP5 ADD SWAP2 POP POP SWAP3 SWAP2 POP POP JUMP JUMPDEST PUSH2 0xCDE DUP2 PUSH2 0xB21 JUMP JUMPDEST DUP3 MSTORE POP POP JUMP JUMPDEST PUSH2 0xCED DUP2 PUSH2 0xBA4 JUMP JUMPDEST DUP3 MSTORE POP POP JUMP JUMPDEST PUSH1 0x0 PUSH1 0xC0 DUP3 ADD SWAP1 POP DUP2 DUP2 SUB PUSH1 0x0 DUP4 ADD MSTORE PUSH2 0xD0D DUP2 DUP10 PUSH2 0xC9C JUMP JUMPDEST SWAP1 POP PUSH2 0xD1C PUSH1 0x20 DUP4 ADD DUP9 PUSH2 0xCD5 JUMP JUMPDEST PUSH2 0xD29 PUSH1 0x40 DUP4 ADD DUP8 PUSH2 0xCD5 JUMP JUMPDEST PUSH2 0xD36 PUSH1 0x60 DUP4 ADD DUP7 PUSH2 0xCD5 JUMP JUMPDEST PUSH2 0xD43 PUSH1 0x80 DUP4 ADD DUP6 PUSH2 0xCD5 JUMP JUMPDEST PUSH2 0xD50 PUSH1 0xA0 DUP4 ADD DUP5 PUSH2 0xCE4 JUMP JUMPDEST SWAP8 SWAP7 POP POP POP POP POP POP POP JUMP JUMPDEST PUSH1 0x0 PUSH1 0x20 DUP3 ADD SWAP1 POP PUSH2 0xD70 PUSH1 0x0 DUP4 ADD DUP5 PUSH2 0xCD5 JUMP JUMPDEST SWAP3 SWAP2 POP POP JUMP JUMPDEST PUSH1 0x0 PUSH1 0x20 DUP3 ADD SWAP1 POP PUSH2 0xD8B PUSH1 0x0 DUP4 ADD DUP5 PUSH2 0xCE4 JUMP JUMPDEST SWAP3 SWAP2 POP POP JUMP JUMPDEST PUSH1 0x0 PUSH2 0xD9C DUP3 PUSH2 0xB84 JUMP JUMPDEST SWAP1 POP SWAP2 SWAP1 POP JUMP JUMPDEST PUSH2 0xDAC DUP2 PUSH2 0xD91 JUMP JUMPDEST DUP3 MSTORE POP POP JUMP JUMPDEST PUSH1 0x0 PUSH1 0xA0 DUP3 ADD SWAP1 POP DUP2 DUP2 SUB PUSH1 0x0 DUP4 ADD MSTORE PUSH2 0xDCC DUP2 DUP9 PUSH2 0xC9C JUMP JUMPDEST SWAP1 POP PUSH2 0xDDB PUSH1 0x20 DUP4 ADD DUP8 PUSH2 0xCD5 JUMP JUMPDEST PUSH2 0xDE8 PUSH1 0x40 DUP4 ADD DUP7 PUSH2 0xDA3 JUMP JUMPDEST PUSH2 0xDF5 PUSH1 0x60 DUP4 ADD DUP6 PUSH2 0xC1B JUMP JUMPDEST PUSH2 0xE02 PUSH1 0x80 DUP4 ADD DUP5 PUSH2 0xCD5 JUMP JUMPDEST SWAP7 SWAP6 POP POP POP POP POP POP JUMP JUMPDEST PUSH1 0x0 PUSH1 0x20 DUP3 ADD SWAP1 POP DUP2 DUP2 SUB PUSH1 0x0 DUP4 ADD MSTORE PUSH2 0xE26 DUP2 DUP5 PUSH2 0xC9C JUMP JUMPDEST SWAP1 POP SWAP3 SWAP2 POP POP JUMP JUMPDEST PUSH1 0x0 DUP1 REVERT JUMPDEST PUSH1 0x0 DUP1 REVERT JUMPDEST PUSH32 0x4E487B7100000000000000000000000000000000000000000000000000000000 PUSH1 0x0 MSTORE PUSH1 0x41 PUSH1 0x4 MSTORE PUSH1 0x24 PUSH1 0x0 REVERT JUMPDEST PUSH2 0xE70 DUP3 PUSH2 0xC8B JUMP JUMPDEST DUP2 ADD DUP2 DUP2 LT PUSH8 0xFFFFFFFFFFFFFFFF DUP3 GT OR ISZERO PUSH2 0xE8F JUMPI PUSH2 0xE8E PUSH2 0xE38 JUMP JUMPDEST JUMPDEST DUP1 PUSH1 0x40 MSTORE POP POP POP JUMP JUMPDEST PUSH1 0x0 PUSH2 0xEA2 PUSH2 0xB0D JUMP JUMPDEST SWAP1 POP PUSH2 0xEAE DUP3 DUP3 PUSH2 0xE67 JUMP JUMPDEST SWAP2 SWAP1 POP JUMP JUMPDEST PUSH1 0x0 PUSH8 0xFFFFFFFFFFFFFFFF DUP3 GT ISZERO PUSH2 0xECE JUMPI PUSH2 0xECD PUSH2 0xE38 JUMP JUMPDEST JUMPDEST PUSH2 0xED7 DUP3 PUSH2 0xC8B JUMP JUMPDEST SWAP1 POP PUSH1 0x20 DUP2 ADD SWAP1 POP SWAP2 SWAP1 POP JUMP JUMPDEST DUP3 DUP2 DUP4 CALLDATACOPY PUSH1 0x0 DUP4 DUP4 ADD MSTORE POP POP POP JUMP JUMPDEST PUSH1 0x0 PUSH2 0xF06 PUSH2 0xF01 DUP5 PUSH2 0xEB3 JUMP JUMPDEST PUSH2 0xE98 JUMP JUMPDEST SWAP1 POP DUP3 DUP2 MSTORE PUSH1 0x20 DUP2 ADD DUP5 DUP5 DUP5 ADD GT ISZERO PUSH2 0xF22 JUMPI PUSH2 0xF21 PUSH2 0xE33 JUMP JUMPDEST JUMPDEST PUSH2 0xF2D DUP5 DUP3 DUP6 PUSH2 0xEE4 JUMP JUMPDEST POP SWAP4 SWAP3 POP POP POP JUMP JUMPDEST PUSH1 0x0 DUP3 PUSH1 0x1F DUP4 ADD SLT PUSH2 0xF4A JUMPI PUSH2 0xF49 PUSH2 0xE2E JUMP JUMPDEST JUMPDEST DUP2 CALLDATALOAD PUSH2 0xF5A DUP5 DUP3 PUSH1 0x20 DUP7 ADD PUSH2 0xEF3 JUMP JUMPDEST SWAP2 POP POP SWAP3 SWAP2 POP POP JUMP JUMPDEST PUSH2 0xF6C DUP2 PUSH2 0xD91 JUMP JUMPDEST DUP2 EQ PUSH2 0xF77 JUMPI PUSH1 0x0 DUP1 REVERT JUMPDEST POP JUMP JUMPDEST PUSH1 0x0 DUP2 CALLDATALOAD SWAP1 POP PUSH2 0xF89 DUP2 PUSH2 0xF63 JUMP JUMPDEST SWAP3 SWAP2 POP POP JUMP JUMPDEST PUSH1 0x0 DUP1 PUSH1 0x0 PUSH1 0x60 DUP5 DUP7 SUB SLT ISZERO PUSH2 0xFA8 JUMPI PUSH2 0xFA7 PUSH2 0xB17 JUMP JUMPDEST JUMPDEST PUSH1 0x0 DUP5 ADD CALLDATALOAD PUSH8 0xFFFFFFFFFFFFFFFF DUP2 GT ISZERO PUSH2 0xFC6 JUMPI PUSH2 0xFC5 PUSH2 0xB1C JUMP JUMPDEST JUMPDEST PUSH2 0xFD2 DUP7 DUP3 DUP8 ADD PUSH2 0xF35 JUMP JUMPDEST SWAP4 POP POP PUSH1 0x20 PUSH2 0xFE3 DUP7 DUP3 DUP8 ADD PUSH2 0xB42 JUMP JUMPDEST SWAP3 POP POP PUSH1 0x40 PUSH2 0xFF4 DUP7 DUP3 DUP8 ADD PUSH2 0xF7A JUMP JUMPDEST SWAP2 POP POP SWAP3 POP SWAP3 POP SWAP3 JUMP JUMPDEST PUSH32 0x4E487B7100000000000000000000000000000000000000000000000000000000 PUSH1 0x0 MSTORE PUSH1 0x32 PUSH1 0x4 MSTORE PUSH1 0x24 PUSH1 0x0 REVERT JUMPDEST PUSH32 0x4E487B7100000000000000000000000000000000000000000000000000000000 PUSH1 0x0 MSTORE PUSH1 0x12 PUSH1 0x4 MSTORE PUSH1 0x24 PUSH1 0x0 REVERT JUMPDEST PUSH32 0x4E487B7100000000000000000000000000000000000000000000000000000000 PUSH1 0x0 MSTORE PUSH1 0x11 PUSH1 0x4 MSTORE PUSH1 0x24 PUSH1 0x0 REVERT JUMPDEST PUSH1 0x0 PUSH2 0x1096 DUP3 PUSH2 0xB21 JUMP JUMPDEST SWAP2 POP PUSH2 0x10A1 DUP4 PUSH2 0xB21 JUMP JUMPDEST SWAP3 POP DUP3 PUSH2 0x10B1 JUMPI PUSH2 0x10B0 PUSH2 0x102D JUMP JUMPDEST JUMPDEST DUP3 DUP3 DIV SWAP1 POP SWAP3 SWAP2 POP POP JUMP JUMPDEST PUSH32 0x4E487B7100000000000000000000000000000000000000000000000000000000 PUSH1 0x0 MSTORE PUSH1 0x22 PUSH1 0x4 MSTORE PUSH1 0x24 PUSH1 0x0 REVERT JUMPDEST PUSH1 0x0 PUSH1 0x2 DUP3 DIV SWAP1 POP PUSH1 0x1 DUP3 AND DUP1 PUSH2 0x1103 JUMPI PUSH1 0x7F DUP3 AND SWAP2 POP JUMPDEST PUSH1 0x20 DUP3 LT DUP2 SUB PUSH2 0x1116 JUMPI PUSH2 0x1115 PUSH2 0x10BC JUMP JUMPDEST JUMPDEST POP SWAP2 SWAP1 POP JUMP JUMPDEST PUSH1 0x0 DUP2 SWAP1 POP DUP2 PUSH1 0x0 MSTORE PUSH1 0x20 PUSH1 0x0 KECCAK256 SWAP1 POP SWAP2 SWAP1 POP JUMP JUMPDEST PUSH1 0x0 PUSH1 0x20 PUSH1 0x1F DUP4 ADD DIV SWAP1 POP SWAP2 SWAP1 POP JUMP JUMPDEST PUSH1 0x0 DUP3 DUP3 SHL SWAP1 POP SWAP3 SWAP2 POP POP JUMP JUMPDEST PUSH1 0x0 PUSH1 0x8 DUP4 MUL PUSH2 0x117E PUSH32 0xFFFFFFFFFFFFFFFFFFFFFFFFFFFFFFFFFFFFFFFFFFFFFFFFFFFFFFFFFFFFFFFF DUP3 PUSH2 0x1141 JUMP JUMPDEST PUSH2 0x1188 DUP7 DUP4 PUSH2 0x1141 JUMP JUMPDEST SWAP6 POP DUP1 NOT DUP5 AND SWAP4 POP DUP1 DUP7 AND DUP5 OR SWAP3 POP POP POP SWAP4 SWAP3 POP POP POP JUMP JUMPDEST PUSH1 0x0 DUP2 SWAP1 POP SWAP2 SWAP1 POP JUMP JUMPDEST PUSH1 0x0 PUSH2 0x11C5 PUSH2 0x11C0 PUSH2 0x11BB DUP5 PUSH2 0xB21 JUMP JUMPDEST PUSH2 0x11A0 JUMP JUMPDEST PUSH2 0xB21 JUMP JUMPDEST SWAP1 POP SWAP2 SWAP1 POP JUMP JUMPDEST PUSH1 0x0 DUP2 SWAP1 POP SWAP2 SWAP1 POP JUMP JUMPDEST PUSH2 0x11DF DUP4 PUSH2 0x11AA JUMP JUMPDEST PUSH2 0x11F3 PUSH2 0x11EB DUP3 PUSH2 0x11CC JUMP JUMPDEST DUP5 DUP5 SLOAD PUSH2 0x114E JUMP JUMPDEST DUP3 SSTORE POP POP POP POP JUMP JUMPDEST PUSH1 0x0 SWAP1 JUMP JUMPDEST PUSH2 0x1208 PUSH2 0x11FB JUMP JUMPDEST PUSH2 0x1213 DUP2 DUP5 DUP5 PUSH2 0x11D6 JUMP JUMPDEST POP POP POP JUMP JUMPDEST JUMPDEST DUP2 DUP2 LT ISZERO PUSH2 0x1237 JUMPI PUSH2 0x122C PUSH1 0x0 DUP3 PUSH2 0x1200 JUMP JUMPDEST PUSH1 0x1 DUP2 ADD SWAP1 POP PUSH2 0x1219 JUMP JUMPDEST POP POP JUMP JUMPDEST PUSH1 0x1F DUP3 GT ISZERO PUSH2 0x127C JUMPI PUSH2 0x124D DUP2 PUSH2 0x111C JUMP JUMPDEST PUSH2 0x1256 DUP5 PUSH2 0x1131 JUMP JUMPDEST DUP2 ADD PUSH1 0x20 DUP6 LT ISZERO PUSH2 0x1265 JUMPI DUP2 SWAP1 POP JUMPDEST PUSH2 0x1279 PUSH2 0x1271 DUP6 PUSH2 0x1131 JUMP JUMPDEST DUP4 ADD DUP3 PUSH2 0x1218 JUMP JUMPDEST POP POP JUMPDEST POP POP POP JUMP JUMPDEST PUSH1 0x0 DUP3 DUP3 SHR SWAP1 POP SWAP3 SWAP2 POP POP JUMP JUMPDEST PUSH1 0x0 PUSH2 0x129F PUSH1 0x0 NOT DUP5 PUSH1 0x8 MUL PUSH2 0x1281 JUMP JUMPDEST NOT DUP1 DUP4 AND SWAP2 POP POP SWAP3 SWAP2 POP POP JUMP JUMPDEST PUSH1 0x0 PUSH2 0x12B8 DUP4 DUP4 PUSH2 0x128E JUMP JUMPDEST SWAP2 POP DUP3 PUSH1 0x2 MUL DUP3 OR SWAP1 POP SWAP3 SWAP2 POP POP JUMP JUMPDEST PUSH2 0x12D1 DUP3 PUSH2 0xC45 JUMP JUMPDEST PUSH8 0xFFFFFFFFFFFFFFFF DUP2 GT ISZERO PUSH2 0x12EA JUMPI PUSH2 0x12E9 PUSH2 0xE38 JUMP JUMPDEST JUMPDEST PUSH2 0x12F4 DUP3 SLOAD PUSH2 0x10EB JUMP JUMPDEST PUSH2 0x12FF DUP3 DUP3 DUP6 PUSH2 0x123B JUMP JUMPDEST PUSH1 0x0 PUSH1 0x20 SWAP1 POP PUSH1 0x1F DUP4 GT PUSH1 0x1 DUP2 EQ PUSH2 0x1332 JUMPI PUSH1 0x0 DUP5 ISZERO PUSH2 0x1320 JUMPI DUP3 DUP8 ADD MLOAD SWAP1 POP JUMPDEST PUSH2 0x132A DUP6 DUP3 PUSH2 0x12AC JUMP JUMPDEST DUP7 SSTORE POP PUSH2 0x1392 JUMP JUMPDEST PUSH1 0x1F NOT DUP5 AND PUSH2 0x1340 DUP7 PUSH2 0x111C JUMP JUMPDEST PUSH1 0x0 JUMPDEST DUP3 DUP2 LT ISZERO PUSH2 0x1368 JUMPI DUP5 DUP10 ADD MLOAD DUP3 SSTORE PUSH1 0x1 DUP3 ADD SWAP2 POP PUSH1 0x20 DUP6 ADD SWAP5 POP PUSH1 0x20 DUP2 ADD SWAP1 POP PUSH2 0x1343 JUMP JUMPDEST DUP7 DUP4 LT ISZERO PUSH2 0x1385 JUMPI DUP5 DUP10 ADD MLOAD PUSH2 0x1381 PUSH1 0x1F DUP10 AND DUP3 PUSH2 0x128E JUMP JUMPDEST DUP4 SSTORE POP JUMPDEST PUSH1 0x1 PUSH1 0x2 DUP9 MUL ADD DUP9 SSTORE POP POP POP JUMPDEST POP POP POP POP POP POP JUMP JUMPDEST PUSH1 0x0 PUSH2 0x13A5 DUP3 PUSH2 0xB21 JUMP JUMPDEST SWAP2 POP PUSH32 0xFFFFFFFFFFFFFFFFFFFFFFFFFFFFFFFFFFFFFFFFFFFFFFFFFFFFFFFFFFFFFFFF DUP3 SUB PUSH2 0x13D7 JUMPI PUSH2 0x13D6 PUSH2 0x105C JUMP JUMPDEST JUMPDEST PUSH1 0x1 DUP3 ADD SWAP1 POP SWAP2 SWAP1 POP JUMP INVALID LOG2 PUSH5 0x6970667358 0x22 SLT KECCAK256 DELEGATECALL 0xC4 0xA9 PUSH1 0xCE 0xD 0xBE 0xEA SWAP14 DUP2 0xB0 DELEGATECALL STATICCALL 0xD9 SWAP3 SWAP6 SWAP10 PUSH2 0x2431 LOG4 0x4F DUP8 PUSH4 0x32FB449 0xBC 0x4B PUSH5 0x9064736F6C PUSH4 0x43000812 STOP CALLER "},"gasEstimates":{"creation":{"codeDepositCost":"1028800","executionCost":"infinite","totalCost":"infinite"},"external":{"approveRequest(uint256)":"infinite","approvers(address)":"2868","approversCount()":"2474","campaignTitle()":"infinite","contribute()":"51021","createRequest(string,uint256,address)":"infinite","finalizeRequest(uint256)":"infinite","getCampaignDetails()":"infinite","getRequestsCount()":"2512","hasApproved(uint256)":"5141","manager()":"2600","minimumContribution()":"2473","requests(uint256)":"infinite"}},"methodIdentifiers":{"approveRequest(uint256)":"d7d1bbdb","approvers(address)":"0a144391","approversCount()":"82fde093","campaignTitle()":"835a6172","contribute()":"d7bb99ba","createRequest(string,uint256,address)":"8a9cfd55","finalizeRequest(uint256)":"03441006","getCampaignDetails()":"0c611f24","getRequestsCount()":"3410452a","hasApproved(uint256)":"49367252","manager()":"481c6a75","minimumContribution()":"937e09b1","requests(uint256)":"81d12c58"}},"storageLayout":{"storage":[{"astId":44,"contract":"Campaign:Campaign","label":"manager","offset":0,"slot":"0","type":"t_address"},{"astId":46,"contract":"Campaign:Campaign","label":"campaignTitle","offset":0,"slot":"1","type":"t_string_storage"},{"astId":48,"contract":"Campaign:Campaign","label":"minimumContribution","offset":0,"slot":"2","type":"t_uint256"},{"astId":52,"contract":"Campaign:Campaign","label":"approvers","offset":0,"slot":"3","type":"t_mapping(t_address,t_bool)"},{"astId":71,"contract":"Campaign:Campaign","label":"requests","offset":0,"slot":"4","type":"t_array(t_struct(Request)67_storage)dyn_storage"},{"astId":73,"contract":"Campaign:Campaign","label":"approversCount","offset":0,"slot":"5","type":"t_uint256"}],"types":{"t_address":{"encoding":"inplace","label":"address","numberOfBytes":"20"},"t_address_payable":{"encoding":"inplace","label":"address payable","numberOfBytes":"20"},"t_array(t_struct(Request)67_storage)dyn_storage":{"base":"t_struct(Request)67_storage","encoding":"dynamic_array","label":"struct Campaign.Request[]","numberOfBytes":"32"},"t_bool":{"encoding":"inplace","label":"bool","numberOfBytes":"1"},"t_mapping(t_address,t_bool)":{"encoding":"mapping","key":"t_address","label":"mapping(address => bool)","numberOfBytes":"32","value":"t_bool"},"t_string_storage":{"encoding":"bytes","label":"string","numberOfBytes":"32"},"t_struct(Request)67_storage":{"encoding":"inplace","label":"struct Campaign.Request","members":[{"astId":54,"contract":"Campaign:Campaign","label":"description","offset":0,"slot":"0","type":"t_string_storage"},{"astId":56,"contract":"Campaign:Campaign","label":"value","offset":0,"slot":"1","type":"t_uint256"},{"astId":58,"contract":"Campaign:Campaign","label":"recipient","offset":0,"slot":"2","type":"t_address_payable"},{"astId":60,"contract":"Campaign:Campaign","label":"complete","offset":20,"slot":"2","type":"t_bool"},{"astId":62,"contract":"Campaign:Campaign","label":"approvalCount","offset":0,"slot":"3","type":"t_uint256"},{"astId":66,"contract":"Campaign:Campaign","label":"approvals","offset":0,"slot":"4","type":"t_mapping(t_address,t_bool)"}],"numberOfBytes":"160"},"t_uint256":{"encoding":"inplace","label":"uint256","numberOfBytes":"32"}}},"userdoc":{"kind":"user","methods":{},"version":1}}